:020000040800F2
:1060000008140020553A0108E7FC0508DFEA0508F6
:10601000E7FC0508E7FC0508E7FC0508E7FC0508C0
:10602000E7FC0508E7FC0508E7FC0508E7FC0508B0
:10603000E7FC05084C2C0808AD9B0108E7FC0508A7
:10604000E7FC0508E7FC0508E7FC0508E7FC050890
:10605000E7FC0508E7FC0508E7FC0508E7FC050880
:10606000E7FC0508E7FC0508E7FC050891FE0008C9
:106070009DEB050885FE000899EB0508E7FC05087F
:10608000E7FC0508E7FC0508E7FC0508E7FC050850
:10609000E7FC0508E7FC05081D4A0108E7FC0508C0
:1060A000E7FC0508E7FC0508314501081145010832
:1060B000E7FC0508E7FC050821FA020819050308B2
:1060C0001F8206081B82060891FC0208358206081A
:1060D00023820608E90403082782060859050308F5
:1060E00045060308E7FC0508E7FC0508E7FC05088A
:1060F000E7FC0508E7FC0508E7FC0508E7FC0508E0
:10610000E7FC0508E7FC0508E7FC0508E7FC0508CF
:10611000E7FC0508E7FC0508E7FC0508E7FC0508BF
:10612000E7FC0508E7FC0508E7FC0508E7FC0508AF
:10613000E7FC0508E7FC0508E7FC0508E7FC05089F
:10614000E7FC0508E7FC0508E7FC0508A5A201082F
:10615000E7FC0508E7FC0508099407086DDD02085F
:10616000E7FC0508E7FC05080F820608158206080B
:0C617000E7FC0508E7FC0508E7FC050853
:10617C00F0B5114A114C124E00F00105E3695F07AE
:10618C0013D40DB9334213D103EA00078F4207D160
:10619C000B4A1A40002A0CBF00206FF00100F0BD22
:1061AC00013AEBD16FF00200F9E74FF0FF30F6E760
:1061BC006FF00100F3E700BF8096980000000350D9
:1061CC000200010070B50B4BD96911F480310DD16F
:1061DC0001244FF48072084E084DF46020462C6464
:1061EC001A61FFF7C5FF3464EC6070BD6FF00100FD
:1061FC00FBE700BF000003500010035000200350C9
:10620C0070B5C0F30C03054623B140F21A211148B6
:10621C0000F0A2F84FF480320F4B104C9A66E669EE
:10622C0041F6713316400122E3630D4B0021DA6015
:10623C000223656121202361FFF79AFF10B9212009
:10624C00FFF796FF0122074BDA600EB10023E363E0
:10625C0070BD00BF6530080800900050000003506E
:10626C00001003500020035070B5134C6061E369BB
:10627C005B071ED40E4656F8043B8D18A361AE4244
:10628C000BD10423002121202361FFF771FF58B9A2
:10629C00BDE870402120FFF76BBF08210846FFF7CF
:1062AC0067FF10B10423236170BD56F8043BA36152
:1062BC00E5E74FF0FF30F7E7000003502DE9F84316
:1062CC00154682070F46064604D040F266211E484A
:1062DC0000F042F8AB0704D04FF41A711A4800F0E2
:1062EC003BF84FF48032194BDFF868909A6603F54F
:1062FC001C33DA6902F4803841F67132DA63012218
:10630C0003F58053DA6065B928460122104BDA6038
:10631C00B8F1000F03D00022A3F50053DA63BDE8F7
:10632C00F88306F5005404EA0904A41BAC4228BF08
:10633C002C46394622463046FFF796FF0028E4D11A
:10634C00264427442D1BDEE76530080800900050DA
:10635C000020035000E0FFFF5FF800F015FB000881
:10637000013800D0FCE770472DE9F04100231546B5
:10638000C2E900014FF47A7280460F4657F032FBA3
:1063900018A3D3E9002304460E464046394657F079
:1063A00029FB134B80B228815843241A66F100065A
:1063B0004FF4616200232046314657F01BFB4FF437
:1063C0006163C0B2A8725843241A20464FF03C02C1
:1063D0004FF0000366F1000157F00CFBC0B2E87209
:1063E000C0EB0010A4EB80042C73BDE8F08100BF6B
:1063F00080510100005C2605000000000000000044
:106400002DE9F843161E81460D461F460ADBF31799
:1064100031186B414FF0000228BF01224AB1212000
:10642000BDE8F883304670F075F9C3174845AB41B5
:10643000F5D23D4B4B454FF04903AB41EFD316EB43
:10644000090945EBE67529463C220023484657F0EA
:10645000D1FA00233A703C2257F0CCFA00237A702C
:10646000182257F0C7FA04460130BA7088464FF038
:10647000070241F10001002357F0BCFA29463A72A5
:10648000484627A3D3E9002357F0B4FA85B2042D78
:106490003DD905F26C75A9B240F26C705CF077F9E9
:1064A000201A4FF0000368F1000140F26D1257F01E
:1064B000A1FA85B205F26C7189B240F26C705CF0A1
:1064C00066F901462846FD805CF071F940F26D13D3
:1064D000641A4FF00C014FF0000203FB05F568F160
:1064E0000008641B04F101037B81104B68F1000874
:1064F00001FB0030D3B2C35C511C9C4278F1000513
:1065000007D2013400203A71FC70FE6088E7002158
:10651000D8E7E31A1C460A4668F10008EAE700BF1C
:106520008033E101000000007FBD6879D040080899
:106530002DE9F04F93B0CDE90A32DDE91C530E93FB
:1065400053EC102BCDE90801104619468DED060BD2
:106550001E9E57F027F880B1DDE906014FF0FF32AB
:10656000C54B57F047F840B9DDE906014FF0FF325F
:106570006FF4801357F020F870B1DDE908019DED4C
:10658000060B0E9B1E96CDE91C53DDE90A3213B0B3
:10659000BDE8F04F00F088B90022DDE906010023D4
:1065A00057F00AF8002800F03381DDE906A303F173
:1065B000004BCBF30A5016F48063A0F2FF3008BF03
:1065C00006250F9356F01CFD9BA3D3E9002356F03C
:1065D00081FD9BA3D3E9002356F0C6FBCBF3130444
:1065E000894644F07F5180460022A44B504641F436
:1065F000401156F0B7FB94A3D3E9002356F06AFD8F
:1066000002460B464046494656F0AEFB56F0FCFFAC
:10661000044656F0F5FC8EA3D3E900238046894654
:1066200056F058FD0022964B56F09EFB56F0ECFFBC
:1066300089A3D3E9002307464946404656F04AFD60
:1066400080463846894656F0DBFC85A3D3E9002313
:1066500056F040FD02460B464046494656F082FB46
:1066600002460B46CDE90C2356F034FDDDE90C2340
:10667000804689461046194656F076FB0022CDE941
:106680001001804B4046494656F04EFE00227E4B9C
:1066900056F06AFB02460B464046494656F044FE19
:1066A00000227A4B56F060FB02460B4640464946B4
:1066B00056F03AFEDDE90C238046894600204FF073
:1066C000804156F04FFB02460B464046494656F085
:1066D0004BFB02460B46DDE9100156F025FE07F2A2
:1066E000FF3700226A4B56F03FFB00223B0556F075
:1066F000F1FC52465B468046894656F07BFF0028F7
:1067000040F08980CDE90C8904F16303C72B34BFC5
:106710000427052731051BD553A3D3E90023504691
:10672000594656F05DFF00287FD051A3D3E90023DE
:106730005046594656F040FF002876D00027A54223
:10674000C6BF2C1B04F1FF3500253C4646F480668D
:106750000E9B9F422CBF4FF00008A3EB070816F0DA
:10676000020903D0002F18BF4FF000083CB1DDE94B
:106770000C235046594656F0D7FD82468B46DDE93C
:1067800006010022002356F017FF10B10BF1004361
:106790009B46DDE9080126F40063CDE90183DDE9CC
:1067A0000A324BEC10AB009500F07EF802465FB366
:1067B000DDE9091316F0200F00F10105089E0CBF5A
:1067C00065204520B047DDE9080105230022059337
:1067D0000A23002CCDE9023207F1FF374FEAD473C8
:1067E000B8BF64422A46019304970A9B009460F064
:1067F00077FF0246B9F1000F06D00B9BC41A0B9B22
:106800001A190E9BA34245D8104613B0BDE8F08F6D
:10681000DDE906ABCDE60022404649461A4B56F06C
:1068200083FD013CCDE90C016EE7002D90D00F9B5C
:10683000002B8DD0013D8BE7FB799F501344D33F54
:10684000B3C8608B288AC63F61436F63A787D23F76
:1068500071A379094F930A401655B5BBB16B02403D
:10686000EF39FAFE422EE63F2D431CEBE2361A3F8B
:106870000000000080842E41FFFFEF7F0000F83F02
:106880000000E03F00002C400000244000001840C1
:106890000000F03F2020DDE90913089DA8470134DE
:1068A000ADE700BF000000002DE9F04F97B05BECB2
:1068B00010ABDDE92057CDE90501CDE907235046AE
:1068C00052465B465946229E56F06CFE70B9032331
:1068D000CDE902760193B04B0093DDE90501DDE9D6
:1068E000072360F01DFE17B0BDE8F08F4FF0FF32B8
:1068F0006FF480135046594656F05EFE28B10423CB
:10690000CDE902760193A54BE6E74FF0FF32504602
:106910005946A34B56F06EFE68B1A24A06F0040336
:10692000002B08BF0322A04B1CBF13460422CDE955
:1069300002760192D0E7504693A3D3E9002359464B
:1069400056F058FE38B992A3D3E900235046594671
:1069500056F032FE68B1DDE90723DDE905014BECB5
:1069600010ABCDE92176209517B0BDE8F04FFFF7C9
:10697000DFBD002200235046594656F01DFE002878
:1069800000F09A805B4652460020002156F0EAF95A
:10699000012382468B46099316F4806400F08E80B2
:1069A000092D40F28E80002430210EABA5F10902A2
:1069B0000134202C03F8011BA5EB040901D09442FB
:1069C000F6D15946504656F01FFE784B054603EB6C
:1069D000C90393ED007B8DED0A7B56F011FB024657
:1069E0000B465046594656F0BDF9DDE90A2356F0EC
:1069F00071FB02460B46CDE90C2356F02DFE804676
:106A000056F0EEFA02460B46DDE90C0156F0AAF903
:106A100002460B46CDE90C230022654B56F0EAFDF9
:106A2000002851D008F10108404656F0D9FA024634
:106A30000B46DDE90A0156F0C9FD10B14FF0000820
:106A40000135B9F1000F50D1284656F0D9FA024667
:106A50000B465046594656F085F90022544B804665
:106A6000894656F0A9FD30B1002240464946504BB8
:106A700056F0C0FD10B1E80700D501350A210EAB74
:106A80001A19202C0AD095FBF1F001FB1055303576
:106A900002F8015B013405460028F2D106F003023A
:106AA000012A57D1002F55D0099A12B916F00C0FB0
:106AB00000D0013F302245E009906DE74FF0060914
:106AC0007FE7A94600247CE70022DDE90C01384B72
:106AD00056F072FD0028B4D1B8F1000F02D018F0C2
:106AE000010FAED008F10108ABE70A210EAB234439
:106AF000202C0ED0B8FBF1F001FB1082B8F1090F89
:106B000002F1300209F1FF3904F1010403F8012B0D
:106B100011D83021A1440EAA202CAFD0A14504F1F8
:106B200001030AD11C4609F158030DEB03092E237A
:106B300009F8203CA2E78046DAE7A1541C46EBE7BF
:106B40001A550134A74205D9202CF9D1CDE9027696
:106B50000194C1E6202CF9D0099A3AB12D2104F113
:106B600058026A4402F8201C0134EFE7710704D58B
:106B700004F158022B216A44F4E73207E6D504F108
:106B8000580220216A44EDE70000000065CDCD41A8
:106B90000000000065CDCDC1835108088751080869
:106BA000FFFFEF7F7A5108087F51080890510808CD
:106BB0000000E03F00000000F0B5934C9FB0228839
:106BC000A3780021ADF80C2013A82C228DF80E30EC
:106BD0006FF0D8FD4FF00233159340F20B130AAD5E
:106BE0000434ADF874300FCC0FC50FCC0FC523683B
:106BF000864A2B60864B874D06930023CDE90733E9
:106C000009934FF0FF33284683492B6029F026FE75
:106C10000446002853D12868431C06D140F2A44101
:106C20007E4B7F4A7F4808F05DFF03A929F054FEA0
:106C30000446002843D1286860F0CBFE7A4E7B4F93
:106C40003070286860F0C7FE3870286860F0C5FEB4
:106C5000774B7849187028682AF03CF904460028D8
:106C60002DD13378744E4BB974482EF0D5FB30607B
:106C7000D0B940F2DC41724B694AD3E771482EF03B
:106C8000CBFB30600028EFD0C18928682AF086F855
:106C90003368214658682EF0F9FB044678B96748F6
:106CA0002EF0BAFB306090B1C18928682AF076F8DE
:106CB0003368042158682EF0E9FB044638B12346B6
:106CC00022210220604A61F01CFE1FB0F0BD11F0CD
:106CD0009DFE5E4BCDE9040104AAA3F1080112F860
:106CE000010B03F8010D9942F9D13B78002B46D1F5
:106CF0005749286861F099FB04460028DFD15549BF
:106D0000286861F07CFB04460028D8D152492868E5
:106D100029F0E4FE04460028D1D139A3D3E90023A9
:106D2000CDE90023286861F082FB04460028C6D123
:106D30004A4A4B49286861F0DAFB04460028BED174
:106D4000484A4949286861F0D6FB04460028B6D174
:106D50000121286829F0DEFD04460028AFD1A023D8
:106D6000424A06A8D380424A136011F023FF414BE8
:106D7000186088B940F225513F4B294A52E71C223E
:106D8000002116A86FF0FEFC286813A92AF09EFACD
:106D900004460028ACD092E722460121082012F0D8
:106DA00063F8364B186020B94FF4A561344B1C4A88
:106DB00038E722460121082012F056F8314B1860BE
:106DC00020B940F22B51304B154A2BE72F4A30495E
:106DD000304830F051F92F484BF00CF800212E4884
:106DE0000AAA11F09BFF2D4B186000287FF46DAFAD
:106DF00040F237512A4B0A4A14E700BFAFF3008034
:106E0000C88D01C10340000020D008087951030853
:106E10003BC5080824A10020142C012050C50808F7
:106E200021CF08080AC30808F6190120F519012026
:106E3000F419012007001100E0900020859E06084B
:106E400077C508086F9E060802C60808FF190120CA
:106E50001ED008081CD0080828A100209C2D012065
:106E6000281900209E2D01201C910020542C012067
:106E700090A10020A4A100208FC50808A0A1002097
:106E8000ABC508089CA10020C8C50808E8C50808CB
:106E90003556030844A100209D670308A8A10020DF
:106EA000F1C50808000000002DE9F34705465A4CDB
:106EB00022211020594A61F024FD1422294620463F
:106EC0006FF007FDA27B564BDFF8A0A11A70637C20
:106ED00000228AF800300023CDE90023DFF89081FA
:106EE00000224FF40073D8F8000061F0A0FA0646C3
:106EF00020B10126304602B0BDE8F087494B4A4F29
:106F00001B787BB949482EF087FA04463C60FCB9EF
:106F1000474A2221022061F0F4FC0122454B212640
:106F20001A70E7E7444B454C1A88454BD8F80000E7
:106F300053F82210434A8B6821603B6029F0B8FD6A
:106F40002268414B946824221B8802FB0344DDE73E
:106F50003E4B1C60394BD3F80090B9F1000F07D0BD
:106F600000232420D9F80C108B4208D100251AE008
:106F700040F2ED71364B374A374808F0B3FDD9F887
:106F8000085000FB0355EA695278120912F00E0FFF
:106F90002BD0052A29D8314B0021EA89B3F900000A
:106FA0003D602EF0ABFA1AA3D3E90023CDE900230C
:106FB000D8F8000061F03BFAD9F80820AA4207D0BF
:106FC000274B3A600421D289B3F900002EF096FADB
:106FD000244BE2893C601A80234B1B783BB92FF08D
:106FE00095FA01202EF020FF84E70133BCE79AF8E0
:106FF00000301B0913F00E0FF1D101220721D8F840
:10700000000061F042FB0028E9D072E7AFF3008096
:10701000C88D01C103420000E4900020D7C90808D0
:10702000EB190120EF190120E090002075550308AD
:10703000F3C90808ED19012020AB0020D4900020EE
:10704000EC250120855103081EAB0020DC900020B8
:107050002FCA0808DFCD08080AC30808A02D0120A0
:10706000A22D0120962D0120F5190120EA190120F9
:1070700024A10020000000002DE9F84390F8E86109
:10708000054644683EB902202721414A61F039FC97
:107090003046BDE8F88394F90130002B1ADA731EEC
:1070A0005BB2637000EB431393F825302370A06844
:1070B00055F0B8FF32A3D3E900238046894694F9FE
:1070C000017056F097FAF8B1002F1DDD013F002343
:1070D000677024E09E42227805DD00EB431393F8AD
:1070E00025309342E3D0002305F125016370580158
:1070F000085C904208BF637001339E42F7D8731E4C
:10710000637000232371D2E740461FA3D3E9002315
:10711000494656F06FFAF0B12379E3B1013B237190
:1071200094F9013005F5F57005EB431393F825301C
:10713000237085F8EA31052395F8022285F8EC31B1
:1071400085F8F02100230E2285F8EB3185F8F22135
:1071500085F8F1319DE740460BA3D3E9002349466A
:1071600056F02AFA0028DBD023790133DBB2092B51
:107170002371D5D9013EBE42D2DD0137A7E700BF5A
:10718000666666666666E63F9A9999999999B93FE7
:107190002E930908000000002DE9F8432DED028B25
:1071A00087680546384616460C4655F03BFF28A32F
:1071B000D3E900238046894656F01CFA88BB26A3F3
:1071C000D3E900234046494656F0F6F960BBF7EE96
:1071D000007A07EE107A87EE878A6B7F607F012244
:1071E000834224D000214BF09BFA01220446314611
:1071F000687F4BF095FA044404F2D5702860D8B14A
:1072000007EE900AF8EE677A9FED0D7A67EE887ABE
:1072100087EE270ABDEC028B10EE103AEB60BDE85A
:10722000F8839FED088AD8E79FED078AD5E73146B6
:1072300018464BF075FAE1E79FED040AEAE700BF54
:1072400000007A44E4388E3F00401C4600000000F5
:10725000CDCCCCCCCCCCEC3F9A9999999999B93FAB
:107260002DE9F74F064690F8E8010D469146A0B388
:107270007468A3690133A361A37D06EB43131A7FEE
:1072800002441A77D4E90732C3EB520207EE902A80
:107290004000B8EE677A07EE900AF8EEE76AF4EE7F
:1072A000C76AF1EE10FA0BD507EE903A37EE667A20
:1072B000F8EE677A77EE877AFCEEE77AC4ED077A24
:1072C0004FF0000BD9450BD842F21073A2699A42D5
:1072D00082BF0023C4E90633236203B0BDE8F08F08
:1072E000B5F802A02F79BAF1000F2ED0384655F02C
:1072F00087FECDE90001504655F082FE02460B465E
:10730000DDE9000156F010F802460B4600204C491A
:1073100055F028FD56F0C0F907EE100A96F8033232
:10732000AAEB0700034486F8033294F8243033B301
:1073300094F825305B4522D1BAF1000F08D1C4F88A
:1073400020A00BF1010B0635BCE7B7EE007AE5E7AC
:10735000E3690133E3612A78002AF2D000239846DA
:1073600096F8E8C106F108019C450FD8B8F1000F66
:1073700014D127210220334A61F0C3FAE1E72A78C9
:10738000002ADED0BAF1000FDBD0E7E791F81DE06C
:107390000133964508BF88462031E5E7002288F88A
:1073A0001420B8F81020D8F8043017440133BAB2CA
:1073B000C8F80430A8F810701AB198F81D2086F8A3
:1073C0001422F7EE007A012B77EEC77A8CBFB3EE6A
:1073D000097A9FED1D7AB8F8122088BF67EE877A88
:1073E0000244A8F81220D8F808208CBF9FED177A25
:1073F00067EE877A06EE102ADFED156AE6EE077A69
:1074000087EEA67A17EE103A17EE100AC8F8083081
:1074100055F008FE08A3D3E9002356F0CDF818B1C3
:10742000FF2388F815308CE798F91530013388D19F
:107430000423F6E7AFF30080666666666666EE3F95
:107440000000F03F4E9309080000484200009642B9
:107450000000C842000000002DE9F04F2DED028B26
:10746000054600274FF0200A4FF0080B0B46082076
:107470004D4A87B08846272161F043FA95F8E831F4
:1074800027210820494A61F03CFA6C6805F108069A
:10749000E37D23716371637595F8E891B9450DDC5F
:1074A0003FA7D7E900674FF00008AA46C346C14589
:1074B00046D807B0BDEC028BBDE8F08FE17D4246B7
:1074C0001AFB01B130462944FFF766FE96F81D907D
:1074D0000495F06855F0A6FDCDE90201B06855F0BD
:1074E000A1FD4B46CDE90001314A2721082061F07A
:1074F00008FA2379D6ED037A05EB431292ED057A6B
:10750000F4EEC77AF1EE10FA02DB327F22710EE060
:1075100017B995F82420F9E7637905EB431393ED48
:10752000057AF4EEC77AF1EE10FA04DB337F63716B
:1075300001372036B0E7012FFAD195F84430F6E74D
:10754000E37D434515D09AED048A18EE100A55F0F4
:1075500069FD32463B4656F043F810B9BBF1000FC7
:107560000CD19AF8243022799A4202D062799A4258
:1075700011D108F101080AF1200A98E7637D05EBB3
:107580004313D3ED047AB4EEE78AF1EE10FAE8DAA9
:107590004FF0010BEDE76375FAE700BFAFF3008032
:1075A000666666666666EE3F669309088893090814
:1075B00097930908000000002DE9F047D0F80480F7
:1075C00000EB411393F8245098F817300446AB426F
:1075D0002DD098F81530AB4229D000EB411ADAF8DB
:1075E00010004FEA411955F01DFD13A3D3E9002304
:1075F00006460F4655F0EAFF10B99AF91D00A0B1F2
:1076000098F80430AB4212D098F80530AB420ED057
:1076100009A3D3E900233046394655F0EBFF18B1F2
:107620004C44637F013B63770120BDE8F087002075
:10763000FBE700BFAFF30080666666666666EE3FF6
:107640002DE9F34704460E46456827210820804A65
:1076500061F057F920463146FFF7FEFE28466EF0EE
:1076600094F8002800F0BA8020466EF0A1F8061EBB
:10767000C0F2B48094F8E8319E4280F2AF8004EB0F
:107680004617334627210820724A61F03AF927212C
:10769000082097F82530704A61F033F9012295F8F7
:1076A00004C085F8242004EB4C13386A196A884218
:1076B00097F8250002D8397F322977D9012284F83A
:1076C000EC21002284F8EA0184F8EB21A97D2970DD
:1076D00093F8251084F8F01193F8263084F8F121FE
:1076E00084F8F231697D85F801C004EB411393F809
:1076F0002500012684F8F60193F8263084F8F83145
:10770000002384F8F731A97085F82520A04605F1FB
:10771000FF3904F1120A19F8013F5F1C002E00F036
:10772000898004EB4313186955F07CFC02460B4634
:10773000CDE9002342A3D3E9002355F05BFF40B914
:1077400041A3D3E90023DDE9000155F035FF00280E
:1077500070D004EB4717BB79042B8EBF0223013393
:10776000C3F3460388F8EC3108F10608C245D2D1CC
:10777000EA7D04F5F57004EB421393F8253084F8A4
:10778000FC31002384F8FD31EA7085F8243094F848
:10779000F22194F8EC31134494F8F821C3F1130367
:1077A0009B1A84F8FE3102B0BDE8F08793F825708B
:1077B000697D84F8EA7193F8263084F8EC3100236F
:1077C00084F8EB3185F800C084F8F13184F8F001D9
:1077D00084F8F22104EB41136E7088E700262A79C1
:1077E00004EB421393F8251084F8EA1193F826303D
:1077F00084F8EB6184F8EC312A706A7904EB421367
:1078000093F8251084F8F01193F8263084F8F1618C
:1078100084F8F2316A706A7D04EB421393F8251004
:1078200084F8F61193F8263084F8F76184F8F8317B
:10783000AA706BE704EB4717BB7993E7AFF30080BF
:10784000666666666666EE3F9A9999999999B93F18
:10785000BB930908C9930908D993090800000000DF
:107860002DE9F8432DED028B87680546384616460C
:107870000C4655F0D7FB2EA3D3E90023804689465A
:1078800055F0B8FE00283DD12BA3D3E90023404694
:10789000494655F091FEC0BBF7EE007A07EE107A2C
:1078A000AB7F87EE878A07EE903AB8EEE77AB4EEC0
:1078B000C87AF1EE10FA01D5B8EE678A6B7F607F67
:1078C0000122834224D000214AF02AFF01220446EB
:1078D0003146687F4AF024FF044404F2D5702860E2
:1078E000D8B107EE900AF8EE677A9FED0D7A67EE51
:1078F000887A87EE270ABDEC028B10EE103AEB6017
:10790000BDE8F8839FED078AD8E79FED078AD5E7A2
:10791000314618464AF004FFE1E79FED040AEAE722
:1079200000007A44E4388E3F00401C46000000000E
:10793000CDCCCCCCCCCCEC3F9A9999999999B93FC4
:107940002DE9F04F2DED028B90F8E83105460E46FB
:10795000934689B0002B00F0238127210820964A06
:1079600060F0CFFF00226C68A1690131A16195F838
:10797000E80190423DD8D4E907230A2779436427D8
:10798000B1FBF7F1C2EB53030B4407EE903A43000F
:1079900006EE903AF8EE677AF8EEE66AF4EEE76AF9
:1079A000F1EE10FA0BD507EE102A77EEE67AB8EE74
:1079B000477A77EE277AFCEEE77AC4ED077A00275C
:1079C000B846BB451DD8B8F1010F00F0E680B8F10C
:1079D000130F40F2B9800023A3612721082095F8F6
:1079E0000332764A09B0BDEC028BBDE8F04F60F07F
:1079F00088BFA37D013205EB43131F7F01371F773B
:107A0000B7E7B6F8029096F804A0B9F1000F41D09C
:107A1000504655F0F5FACDE90601484655F0F0FA22
:107A200002460B46DDE9060155F07EFC02460B4698
:107A30000020634955F096F955F02EFE08EE100A25
:107A4000337818EE100A0693049555F0EBFA069B6E
:107A5000CDE902015B4A27210820CDE9009A60F0B8
:107A600050FF7288337995F80312D31A0B4485F8C6
:107A7000033294F82430C3B194F82530BB4214D1BA
:107A80005AB92262272108204F4A60F03AFF013795
:107A9000063696E7B7EE008AD2E7E369272101337D
:107AA00008204A4AE36160F02CFFB6F802A0BAF160
:107AB000000FECD00023E25D05EB4211C8680B77A4
:107AC0000130C86096F804C00B8B4FEA421963443A
:107AD0009BB20B831BB191F8253085F81432F7EE79
:107AE000007A05EB0902538B01285344A3EB0C03E6
:107AF00077EEC87A53830DD9B2EE0E7AD2ED046ACE
:107B000027EE877ADFED327AA6EEA77ADFED316ACB
:107B1000C7EE267AA944C9ED047A17EE900A55F00B
:107B200081FA23A3D3E9002355F046FD30B1FF23AA
:107B300089F81D30C2441FFA8AF8A8E799F91D3068
:107B40000133F7D10423F3E7B8F1020FD4ED0B7A38
:107B5000B1EE047A15D977EE877AB3EE047AF4EEB3
:107B6000477AF1EE10FA77FE277A42F21073A26993
:107B7000C4ED0B7A9A4282BF0023C4E90633236224
:107B80002BE7F2EE046A77EEE67AF4EE477AF1EE4E
:107B900010FA48BFF0EE477AE7E7DFED0F7AE4E747
:107BA00009B0BDEC028BBDE8F08F00BFAFF30080E1
:107BB000666666666666EE3F1E9409088494090848
:107BC0000000F03F3494090865940908749409088A
:107BD0000000AA420000C8420000000000000000AF
:107BE0002DE9F84F2DED028B0546884600274FF012
:107BF00020094FF0080B446800F10806E37D23716B
:107C00006371637595F8E8A1BA450CDC0FF2D009F1
:107C1000D9E9008900262F46B346B24532D8BDECDB
:107C2000028BBDE8F88FE17D424619FB01B1304679
:107C30002944FFF715FE2379D6ED037A05EB4312AD
:107C400092ED057AF4EEC77AF1EE10FA02DB327F9C
:107C500022710EE017B995F82420F9E7637905EB56
:107C6000431393ED057AF4EEC77AF1EE10FA04DBD4
:107C7000337F637101372036C4E7012FFAD195F8BD
:107C80004430F6E7E37DB34215D097ED048A18EE51
:107C9000100A55F0C7F942464B4655F0A1FC10B901
:107CA000BBF1000F0AD197F8243022799A4202D012
:107CB00062799A420FD101362037AEE7637D05EB3A
:107CC0004313D3ED047AB4EEE78AF1EE10FAEADA60
:107CD0004FF0010BEFE76375FAE700BFAFF30080E9
:107CE000666666666666EE3F2DE9F047456890F881
:107CF000E821AB690446B3EB420F2ED900EB4113E8
:107D000093F82480EB7D43452AD06B7D434527D0F3
:107D100000EB411ADAF810004FEA411955F082F9E8
:107D200011A3D3E9002306460F4655F04FFC10B9C6
:107D30009AF91D0090B12B79434511D06B794345D9
:107D40000ED009A3D3E900233046394655F052FC42
:107D500018B14C44637F013B63770120BDE8F08795
:107D60000020FBE7AFF30080666666666666EE3F5E
:107D70000348044B834202D0034B03B118477047BA
:107D8000EC390120EC39012000000000064B0749C6
:107D9000C91A891048BF0131491003D0044B0BB1F7
:107DA00001481847704700BFEC390120EC39012029
:107DB0000000000010B5064C237843B9FFF7D8FF48
:107DC000044B13B10448AFF300800123237010BDAE
:107DD00030AB0020000000000CAC090808B5054BD2
:107DE0001BB105490548AFF30080BDE80840FFF727
:107DF000CDBF00BF00000000082300200CAC090824
:107E0000A3F5803A704700BF174B002B08BF134BF8
:107E10009D46FFF7F5FF00218B460F461348144A95
:107E2000121A6EF0AFFC0E4B002B00D098470D4B92
:107E3000002B00D098470020002104000D000D48C1
:107E4000002802D00C48AFF3008056F0DDFA200085
:107E500029005AF05AFC55F05DFF00BF00000800F1
:107E6000000000000000000008140020081400209A
:107E7000F8220120000000000000000008B506F014
:107E800025FB0022084BC3E90001084BC3E90001B0
:107E9000074B08491A8000220023C1E90023064944
:107EA000C1E9002308BD00BF881400208014002011
:107EB0007AAA002078140020701400202DE9F04FD9
:107EC0009BB000AF00233149314A04460D4692462B
:107ED00018460133DBB2082B01F8010B02F8010B45
:107EE000F7D107F10B0060F0C0FE18B181B229484C
:107EF00020F0C6FE6A46FB7A07F10B00A2EBC30333
:107F00009D4669466E4660F0C5FE18B181B22248B2
:107F100020F0B6FE4FF00008FA7A5FFA88FB5A4567
:107F200008D820462B686C3723606B686360BD46B9
:107F3000BDE8F08F06EBCB094FEACB0307F10C014C
:107F400048467B6060F0BFFEF96A49B9134948466C
:107F500060F0B9FE56F83B102960D9F8041069604A
:107F6000F96A01290ED148460D4960F0ACFE7B68E4
:107F70003344994656F83B30CAF80030D9F80430FB
:107F8000CAF8043008F10108C6E700BFE9B30020D1
:107F9000E1B3002068940708A194070844BD0020BD
:107FA000EBBC002013B56846FFF788FF084C094A70
:107FB0002146D3790848927920F076FE2146074A77
:107FC0000748D379927902B0BDE8104020F06CBE2A
:107FD000D5940708E9B30020D0BC0020E1B300200D
:107FE000C8BC00202DE9F043A7B0314CE42720465F
:107FF00060F0E1FE56F03FFD21AD02462D492846D6
:1080000020F052FEFFF7CEFF2B4B2088D3E9001261
:10801000013142F10002C3E90012284BDE7A284BFD
:1080200007FB0633B3F88470264B274E1E93274B6D
:10803000D3E90A89CDE91C89D3E90889CDE91A89F0
:10804000D3E90689CDE91889D3E90489CDE91689F0
:10805000D3E90289CDE91489A378CDE90F07CDE9E9
:108060001173CDE90C121A4B0E900A9593F8442027
:108070004FF48061099293F8452030460892B3F896
:1080800040200792DA8F06929B8F124A0593124B7B
:108090000493124B0393124B0293124B0193124B16
:1080A0000093124B20F014FE304627B0BDE8F08359
:1080B0009DBD00200FB8070868140020102700207D
:1080C0006424002064BC0020F9B7002008140020BC
:1080D00044BD0020EC940708D0BC0020A1BD0020C6
:1080E000FBBB002046960708D8BC0020A9B300209F
:1080F0002DE9F04FF7B0219056F0BDFCDFF88492E7
:1081000002468B4923A820F0CFFDFFF74BFF4846DE
:1081100060F05CFD874860F04EFE874C3CA904206F
:1081200060F00AFD012059A960F006FDD4E9003293
:10813000013342F10002C4E9003299F80030DFF85F
:1081400048A2052B28AD2DAE32AF40F09F8006F03F
:10815000BDF97A4ADFF834B2D2E90032B0EB030855
:1081600061EB02094946404606F08AF97049024629
:10817000284620F099FD7249304620F095FDDAE955
:10818000000118EB000049EB010106F079F968499C
:108190000246384620F088FDDBE9000106F070F960
:1081A0006349024637A820F07FFDDAE90001DBE9E8
:1081B000003218EB000049EB010110EB030A41EB20
:1081C000020B5AEA0B0340F09E805E48479B1F93C8
:1081D000439B1E939DF8AC311D935A9B1C93619B4E
:1081E0001B935B9B1A93649B1993524B9B78189338
:1081F00037ABCDE9167354F015FFCDE91401524B9E
:108200001B881393514B1B881095CDE91163504D7A
:10821000686854F0E5FE64230646E8680F46B0FB44
:10822000F3F054F0DDFE02460B463046394655F079
:108230007BF8CDE90E01D4E90023CDE90C2323AB73
:108240000B93444B4FF4806193F8442042480A92C8
:1082500093F845200992B3F840200892DA8F0792EC
:108260009B8F3E4A06933E4B05933E4B04933E4BF9
:1082700003933E4B02933E4B01933E4B0093219B55
:1082800020F026FD344877B0BDE8F08F06F01EF9E7
:10829000394AD2E90032B0EB030861EB020B284601
:1082A00099F80020354920F0FFFC5946404606F079
:1082B000E7F81F490246304620F0F6FCDAE90001F3
:1082C00006F0DEF8DFF8C49002461949384620F07F
:1082D000EBFCD9E9000118EB00004BEB010106F0C3
:1082E000CFF81349024637A820F0DEFCDAE9000196
:1082F000D9E9003210EB030A41EB02031AEB080A3A
:108300004BEB030B5DE754F0AFFE00221C4B54F027
:10831000E1FE804689465046594654F0A5FE024685
:108320000B464046494654F0FFFF55F0B5F94DE77E
:108330000FB807089DBD0020681400208814002095
:108340004B9607080000C84278AA00207AAA0020AD
:108350006823002044BD0020F9B70020629607087A
:10836000D0BC0020A1BD0020FBBB00204696070822
:10837000D8BC0020A9B30020801400204E96070826
:1083800000005940F9BB0020781400207014002030
:108390002DE9F3476D49012060F056FB06466C4914
:1083A0006A480BF0E3F86B4C002E00F0B7804FF4F6
:1083B000AF61694A206820F08BFC56F05CFB2368B3
:1083C0000246664900205FF0B9FA56F054FB226875
:1083D0000146624820F054FC4FF4AF61604AB3B2EA
:1083E000206820F075FC002021685FF0A7FA206863
:1083F00020F046FCE4254FF08F0ADFF88C91DFF87F
:108400008C8199F80B304FF4AF6115FB03A3554AEB
:108410004344206820F05CFC56F02DFB23680246A4
:108420004E4900205FF08AFA56F025FB226801468B
:108430004A4820F025FC99F80B7015FB07A7474424
:1084400038466EF053FA484A0146384657F03CFA2F
:10845000464945480BF08AF840F2D54300934FF463
:10846000AF61424B424A206820F032FC56F003FBD9
:1084700023680246394900205FF060FA56F0FBFAA3
:10848000B82701462268354820F0FAFB99F80B30EE
:108490004FF4AF6115FB0373364A4344206820F064
:1084A00017FC56F0E8FA236802462C4900205FF0DA
:1084B00045FA56F0E0FA22680146284820F0E0FB31
:1084C00099F80B3015FB0375454428466EF00EFAFB
:1084D000294A0146284657F0F7F9284926480BF063
:1084E00045F841F2356300934FF4AF61234B244AC2
:1084F000206820F0EDFB56F0BEFA236802461749CB
:1085000000205FF01BFA56F0B6FA226801461348C5
:1085100020F0B6FB304602B0BDE8F0874FF4AF6103
:108520000B4B184A206820F0D3FB56F0A4FA2368BE
:1085300002460A4930465FF001FA56F09CFA22687A
:108540000146064820F09CFB54E700BFD1B3002051
:10855000A9B30020C027002035490808CC98070897
:10856000D4980708349907085423002059B30020F1
:108570004F990708769907083423002031B300206B
:1085800092990708119907081027002064240020F9
:10859000F8B5FFF7FDFE03220221002029F000FCC0
:1085A000514A411C0346514C106023D14FF4AF6136
:1085B0004F4A206820F08CFB56F05DFA2368024693
:1085C0004C4900205FF0BAF956F055FA226801468E
:1085D000484820F055FB484A4FF4AF61206820F02E
:1085E00077FB216800205FF0A9F9206820F048FBA4
:1085F0000120F8BD4FF4AF61404A206820F068FBCD
:1086000056F039FA236802463A4900205FF096F99D
:1086100056F031FA002501462268394E354820F0DF
:108620002FFB40F2D540356060F078F90322B0802E
:108630000221284629F0B4FB324E421C034630602A
:1086400016D14FF4AF612A4A206820F041FB56F062
:1086500012FA23680246274928465FF06FF956F060
:108660000AFA22680146234820F00AFB264AB3E7AB
:108670004FF4AF61254A206820F02AFB56F0FBF941
:10868000236802461B4928465FF058F956F0F3F973
:108690001F4F0146226817481E4C20F0F1FA41F2A4
:1086A0003560256060F03AF933683E46A08046F8B0
:1086B000043B0FCC0FC694E80F0086E80F0041F290
:1086C0000303FB843223BB6242F22A3312484FF485
:1086D0000071BB85B86357F0AEFB7D63F88587F802
:1086E000245028463D6484E724230020C02700202E
:1086F00035490808CC980708B9990708EF99070881
:1087000048230020202300201F9A0708569A0708B4
:108710007C25012028230020869A070873B53C4D4C
:108720004FF40071E86357F086FB288605F12400BA
:1087300056F007FF064656F0EDFE0446E8B9354D03
:10874000009640F2F2434FF4AF61334A286820F0BC
:10875000BFFA56F090F92B680246304920465FF088
:10876000EDF856F088F92A6801462C4820F088FA7E
:1087700040F2F445284602B070BD05F1240156F0E0
:10878000E2FE00281CDA234D4FF49F634FF4AF61E3
:10879000234A286820F09CFA56F06DF91F490246DA
:1087A0002B6800205FF0CAF856F065F92A68014688
:1087B0001A4820F065FA0025204656F0B7FED9E7A2
:1087C00020230193174B324600932146002328684B
:1087D00029F056FB0130EED12B680E4E00934FF47A
:1087E000AF6140F20453104A306820F071FA56F03D
:1087F00042F933680246094900205FF09FF856F0BD
:108800003AF932680146054820F03AFA3125D3E7B3
:108810007C250120C0270020999A0708CC980708DA
:10882000D99A070828230020139B07082DE9F04355
:1088300085B005461C469DF830609DF83470002ACE
:1088400000F08F80002978D056F015F90146714864
:1088500020F016FA284620F013FA002C40F09A80F7
:108860000124002E3CD02B464FF480616A4A6B48AD
:1088700020F02EFA20230193694BDFF8D09100936A
:1088800086B2002332466549D9F8000029F0F8FA8B
:10889000013040F0838040F2D5430293614B039650
:1088A0000193D9F80030DFF88C8100934FF4AF6169
:1088B00040F236535C4AD8F8000020F009FA56F02E
:1088C000DAF85A490246D8F8003000205FF036F84E
:1088D00056F0D1F8D8F800200146544820F0D0F9DD
:1088E0003FB32B464FF480614B4A514820F0F0F9DA
:1088F00083B2B3F5007F54D94FF400734D4D80B26D
:108900000193009040F243534FF4AF614A4A286804
:1089100020F0DEF956F0AFF8444902462B680020FB
:108920005FF00CF856F0A7F82A6801463F4820F09F
:10893000A7F9204605B0BDE8F08320F0A1F9002C8E
:108940008ED00124DFF8EC802A464FF4AF61D8F8CE
:10895000000020F0BDF9D8F8001000205EF0EEFF16
:1089600016E0002B3FF47DAFB1B11446DFF8C480B0
:108970002A464FF4AF61D8F8000020F0A9F956F06C
:108980007AF8D8F800300246284900205EF0D6FF79
:10899000013466E70124E9E70C46D3E70134E4B289
:1089A0009EE72348FFF7BAFE064610B90134E4B249
:1089B000BFE7204D4FF4AF61204A286820F088F9C6
:1089C00056F059F82B680246184900205EF0B6FFB1
:1089D00056F051F82A680146144820F051F941F246
:1089E00035630293164BB6B20193164B03961B6880
:1089F000154A00934FF4AF6140F24953286820F0C4
:108A000067F9296800205EF099FF286820F038F99E
:108A10008FE700BF419B07080FB8070831AF002060
:108A20004823002059B30020479B0708CC9807082B
:108A300031AB0020C0270020A59B07083549080856
:108A400031B3002020230020119C0708242300209C
:108A50002DE9F04F9BB005F09BFC04F02FFCC448BF
:108A600020F00EF9C34857F012FAC34820F008F975
:108A700007F0C4F8C1486DF039FFC14CC14DD0B109
:108A8000E3880133E38004F0A5FB4FF4AF61BB4BF7
:108A9000BD4A286820F01CF955F0EDFFBB4902469D
:108AA0002B6800205EF04AFF55F0E5FF2A6801467A
:108AB000B64820F0E5F84FF47A706FF076FFB448CE
:108AC00020F0DEF8B34AB449B44820F0EDF8B44BD6
:108AD000B44EB54F0293B54B64213046B44A01936E
:108AE0000097AE4B20F0F4F8CDE900764FF4AF617B
:108AF000AA4BB04A286820F0EBF855F0BCFF2B6871
:108B00000246A24900205EF019FF55F0B4FFAA4FBB
:108B100001462A689D4820F0B3F85021A74BA84A87
:108B2000A848009720F0D4F80DA80BF013F9119B7A
:108B300050211B69A44ACDE90073A2489F4B20F045
:108B4000C7F833464FF4AF61A04A286820F0C0F858
:108B500055F091FF2B6802468C4900205EF0EEFE36
:108B600055F089FF2A680146884820F089F84FF4BB
:108B7000AF61944B954A286820F0AAF855F07BFF26
:108B80002B680246814900205EF0D8FE55F073FF45
:108B90002A6801467D4820F073F84FF4AF618C4B92
:108BA0008C4A286820F094F855F065FF2B6802463F
:108BB000764900205EF0C2FE55F05DFF2A6801464E
:108BC000724820F05DF801202E680AF063FD4FF432
:108BD000AF610346804A304620F07AF855F04BFFEB
:108BE0002B680246694900205EF0A8FE55F043FF5D
:108BF0002A680146654820F043F802234FF4AF612C
:108C0000764A286820F064F855F035FF2B68024654
:108C10005E4900205EF092FE55F02DFF2A68014665
:108C20005A4820F02DF80121032005F069F90122AE
:108C300003211A2005F08CF901220421102005F0EF
:108C400087F901222220114605F082F90122042130
:108C50000B2005F07DF901222520114605F078F959
:108C600001221D20114605F073F901220221002086
:108C700005F06EF901220221282005F069F9584B10
:108C80004FF48061444A574820F022F84FF4AF6116
:108C9000554A286820F01CF855F0EDFE2B68024676
:108CA0003A4900205EF04AFE55F0E5FE2A6801468A
:108CB00036481FF0E5FF4FF4AF614C4A286820F0BA
:108CC00007F855F0D8FE2B680246304900205EF0C8
:108CD00035FE55F0D0FE2A6801462C481FF0D0FF23
:108CE0004FF4AF61424B434A28681FF0F1FF55F043
:108CF000C2FE2B680246254900205EF01FFE55F09B
:108D0000BAFE2A68014621481FF0BAFF4FF4AF614E
:108D1000394B3A4A28681FF0DBFF55F0ACFE2B6850
:108D200002461A4900205EF009FE55F0A4FE2A68AA
:108D3000014616481FF0A4FF4FF4AF61304A28687F
:108D40001FF0C6FF55F097FE2B6802460F49002022
:108D50005EF0F4FD55F08FFE2A4E01462A680B485E
:108D60001FF08EFF30465FF056FF30464CE000BFEC
:108D70007B9C0708C8020808B39C070844EB002046
:108D800010270020C0270020F09C0708CC98070877
:108D900035490808469607080FB80708E0BC0020C8
:108DA000189D070864BC0020369D07081F9D070812
:108DB0000C9D0708439D07086E9D07084D9D0708F9
:108DC000599D070814BC0020779D070830990708B3
:108DD000A19D0708B59D0708C19D0708D29D0708FA
:108DE00000450808F9B30020E89D0708FF9D070823
:108DF000199E0708299E0708419E0708519E0708EB
:108E0000699E0708F1B300200AF038FD9649024632
:108E100096481FF049FFF379B279954995481FF0BC
:108E200043FF4FF4AF61914B934A28681FF050FF06
:108E300055F021FE2B680246904900205EF07EFD31
:108E400055F019FE2A6801468C481FF019FF4FF4AF
:108E5000AF61884B8A4A28681FF03AFF55F00BFE35
:108E60002B680246854900205EF068FD55F003FE40
:108E70002A68014681481FF003FF824982481FF09B
:108E800013FF4FF4AF61804B804A28681FF020FF2A
:108E900055F0F1FD2B680246784900205EF04EFD4A
:108EA00055F0E9FD2A68014674481FF0E9FEE42206
:108EB000774EE37A02FB036393F86C3053B975493C
:108EC000942008F0FBFE9520724908F0F7FE01207F
:108ED00003F068F84FF0E4086F498B2008F0EEFECD
:108EE00003F094FAE27A08FB026292F889300BB33D
:108EF00092F86C70002F40F0AE8001205FF09EFF72
:108F0000E37A4FF4AF6108FB0363644A93F8893056
:108F100028681FF0DDFE55F0AEFD584902462B686B
:108F200000205EF00BFD55F0A6FD2A68014653486F
:108F30001FF0A6FE4FF4AF612389594A28681FF03D
:108F4000C7FE55F098FD2B6802464C4900205EF0A4
:108F5000F5FC55F090FDE42701462A6847481FF0CC
:108F60008FFEE37ADFF85CB107FB0363B3F884009C
:108F70005FF0B9FFE37A4FF4AF6107FB0366494A3C
:108F8000B6F8843028681FF0A3FE55F074FD2B68F6
:108F900002463A4900205EF0D1FC55F06CFD2A688B
:108FA000014636481FF06CFE3F481FF069FE022163
:108FB0000023084604220FF0E7F83C481FF060FE4B
:108FC0003B4B00211B683B4FDA69186890473A4BCE
:108FD000DFF8FC80186806F00FFA012006F012FA9C
:108FE000002006F0C9F935481FF04AFE02F09AFE4B
:108FF00002F034FF05F010F805F092FA05F066FA79
:109000002F4BC3E9000107F001FA05F05FFA0646AD
:109010002C480D465FF0DAFD9BF80030052B59D047
:109020003C2200233046294654F0E4FC1A430BD17D
:1090300055F021FD014638461FF022FE41469BF8BF
:10904000002021481FF01CFE05F03CFB4FF47A7015
:109050006FF0ABFCD9E700974FF4AF611B4A28686B
:109060001FF036FE57E700BF0FB80708A1BD00206C
:10907000D5940708D8BC0020829E0708CC98070822
:10908000919E0708A09E0708FBBB0020B89E07081A
:1090900064240020C1C00008FD920008C89E070893
:1090A000089F0708299F0708429F0708679F07082E
:1090B00070260120419B0708742601209A9F07080B
:1090C00090140020F9BB0020BE9F0708D69E070819
:1090D000A19D070805F0FAF9CDE906010121032059
:1090E00004F00EFF01222220114604F031FF01227C
:1090F0000B20114604F02CFF01222520114604F01C
:1091000027FF01221D20114604F022FF0122022127
:10911000002004F01DFF01220221282004F018FF86
:10912000FFF736FA4523604A604961481FF0A8FD01
:1091300009A901205FF088FC5E481FF0A1FD09A885
:109140000AF086FA0125002601465B481FF0ACFDB7
:1091500041F23362594B584959481FF091FD594823
:109160001FF08EFD41F23362544B534956481FF0B5
:1091700087FD0A2155481FF083FD41F23562544BAB
:10918000544955481FF07CFD54481FF079FD41F2C9
:1091900035624F4B4F4952481FF072FD51494648C6
:1091A00000F02EFD5048FEF71DFF2B462A462946AB
:1091B000CDE90056FFF73AFB4C486DF097FB50B1F4
:1091C00002206FF0F2FB2B462A462946CDE90056D5
:1091D0004648FFF72BFB01254548DFF8188115F0BD
:1091E0002BFC022088F800504FF0000A6FF0DDFBE6
:1091F000DFF8049105F06AF9069BC61A079B61EB3C
:1092000003079BF80030052B2ED105F047F805F039
:1092100059FA01230593304600233946228954F038
:10922000E9FB1A4324D099F8003033BB00233046C1
:109230003946228954F0DEFB013A1A4308BF012562
:10924000052200233046394654F0D4FB53EA02018C
:1092500023D198F8003023B1254815F0EDFB88F8AC
:1092600000A055F0B1FCC5E705F02CFA0023D1E7CA
:109270001DB999F80050002DE2D01B48FEF738FFC9
:10928000059BCDF804A0009301231A461946FFF769
:10929000CDFA002589F800A0C8E7013A1A4304BFB7
:1092A000012388F80030DCE7EB9F0708F89F0708E8
:1092B0000BA007084DA00708A9B3002067A0070866
:1092C00070A00708B3A00708EAA0070821A10708B3
:1092D00052A1070862A107086FA10708BDA10708EE
:1092E000F8A1070881B300200045080844EB0020DE
:1092F00068230020E8BC0020E9BC00202DE9FF47DE
:109300008268CA4DD2B2052A2A7000F21282C84E73
:1093100033889A4200F00D82C64C00924FF4AF6140
:10932000C54A20681FF0D4FC55F0A5FB236802460F
:10933000C24900205EF002FB55F09DFBC04F014684
:109340002268BE481FF09CFC95F800803B7843459E
:1093500008F1FF3388BF87F80080042B41D805F05F
:10936000B5F8DFF8EC92B74B09EBC808C8E9000183
:10937000D3F80080404656F08DFD642016F04CF87E
:10938000404656F099FD2B78581E59F8332009EBCA
:10939000C00C59F8300009EBC301121ADCF804C004
:1093A0004968A94861EB0C0100EBC30C40F833207D
:1093B000CCF80410CDE900214FF4AF61A34A206836
:1093C0001FF086FC55F057FB9C490246236800209D
:1093D0005EF0B4FA55F04FFB2268014697481FF043
:1093E0004FFC2B78052B40F0AB80964BDFF890922A
:1093F000186856F04FFD2A78954B03EBC201D1F85F
:1094000004C0944953F832300A88C9E9003C01325B
:1094100092B20A80397803299FBF8F4801880131B1
:1094200001800521012A397020688C4F40F0848129
:10943000CDE9003C4FF4AF61894A1FF049FC55F07B
:109440001AFB236802467D4900205EF077FA55F04A
:1094500012FB2268014679481FF012FC00231A46CD
:10946000DFF82882C7E9003240466DF03FFA7D4BB5
:1094700087B295F80090188055F0FDFAC7F5806125
:109480004B46794A009008EB07001FF021FC276843
:1094900095F8008055F0EFFA43464FF4AF61724AF9
:1094A000009038461FF014FC55F0E5FA2368024698
:1094B000624900205EF042FA55F0DDFA226801466A
:1094C0005E481FF0DDFB02A8FEF7F8FC674F029B29
:1094D00067493B60039B67487B60FB79BA791FF063
:1094E000E3FB654B1B684BB16448FEF77BFD012332
:1094F0001A461946CDE90033FFF798F901210320F8
:1095000004F0FEFC01222220114604F021FD01227C
:109510000B20114604F01CFD01222520114604F009
:1095200017FD01221D20114604F012FD0122022127
:10953000002004F00DFD01220221282004F008FD86
:109540003388052B40F0F380414F4FF00009BA46B5
:10955000B84604F0BBFFEAE80201287809F10109E6
:109560004845F6DA4FF0000CDFF8DCE03B46BA681D
:10957000D9680CF1010CD3E90093B2EB090261EB5D
:1095800003034EF8082F604507F10807CEF80430B2
:10959000ECDA08EBC00258F830305268DFF8F0809F
:1095A000374FC8E90032D7E900011B1A62EB01020C
:1095B000CDE900324FF4AF61324A20681FF088FBDA
:1095C00055F059FA236802461C4900205EF0B6F9AE
:1095D00055F051FA2268014618481FF051FBD8E9AE
:1095E0000032DFF8B0C0DFF8A480DCE900011B180E
:1095F00042EB0102D7E900105B1A62EB0002404621
:10960000CCE900326DF072F9164B87B295F80090F4
:10961000188055F030FAC7F580614B461A4A009021
:1096200008EB07001FF054FB36E000BFF9BB002039
:1096300074AA0020C02700202EA20708CC98070893
:10964000EABC0020F80208080814002043A207081A
:10965000381400207AAA002078AA00207014002074
:109660006CA2070876AA0020A9A20708E9B3002087
:10967000D5940708D0BC002024230020004508080A
:1096800088140020B4A20708D1A20708F9B300206B
:109690008014002078140020276895F8008055F089
:1096A000EAF943464FF4AF61384A009038461FF05C
:1096B0000FFB55F0E0F923680246354900205EF0C3
:1096C0003DF955F0D8F922680124014630481FF0D1
:1096D000D7FA304B214603201C7004F011FC2246BF
:1096E00003211A2004F034FC22460421102004F047
:1096F0002FFC22462146222004F02AFC2246042187
:109700000B2004F025FC22462146252004F020FCF5
:10971000224621461D2004F01BFC22460221002087
:1097200004F016FC22460221282004F011FC2B78BC
:10973000338004B0BDE8F087DFF86080D8E900121C
:109740005B1A6CEB0202CDE900324FF4AF61124AB2
:109750001FF0BEFA55F08FF9236802460C4900202D
:109760005EF0ECF855F087F92268014608481FF0D2
:1097700087FAD7E90001D9E900321B1842EB010250
:10978000D8E900105B1A62EB000269E6D1A2070873
:10979000CC980708FABB00208DA20708801400208F
:1097A0002DE9F8434FF000082D4F2E4C4FF0FF33BA
:1097B0000022012138686FF067F9C307F6D56FF012
:1097C000BCF894F800906578267E84F800806FF0ED
:1097D000AFF8B9F1000FE9D06B1E042BE6D8DFE833
:1097E00003F003090F1C29001F481FF049FA58F025
:1097F00080FDDBE71D481FF043FA5FF0FBF9F6E759
:109800001B481FF03DFA5FF040F941F28831872094
:1098100006F0F0FD55F0CAF9C8E716481FF030FA17
:109820005FF033F941F28831872006F0E3FD5FF005
:10983000E1F9EFE7314610481FF022FA012E07D177
:1098400004F04EF80D481FF01BFA0AF0A7F9ADE737
:10985000022EF7D10A4B186856F098FEF2E700BFC7
:109860009023002098140020DCA20708FBA2070820
:1098700026A3070849A3070878A30708A6A3070893
:1098800010290120034B186810B101216FF0A2B814
:10989000704700BF9023002008B520220021074810
:1098A0006CF070FF00200FF085F9054B0021186067
:1098B000044A0548BDE808400FF030BA981400206B
:1098C00090230020E4A30708A19700082DE9FF4199
:1098D0008046244814460D466EF0C0FD6FF02DF80A
:1098E000214E074686F80180347675606EF000FEE2
:1098F000044688466EF016FE0246F8B14FF47A71BF
:10990000A4FB0104002301FB084154F073F8024654
:109910000124C6E90221AA1841F100013846C6E92E
:10992000042134706FF004F855B9104B21461868C3
:109930006FF050F8204604B0BDE8F0810146E7E73B
:10994000284603A96EF006FE38B90346CDE90000AB
:10995000074A039903486FF0E4FCB0FA80F040092D
:10996000E9E700BF942300209814002090230020F2
:10997000859800082DE9F843184D06462F780C46C7
:1099800027B36EF0B5FD804689466EF0CBFD0246EA
:10999000F8B14FF47A71A8FB0108002301FB09819B
:1099A00054F028F80246D5E904309A4271EB000CD5
:1099B00011D29B1A60EB01022EB1002A0CBF19468E
:1099C0004FF0FF3131600CB16B7823703846BDE841
:1099D000F8830146E7E700231A46EDE798140020D4
:1099E00084B010B58CB00EAC84E80F009DF87F30C9
:1099F000154C0B939DF87C304FF48061AE3B0A937D
:109A00009DF87D302046AE3B0993BDF876300F4A75
:109A10000893BDF8743007931B9B06931A9B05931C
:109A2000199B0493189B0393179B0293169B019316
:109A30009DF894300093269B1FF04AF920460CB005
:109A4000BDE8104004B07047F9B7002008A407082B
:109A50002DE9F34705460DF107000E4690461F46D7
:109A60005FF003F918B181B226481FF009F99DF89B
:109A70000700002843D0C00058F05AFD04460028D3
:109A80003DD001460DF107005FF004F918B181B235
:109A90001D481FF0F5F89DF807303DB3307883423C
:109AA0002AD9394604EBC0005FF00DF9327804EB97
:109AB000C202D37992790EE004EBC90A39465046C6
:109AC0005FF001F93B6A013583B986F800909AF896
:109AD00007309AF806200D4940461FF0E5F8204669
:109AE00058F045FD012002B0BDE8F0879DF8073031
:109AF0005FFA85F94B45DFD8204658F038FD002045
:109B0000F1E700BF68940708A1940708D5940708F7
:109B100030B5AFB0104D17AC23462A4600200DF1EA
:109B20005B01FFF795FF034670B19DF85B3049225A
:109B30001BA96846139314956CF0CBFE94E80F00B4
:109B4000FFF74EFF2FB030BD4FF48061034A044849
:109B50001FF0BEF80248F5E7C9BD0020E0A40708E1
:109B6000F9B700202DE9F041AEB006460DF15B00DB
:109B70005FF07BF818B181B21C481FF081F89DF8A6
:109B80005B00B04203D81A482EB0BDE8F081C00097
:109B900058F0CEFC04460028F5D001460DF15B00DC
:109BA0005FF078F818B181B212481FF069F804EB41
:109BB000C607DFF8488017AD294638465FF083F8BE
:109BC000FB79BA790C4940461FF06EF8204658F0F0
:109BD000CEFC1BA949226846CDE913686CF079FEDA
:109BE00095E80F00FFF7FCFECEE700BF689407087A
:109BF00000450808A1940708D5940708C9BD0020AE
:109C000070B50D4604461D4E30461FF039F81C480D
:109C10001FF036F841F2356229461A481FF030F835
:109C200019481FF02DF8214618481FF029F8184848
:109C30001FF026F8214617481FF022F807F01AFCFB
:109C400015481FF01DF815481FF01AF814481FF0AA
:109C500017F814481FF014F813481FF011F81348B0
:109C60001FF00EF812481FF00BF812481FF008F80A
:109C70003046BDE870401FF003B800BF3549080802
:109C8000F0A4070824A5070845A5070856A5070856
:109C900096A50708AAA5070802A6070858A6070858
:109CA000A8A6070801A707085FA707089BA707083A
:109CB000F5A7070850A8070870B58EB005460CA890
:109CC0005EF0A9FF0CA809F0D9FD04460DF12E03A2
:109CD0000DF12D020BA90DF12B005FF03CF8BDF842
:109CE0002E30134E08939DF82D30124A07939DF89D
:109CF0002C304FF47A7106939DF82B303046059343
:109D00000D4B099404930D4B03930D4B02930D4B94
:109D100001930D4B00930D4B1EF0DAFF204655F0DA
:109D200061FE2946304654F061FE0EB070BD00BFA2
:109D3000CFBD00208EA8070814BC002064BC002002
:109D4000FBBB0020369D0708E0BC0020D8BC0020EB
:109D500070B59AB004460DF117005EF086FF04F06E
:109D6000B5FB04F08DFB2821024606A81EF0B0FFCB
:109D700004F0ACFB104A10AED2E90032C01A61EB1D
:109D8000020104F07DFB2821024630461EF0A0FFB0
:109D90009DF81730094D0293094B0A4ACDE900633B
:109DA0004FF47A7106AB28461EF092FF21462846F2
:109DB00054F01CFE1AB070BD88140020CFBD0020E6
:109DC000D0BC002038A9070838B501220446074B4B
:109DD000074D1A704FF47A712846064A1EF078FF34
:109DE00021462846BDE8384054F000BEE9BC0020BA
:109DF000CFBD002090A9070810B504460B486CF0B1
:109E000075FD60B14FF47A71084B094A09481EF09C
:109E10005FFF2146BDE81040064854F0E7BD4FF40F
:109E20007A71054A03481EF053FFF2E744EB002025
:109E30000FB80708CFBD0020ABA9070838B5044606
:109E4000064D4FF47A712846054B064A1EF040FF36
:109E500021462846BDE8384054F0C8BDCFBD00209B
:109E6000D8BC00200FB8070838B50446064D4FF49B
:109E70007A712846054B064A1EF02AFF21462846DD
:109E8000BDE8384054F0B2BDCFBD0020E0BC00209A
:109E90000FB8070838B50446064D4FF47A712846C6
:109EA000054B064A1EF014FF21462846BDE83840FF
:109EB00054F09CBDCFBD0020369D07080FB80708A1
:109EC00038B50446064D4FF47A712846054B064ACC
:109ED0001EF0FEFE21462846BDE8384054F086BDFF
:109EE000CFBD0020FBBB00200FB8070870B58AB0BB
:109EF00004462822002168466CF044FCA389002B0C
:109F00003CD0204655F043FB0546A0B36A461D49A8
:109F100054F026F80646284655F008FB5EB368461E
:109F200019496CF0C4FC68B95EF0AFFD41F28831AC
:109F3000872006F05FFA5EF05DFE54F037FE0020E9
:109F40000AB070BD684611496CF0B1FC38B95EF0DA
:109F50009CFD41F28831872006F04CFAEDE76B4614
:109F60000B4A4FF47A710B481EF0B2FE21460948A5
:109F700054F03CFDE4E76B46074AF2E7074B084A1A
:109F8000EFE700BFC2A90708C7A90708D1A90708BA
:109F9000DBA90708CFBD0020F0A9070864BC00209A
:109FA0000FB8070838B50446064D4FF47A712846B5
:109FB000054B064A1EF08CFE21462846BDE8384077
:109FC00054F014BDCFBD002014BC00200FB807080A
:109FD00038B5044604F07AFA04F052FA064D034606
:109FE0004FF47A712846054A1EF072FE2146284633
:109FF000BDE8384054F0FABCCFBD00200FB80708C8
:10A0000038B50446074DFDF7CDFF4FF47A71284669
:10A01000054B064A1EF05CFE21462846BDE8384046
:10A0200054F0E4BCCFBD0020D0BC00200FB807081E
:10A0300038B50446FFF76CFD064D03464FF47A71C0
:10A040002846054A1EF044FE21462846BDE8384011
:10A0500054F0CCBCCFBD00200FB8070810B586B0B7
:10A06000044601A85EF0C1FE68B9BDF80430074A95
:10A070004FF47A7106481EF02BFE2146044854F036
:10A08000B5FC06B010BD0023F1E700BF385D09083C
:10A09000CFBD002013B50023019383890446B3B1DB
:10A0A0000F49806901AA53F05BFF80B19DF804005D
:10A0B000FFF758FD03460B4A4FF47A710A481EF029
:10A0C00007FE2146084854F091FC02B010BD0DF186
:10A0D00003005EF0CAFD9DF80330044AECE700BFC0
:10A0E000402409080FB80708CFBD002007AA0708B9
:10A0F00030B58BB00446114B114DD3E90A01CDE9BF
:10A100000801D3E90801CDE90601D3E90601CDE94B
:10A110000401D3E90401CDE902014FF47A71D3E9D6
:10A1200002232846CDE90023064A1EF0D1FD214630
:10A1300028460BB0BDE8304054F058BC081400204D
:10A14000CFBD00201AAA070838B50446064D4FF4C3
:10A150007A712846054B064A1EF0BAFD214628466C
:10A16000BDE8384054F042BCCFBD0020F9B3002018
:10A170000FB80708F7B500230193838904460F4FF2
:10A1800073B155F004FA054650B10D4901AA53F0D8
:10A19000E7FE0646284655F0C9F90EB1019B3B8102
:10A1A0003B89084A4FF47A7107481EF091FD214619
:10A1B000054854F01BFC03B0F0BD00BF1027002081
:10A1C00040240908385D0908CFBD0020F7B50023F9
:10A1D0000127CDE900331F4E838905463760BBB1A7
:10A1E00055F0D5F9044680B16B461B4901AA53F0DE
:10A1F000B7FE02281CD19DF80010184B3A469DF876
:10A200000400197003F0A4FE3060204655F08EF96A
:10A210003368E3B9114B124A1B784FF47A71114835
:10A220001EF056FD29460F4854F0E0FB03B0F0BD88
:10A230000D496A46204653F093FE01280146E4D1B9
:10A240009DF80000054B187003F05AFEDCE7074A42
:10A25000E3E700BF5824002078C70708262E012016
:10A26000385D0908CFBD00204024090835AA070839
:10A2700070B58CB000210646282202A801916CF02E
:10A2800081FAB389002B2FD0304655F080F905466E
:10A29000002835D01B4901AB02AA53F061FE022809
:10A2A00018D11949194B019AC97A02A803F06EF81E
:10A2B0000446284655F03AF9BCB9019B144A4FF4BC
:10A2C0007A7112481EF004FD3146104854F08EFB9E
:10A2D0000CB070BD28460F4902AA53F041FE012878
:10A2E00006D0284655F022F90F2423460A4AE6E70D
:10A2F0000549064BC97A01AA02A802F071FCD7E70A
:10A300001924F2E754AA070810270020CFBD002027
:10A31000385D0908C2A907085CAA070838B583890F
:10A320000546FBB155F033F9044678B1144B8F2242
:10A33000D97AE42313FB0123024612484FF47A71C1
:10A34000184403F063FD204655F0F0F84FF47A719D
:10A350000D4A0E481EF0BCFC2946BDE838400B48AB
:10A3600054F044BB064B8F22D97AE42313FB01231C
:10A3700004484FF47A71064A184403F047FDE5E7B4
:10A3800010270020642400206AAA0708CFBD0020FF
:10A39000D644080838B50446074D03F0ABFD4FF42A
:10A3A0007A712846054A1EF093FC21462846BDE8EE
:10A3B000384054F01BBB00BFCFBD002072AA070875
:10A3C00038B5044604F044FD064D02464FF47A7158
:10A3D00028461EF07DFC21462846BDE8384054F052
:10A3E00005BB00BFCFBD002038B5044604F07EFB9E
:10A3F000064D02464FF47A7128461EF069FC21464C
:10A400002846BDE8384054F0F1BA00BFCFBD002067
:10A4100038B5044604F086FB064D02464FF47A71C7
:10A4200028461EF055FC21462846BDE8384054F029
:10A43000DDBA00BFCFBD002038B504460D481EF080
:10A440001FFC0D4855F020FD0C4855F01DFD012264
:10A450000B4B0C4D1A704FF47A7128460A4A1EF0C5
:10A4600037FC0A481EF00CFC21462846BDE838405F
:10A4700054F0BCBA7AAA0708C8020808E002080823
:10A48000CEBD0020CFBD0020A7AA070898AA0708C4
:10A4900038B504460D481EF0F3FB0D4855F0F7FCA7
:10A4A0000C4855F0F4FC00220B4B0C4D1A704FF485
:10A4B0007A7128460A4A1EF00BFC0A481EF0E0FB9F
:10A4C00021462846BDE8384054F090BACFAA070884
:10A4D000C8020808E0020808CEBD0020CFBD002059
:10A4E000FDAA0708EEAA070808B582890AB9002064
:10A4F00008BD054980696CF069F90028F7D1FDF7BE
:10A50000BDFC0120F4E700BF25AB070837B50446C2
:10A510000A4B0B4D1B884FF47A710093094B0A4A82
:10A520001B8828461EF0D4FB2046FFF7DDFF21469E
:10A53000284603B0BDE8304054F058BA78AA00204D
:10A54000CFBD00207AAA00202BAB070838B50446FF
:10A5500003F0BCFF0C4A0D4DD2E90032C01A61EB8A
:10A56000020103F08DFF4FF47A710346084A284632
:10A570001EF0AEFB2046FFF7B7FF21462846BDE898
:10A58000384054F033BA00BF88140020CFBD0020FB
:10A590000FB8070870B5044603F098FF0F4E104A35
:10A5A000D6E90056D2E900325B1B62EB06021818AE
:10A5B00042EB010103F064FF0A4D03464FF47A7148
:10A5C0002846094A1EF084FB2046FFF78DFF2146EE
:10A5D0002846BDE8704054F009BA00BF8814002036
:10A5E00078140020CFBD00200FB8070838B50B4BFA
:10A5F0000446D3E9000103F043FF094D03464FF43D
:10A600007A712846074A1EF063FB2046FFF76CFF6D
:10A6100021462846BDE8384054F0E8B970140020BF
:10A62000CFBD00200FB807082DE9F743064603F019
:10A630004DFFDFF89890DFF89880D9E90032D8E92B
:10A6400000545B1B62EB0402181842EB010152F04C
:10A650000BFD00221A4B52F03DFD04460D4603F05F
:10A6600035FFD9E90032DFF86CE0164FDEE900CEA5
:10A6700013EB0C0342EB0E02D8E900CEB3EB0C0354
:10A6800062EB0E02181842EB010152F0EDFC0B4692
:10A6900002462946204652F047FE0B4ACDE900010A
:10A6A0004FF47A7138461EF013FB3046FFF71CFF5B
:10A6B0003146384603B0BDE8F04354F097B900BFC7
:10A6C00000005940CFBD002033AB070878140020AC
:10A6D00088140020701400202DE9F04FA7B08346A5
:10A6E00003F0F4FE414D424CD5E90032D4E9006755
:10A6F0009B1B62EB0702181842EB010103F0C0FE3E
:10A700000DF148093B4F0246282148461EF0E0FA69
:10A71000D7E9000103F0B4FE0DF1700A02462821CA
:10A7200050461EF0D5FA03F0D1FED5E90032266876
:10A73000DFF8D8809B1B666862EB0602181842EBB4
:10A74000010152F091FC00222B4B52F0C3FCCDE9E9
:10A75000100103F0BBFED5E90032D7E900575B19C1
:10A7600042EB0702D4E900545B1B62EB04021818A9
:10A7700042EB010152F078FC02460B46DDE9100184
:10A7800052F0D2FD52F088FF52F04CFCCDE90C9A09
:10A79000CDE90E01194B1B880B93194B1B880A93AB
:10A7A000184BD3E90A01CDE90801D3E90801CDE945
:10A7B0000601D3E90601CDE90401D3E90401CDE99D
:10A7C00002014FF47A71D3E902234046CDE9002318
:10A7D0000D4A1EF07DFA5846FFF786FE5946404660
:10A7E00054F004F927B0BDE8F08F00BF78140020C2
:10A7F00088140020701400200000594078AA00201E
:10A800007AAA00200814002039AB0708CFBD002029
:10A8100084B013B504AC84E80F00084C03460192E1
:10A82000009120464FF47A71054A1EF051FA2046F5
:10A8300002B0BDE8104004B0704700BFCFBD00209B
:10A84000F7AB070884B010B590B012AC84E80F00E5
:10A850009DF89030164C0F93219B02920E93209BF3
:10A8600001910D931F9B4FF47A710C931E9B204610
:10A870000B931D9B0F4A0A931C9B09931B9B0893E8
:10A880001A9B0793199B0693189B0593169B049399
:10A89000159B0393BDF84A300093BDF848301EF075
:10A8A00017FA204610B0BDE8104004B0704700BF52
:10A8B000CFBD002041AC070884B010B586B008AC0D
:10A8C00084E80F000493BDF926300B4C0293BDF8C9
:10A8D000243003920193BDF822304FF47A71009333
:10A8E0002046BDF92030054A1EF0F2F9204606B098
:10A8F000BDE8104004B07047CFBD0020FFAD070891
:10A9000084B013B504AC84E80F00074C0B460090EC
:10A910004FF47A712046054A1EF0DAF9204602B05B
:10A92000BDE8104004B07047CFBD0020A2AE0708BC
:10A9300084B010B59CB01EAC84E80F00BDF8DE30CA
:10A94000214C1A93BDF8DC301993BDF8DA30189316
:10A95000BDF8D8301793359B1693349B1593339BD2
:10A960001493329B1393319B1293309B11932F9B23
:10A9700010932E9B0F932D9B0E932C9B0D932B9B33
:10A9800001920C932A9B00910B93299B4FF47A71AF
:10A990000A93289B0D4A0993279B0893269B0793AC
:10A9A000259B0693249B0593239B0493229B03934F
:10A9B000219B0293034620461EF08AF920461CB0D4
:10A9C000BDE8104004B07047CFBD0020E8AE0708D6
:10A9D00010B58A8904460B460AB9002010BD054906
:10A9E00098696BF0F3FE0028F7D120465EF02BF952
:10A9F0000120F3E725AB070830B59BB00E4C0546A8
:10AA0000214600205EF098F80C4B04F1100118600C
:10AA1000642268466BF05DFF94E80F00FFF7F8FED4
:10AA200029460020FFF7D4FF294605481BB0BDE8A2
:10AA3000304053F0DBBF00BFE42300205824002047
:10AA4000CFBD002030B59BB00E4C054621460120FD
:10AA50005EF072F80C4B04F1100118606422684635
:10AA60006BF037FF94E80F00FFF7ECFE294601205A
:10AA7000FFF7AEFF294605481BB0BDE8304053F054
:10AA8000B5BF00BFE423002058240020CFBD002024
:10AA900030B59BB00E4C0546214602205EF04CF8C6
:10AAA0000C4B04F110011860642268466BF011FF32
:10AAB00094E80F00FFF700FF29460220FFF788FF08
:10AAC000294605481BB0BDE8304053F08FBF00BF9A
:10AAD000E423002058240020CFBD002030B59BB0D7
:10AAE0000E4C0546214603205EF026F80C4B04F17F
:10AAF00010011860642268466BF0EBFE94E80F00CA
:10AB0000FFF7FEFE29460320FFF762FF29460548AE
:10AB10001BB0BDE8304053F069BF00BFE423002004
:10AB200058240020CFBD002030B59BB00E4C054608
:10AB3000214604205EF000F80C4B04F1100118606F
:10AB4000642268466BF0C5FE94E80F00FFF7F0FE44
:10AB500029460420FFF73CFF294605481BB0BDE805
:10AB6000304053F043BF00BFE423002058240020AE
:10AB7000CFBD002070B50D4E0446314605205DF076
:10AB8000DBFF0B4D0B4B4FF47A7118600A4A3368A8
:10AB900028461EF09DF821460520FFF719FF2146A3
:10ABA0002846BDE8704053F021BF00BFE4230020D9
:10ABB000CFBD00205824002022B207082DE9F04321
:10ABC00089B001271422002103A86BF0DBFDA04B04
:10ABD000A04DA14C0093A14B6846019502940493AB
:10ABE0008DF80C7006F0E6FB30B140F28C519C4BB6
:10ABF0009C4A9D4804F076FF9C4BDFF80493009339
:10AC00009B4B6846CDE9019404938DF80C7006F0D7
:10AC1000D1FB20B140F29451914B924AE9E7954B18
:10AC20006846CDE90039944B029404938DF80C707A
:10AC300006F0C0FB20B140F29C51894B894AD8E70D
:10AC40008E4B684600938E4B8DF80C70CDE9013425
:10AC50008C4B049306F0AEFB20B140F2A451804B24
:10AC6000804AC6E7884B894E0093894B6846CDE9F8
:10AC7000016404938DF80C7006F09CFB20B140F247
:10AC8000AC51774B774AB4E7824B6846CDE9003642
:10AC9000814B029404938DF80C7006F08BFB20B16D
:10ACA00040F2B4516E4B6F4AA3E77C4B6846CDE946
:10ACB00000367B4B029404938DF80C7006F07AFBFF
:10ACC00020B140F2BC51664B664A92E7754B68462C
:10ACD000CDE90035744B029404938DF80C7006F0A6
:10ACE00069FB20B140F2C4515D4B5E4A81E76F4B76
:10ACF0006846CDE900366E4B029404938DF80C70D3
:10AD000006F058FB20B140F2CC51554B554A70E744
:10AD1000684BDFF8F0810093674B6846CDE901840A
:10AD200004938DF80C7006F045FB20B140F2D4512D
:10AD30004B4B4C4A5DE70127604B6846CDE9003933
:10AD40005F4B029404938DF80C7006F033FB20B136
:10AD500040F2DC51424B434A4BE75A4B6846CDE93F
:10AD60000035594B029404938DF80C7006F022FBC9
:10AD700020B140F2E4513A4B3A4A3AE7534B684625
:10AD8000CDE90035524B029404938DF80C7006F017
:10AD900011FB20B140F2EC51314B324A29E74D4BC7
:10ADA0006846CDE900354C4B029404938DF80C7045
:10ADB00006F000FB20B140F2F451294B294A18E774
:10ADC000464B6846CDE90038454B029404938DF814
:10ADD0000C7006F0EFFA20B140F2FD51204B214AF1
:10ADE00007E7404B684600933F4B8DF80C70CDE968
:10ADF00001343E4B049306F0DDFA20B140F20561C8
:10AE0000174B184AF5E63A4B6846CDE90038394BFE
:10AE1000029404938DF80C7006F0CCFA20B140F245
:10AE20000D610F4B0F4AE4E6334BDFF8DC900093E3
:10AE3000324B6846CDE9019404938DF80C7006F00E
:10AE4000B9FA002862D040F21561054B054AD0E6F8
:10AE500045B207084FB2070854B20708B99C00086A
:10AE600059B207086BC4070899B20708A7B20708C8
:10AE70003D9E0008B8B20708699E0008C3B20708E3
:10AE8000CFB20708959E0008D3B2070812920908AE
:10AE9000C19E0008E5B20708ED9E0008F7B207085A
:10AEA000A59F000805B30708519D000811B30708C6
:10AEB000C99D00081EB30708D19F000833B30708D7
:10AEC00001A0000842B3070831A0000856B30708E4
:10AED0005DA0000866B3070895A0000877B30708CF
:10AEE0004DA5000889B30708A9B30708F1A0000819
:10AEF000AFB30708EDA50008D2B307080DA50008F9
:10AF0000B4B207082EB30708EEB30708984B68469B
:10AF1000CDE90038974B029404938DF80C7006F03D
:10AF200049FA20B140F21D61934B944A61E6944B7B
:10AF300068460093934B8DF80C70CDE90134924B29
:10AF4000049306F037FA20B140F225618A4B8B4A10
:10AF50004FE601278D4B6846CDE900368C4B0294B5
:10AF600004938DF80C7006F025FA20B140F22E61A2
:10AF7000814B824A3DE6874B6846CDE90035864BDA
:10AF8000029404938DF80C7006F014FA20B140F28C
:10AF90003961794B794A2CE6804B6846CDE900351A
:10AFA0007F4B8DF80C7002937E4B049306F002FAEF
:10AFB00020B140F24261704B704A1AE67A4B684603
:10AFC000CDE90035794B8DF80C700293784B0493E2
:10AFD00006F0F0F920B140F24A61674B674A08E693
:10AFE000744B6846CDE90035734B8DF80C700293B5
:10AFF000724B049306F0DEF920B140F252615E4BD1
:10B000005E4AF6E56E4B6846CDE900356D4B8DF82E
:10B010000C7002936C4B049306F0CCF920B140F213
:10B020005A61554B554AE4E5684B6846CDE9003511
:10B03000674B8DF80C700293664B049306F0BAF9D7
:10B0400020B140F262614C4B4C4AD2E5624B6846FB
:10B05000CDE90035614B8DF80C700293604B049381
:10B0600006F0A8F920B140F26A61434B434AC0E5BB
:10B070005C4B5D4C00935D4B684601935C4B0294C6
:10B0800004938DF80C7006F095F920B140F27361CD
:10B09000394B3A4AADE5574B68460093564B8DF80D
:10B0A0000C70CDE90134554B049306F083F920B1BF
:10B0B00040F27B61304B314A9BE502940124504BB6
:10B0C0006846CDE900394F4B8DF80C40049306F0EB
:10B0D00071F920B140F28361274B284A89E54A4B38
:10B0E0006846CDE90036494B8DF80C400293484B39
:10B0F000049306F05FF920B140F28C611E4B1F4AA9
:10B1000077E5444B444DCDE90036444B6846029503
:10B1100004938DF80C4006F04DF920B140F2946193
:10B12000154B164A65E53E4B6846CDE900363D4B6A
:10B13000029504938DF80C4006F03CF920B140F2E2
:10B140009C610D4B0D4A54E5374B384DCDE9003627
:10B15000374B6846029504938DF80C4006F02AF9A7
:10B16000002867D040F2A661034B044A41E500BFC6
:10B17000F2B3070895A5000859B207086BC4070881
:10B1800012B407082FB4070829A6000835B4070829
:10B1900049A100083EB40708D9A6000852B4070820
:10B1A00084CB0808F9A9000868B407087AB407082E
:10B1B00045AA00087EB4070890B4070891AA0008C1
:10B1C00095B40708A7B40708DDAA0008ADB40708BE
:10B1D0009168090829AB0008C7B407085705090892
:10B1E00075AB0008E4B40708F8B40708AFD0070847
:10B1F00075A1000801B50708C0ED0808CDA1000839
:10B2000017B5070871A200082BB507083BB507085A
:10B21000F99D000844B5070854B507081DA30008A8
:10B2200059B5070895A3000868B507087EB5070853
:10B23000C1A300086E4B6846CDE900366D4B029500
:10B2400004938DF80C4006F0B5F820B140F2AE61E1
:10B25000694B6A4ACDE46A4B6846CDE90036694BD2
:10B26000029504938DF80C4006F0A4F820B140F24A
:10B27000B661614B614ABCE4634B644E644D00931C
:10B28000644B68460196029504938DF80C4006F0D5
:10B2900091F820B14FF4D861574B584AA9E45E4B5E
:10B2A0006846CDE900365D4B029504938DF80C405D
:10B2B00006F080F820B140F2C9614F4B4F4A98E444
:10B2C000574B6846CDE90036564B029504938DF8EE
:10B2D0000C4006F06FF820B140F2D161464B474A6E
:10B2E00087E40124504B6846CDE900364F4B029568
:10B2F00004938DF80C4006F05DF820B140F2D9615E
:10B300003D4B3E4A75E44A4B6846CDE90036494B11
:10B31000029504938DF80C4006F04CF820B140F2F1
:10B32000E161354B354A64E4434B444FDFF83881E3
:10B330000093434B68460197CDF8088004938DF83D
:10B340000C4006F037F820B140F2E9612A4B2B4A55
:10B350004FE43C4B6846CDE900373B4BCDF80880C5
:10B3600004938DF80C4006F025F820B140F2F1610D
:10B37000214B224A3DE4354B6846CDE90036344B3B
:10B38000029504938DF80C4006F014F820B140F2B9
:10B39000F961194B194A2CE42E4B6846CDE9003768
:10B3A0002D4B029504938DF80C4006F003F820B164
:10B3B00040F20171104B114A1BE4284B6846CDE95D
:10B3C0000037274B029504938DF80C4005F0F2FFEF
:10B3D00020B140F20971084B084A0AE432222F21B9
:10B3E00020481DF04DFC2F2009B0BDE8F08300BFC0
:10B3F0008CB50708E9A3000859B207086BC4070811
:10B400009EB5070811A40008B2B507084FB2070897
:10B41000BBB5070831B90008C2B507083DB7000839
:10B42000CAB507087DB50008D3B50708A9B8000854
:10B43000DCB50708F9B50008E8B507081292090855
:10B4400039A40008F7B5070891A40008FFB507085C
:10B4500049BA00080DB60708FDBD000824B6070864
:10B4600045BF000839B60708EFB507082DE9F04FCA
:10B47000A9B04FF000083B481DF002FC78223A4981
:10B480000AA86BF026FA1822002104A86BF07AF9BA
:10B4900047464FF0000BDFF8DC90DFF8DCA00AAD88
:10B4A00004AE2C7C2888611C03F0B2FF00284DD02C
:10B4B000002C45D0002003F065FF0446012003F076
:10B4C00061FF44EA004307EE903A95ED037AF8EE07
:10B4D000677A67EE877AC6ED007A17EE900A51F028
:10B4E000A1FD0B46A96802460091013750466968E4
:10B4F000FFB21DF0C5FB00234CF24F320393039BB8
:10B5000093422ADD08F10108B8F1060F05F1140590
:10B5100006F10406C5D14246394614481DF0B0FB79
:10B52000134B049A1A60059A5A60089A9A60069A10
:10B53000DA60079A1A61099A5A6129B0BDE8F08F5A
:10B54000204603F01FFF07EE900ABEE748466968F1
:10B55000C6F800B01DF094FBCDE7039B01330393C5
:10B56000CDE700BF70B6070884C40708B3B6070864
:10B57000CC230020A0B607088EB607082DE9F341BA
:10B58000DFF87080054616481DF07AFBFFF76EFF66
:10B59000D8F8040051F046FD124FCDE90001124ADF
:10B5A0004FF47A7138461DF093FB02F08FFF0F4A7B
:10B5B000D2E90046041BD8F8040061EB060651F0FE
:10B5C00031FD2246CDE90001334609481DF058FB04
:10B5D0002946384602B0BDE8F04153F007BA00BF33
:10B5E000E1B60708CFBD002001B70708C814002046
:10B5F00018B70708CC23002070B58CB01F4C064646
:10B600001F481DF03DFBFFF731FF606951F00AFD57
:10B61000CDE90A01206951F005FDCDE90801E06896
:10B6200051F000FDCDE90601A06851F0FBFCCDE929
:10B630000401606851F0F6FCCDE90201206851F088
:10B64000F1FC104DCDE900010F4A4FF47A71284604
:10B650001DF03EFB02F03AFF0C4CD4E90023821AA5
:10B6600061EB030300950A481DF00AFB31462846AA
:10B670000CB0BDE8704053F0B9B900BFCC23002036
:10B680004EB70708CFBD002071B70708C8140020C7
:10B69000EBB7070813B5204C237A7BB31F48402132
:10B6A0006A46006801AB54F0F6F9014640BBDDED97
:10B6B000017A9FED1B7AF8EEE77AC7EE876ADDED37
:10B6C000007AF8EE677AC4ED006AC7EE876AC4EDC7
:10B6D000016A02F0FBFE134BC3E90001206851F040
:10B6E000A1FC02460B4610481DF0CAFA606851F0F2
:10B6F00099FC02460B460D481DF0C2FA02B010BD7F
:10B700000B481DF0BDFA0B481DF0BAFA0023237256
:10B71000094B23606360F1E7C0230020102601205D
:10B7200000007A44C014002012B8070829B807089E
:10B7300041B8070877B8070800C079C4F0B52DED07
:10B74000028B85B0264C054626481DF099FAFFF776
:10B75000A1FF237A43B194ED008ADFED237AB4EEA2
:10B76000678AF1EE10FA11D14FF47A711F4A20481E
:10B770001DF0AEFA1F481DF083FA29461C4805B09B
:10B78000BDEC028BBDE8F04053F030B9606851F079
:10B7900049FCCDE9020118EE100A51F043FC164AAB
:10B7A000CDE900014FF47A7111481DF091FA02F0D1
:10B7B0008DFE124AD2E90076C71B606861EB06066F
:10B7C00051F030FCCDE90201206851F02BFC3A46E3
:10B7D000CDE9000133460A481DF052FACDE700BF1B
:10B7E000C0230020B3B8070800C079C4D2B8070846
:10B7F000CFBD00203BB9070875B90708C014002069
:10B80000A4B9070873B5204C237A8BB11F4E694643
:10B81000306854F025FA054660B101461C481DF019
:10B820002FFA1C481DF02CFA0023C4E900332372C0
:10B8300002B070BD01A9306854F02DFA014648B13C
:10B8400015481DF01DFA13481DF01AFAC4E90055F9
:10B850002572EDE7DDED007AFCEEE77AC4ED007AC3
:10B86000DDED017AFCEEE77AC4ED017A02F02EFEFE
:10B870000A4BC3E90001216809481DF001FA61681B
:10B8800008481DF0FDF9D3E7B4230020102601205D
:10B89000E1B9070877B807081BBA0708B8140020F1
:10B8A00057BA070865BA070873B5194C0546194811
:10B8B0001DF0E6F9FFF7A6FF237A7BB94FF47A7102
:10B8C000154A16481DF004FA15481DF0D9F9294605
:10B8D000124802B0BDE8704053F088B86368114A5E
:10B8E000009323684FF47A710C481DF0F1F902F0CF
:10B8F000EDFD0D4ED6E90023821A606861EB03036B
:10B9000001902068009009481DF0BAF9DFE700BFF8
:10B91000B423002075BA070895BA0708CFBD0020E8
:10B92000F5BA070831BB0708B814002053BB070855
:10B930002DE9F0432DED028B8FB0364C074636488B
:10B940001DF09EF9FFF792FDFFF7A4FEFFF75AFFE7
:10B9500094ED018AB5EEC08A304B314A1878314BEC
:10B96000314D00280CBF11461946F1EE10FAD8BF30
:10B970001346CDE90B132D4B2D4E1B680A936868B7
:10B9800051F050FBCDE90801286851F04BFBCDE99F
:10B990000601E06851F046FBCDE90401206951F051
:10B9A00041FBCDE9020118EE100A51F03BFB214AA0
:10B9B000CDE900014FF47A7130461DF089F902F0AB
:10B9C00085FD1D4AD2E90042041B61EB020802F02A
:10B9D0007DFD1A4AD2E90052451B61EB020902F0D3
:10B9E00075FD174A0496D2E90032C31A61EB0201D1
:10B9F000CDE9023122464346CDE9005911481DF0F8
:10BA00003FF9394630460FB0BDEC028BBDE8F0433C
:10BA100052F0ECBFCC23002097BB0708CEBD00201E
:10BA200093BB0708EA270808C0230020B42300209E
:10BA3000CFBD0020B7BB0708C8140020C0140020E9
:10BA4000B81400204BBC07082DE9F04F2DED028BF8
:10BA5000CFB015909C481DF013F9FFF707FDFFF7D5
:10BA600019FEFFF7CFFE1EA85DF0BFF9002840F0D9
:10BA70001D81BDF87880954B002124222EA82D939E
:10BA80006AF080FE01201AA95CF0DEFF18B92DA92A
:10BA90001AA807F06BFD02F019FD8D4D8D4F2C6833
:10BAA000D7E900321B196C6842EB04028A4C266805
:10BAB0009B1B666862EB06021B1842EB01021343F4
:10BAC00000F0F78002F002FDD7E9003226689B1BE8
:10BAD000666862EB0602181842EB010151F0F4FEB1
