:020000040800F2
:10600000081400206529010861EF05089FDC0508D8
:1060100061EF050861EF050861EF050861EF05080C
:1060200061EF050861EF050861EF050861EF0508FC
:1060300061EF0508400E0808458F010861EF05086B
:1060400061EF050861EF050861EF050861EF0508DC
:1060500061EF050861EF050861EF050861EF0508CC
:1060600061EF050861EF050861EF05083DEF0008E5
:1060700061DD050861EF050861EF050831EF0008F3
:106080005DDD050861EF050861EF050861EF0508B2
:1060900061EF050861EF05081139010861EF050896
:1060A00061EF050861EF0508253401080534010892
:1060B00061EF050861EF050841EC020839F70208B5
:1060C000BF740608BB740608B1EE0208D574060852
:1060D000C374060809F70208C774060879F70208AE
:1060E00065F8020861EF050861EF050861EF050832
:1060F00061EF050861EF050861EF050861EF05082C
:1061000061EF050861EF050861EF050861EF05081B
:1061100061EF050861EF050861EF050861EF05080B
:1061200061EF050861EF050861EF050861EF0508FB
:1061300061EF050861EF050861EF050861EF0508EB
:1061400061EF050861EF050861EF0508B1960108E8
:1061500061EF050861EF0508D98607088DCF0208B1
:1061600061EF050861EF0508AF740608B57406080D
:0C61700061EF050861EF050861EF05080C
:10617C00F0B5114A114C124E00F00105E3695F07AE
:10618C0013D40DB9334213D103EA00078F4207D160
:10619C000B4A1A40002A0CBF00206FF00100F0BD22
:1061AC00013AEBD16FF00200F9E74FF0FF30F6E760
:1061BC006FF00100F3E700BF8096980000000350D9
:1061CC000200010070B50B4BD96911F480310DD16F
:1061DC0001244FF48072084E084DF46020462C6464
:1061EC001A61FFF7C5FF3464EC6070BD6FF00100FD
:1061FC00FBE700BF000003500010035000200350C9
:10620C0070B5C0F30C03054623B140F21A211148B6
:10621C0000F0A2F84FF480320F4B104C9A66E669EE
:10622C0041F6713316400122E3630D4B0021DA6015
:10623C000223656121202361FFF79AFF10B9212009
:10624C00FFF796FF0122074BDA600EB10023E363E0
:10625C0070BD00BF59120808009000500000035098
:10626C00001003500020035070B5134C6061E369BB
:10627C005B071ED40E4656F8043B8D18A361AE4244
:10628C000BD10423002121202361FFF771FF58B9A2
:10629C00BDE870402120FFF76BBF08210846FFF7CF
:1062AC0067FF10B10423236170BD56F8043BA36152
:1062BC00E5E74FF0FF30F7E7000003502DE9F84316
:1062CC00154682070F46064604D040F266211E484A
:1062DC0000F042F8AB0704D04FF41A711A4800F0E2
:1062EC003BF84FF48032194BDFF868909A6603F54F
:1062FC001C33DA6902F4803841F67132DA63012218
:10630C0003F58053DA6065B928460122104BDA6038
:10631C00B8F1000F03D00022A3F50053DA63BDE8F7
:10632C00F88306F5005404EA0904A41BAC4228BF08
:10633C002C46394622463046FFF796FF0028E4D11A
:10634C00264427442D1BDEE7591208080090005004
:10635C000020035000E0FFFF5FF800F0ADEB0008F9
:10637000013800D0FCE770472DE9F04100231546B5
:10638000C2E900014FF47A7280460F4656F042FC93
:1063900018A3D3E9002304460E464046394656F07A
:1063A00039FC134B80B228815843241A66F1000649
:1063B0004FF4616200232046314656F02BFC4FF427
:1063C0006163C0B2A8725843241A20464FF03C02C1
:1063D0004FF0000366F1000156F01CFCC0B2E872F9
:1063E000C0EB0010A4EB80042C73BDE8F08100BF6B
:1063F00080510100005C2605000000000000000044
:106400002DE9F843161E81460D461F460ADBF31799
:1064100031186B414FF0000228BF01224AB1212000
:10642000BDE8F88330466FF0DCFAC3174845AB414E
:10643000F5D23D4B4B454FF04903AB41EFD316EB43
:10644000090945EBE67529463C220023484656F0EB
:10645000E1FB00233A703C2256F0DCFB00237A700B
:10646000182256F0D7FB04460130BA7088464FF028
:10647000070241F10001002356F0CCFB29463A7295
:10648000484627A3D3E9002356F0C4FB85B2042D68
:106490003DD905F26C75A9B240F26C705BF0D5FA8B
:1064A000201A4FF0000368F1000140F26D1256F01F
:1064B000B1FB85B205F26C7189B240F26C705BF091
:1064C000C4FA01462846FD805BF0CFFA40F26D1316
:1064D000641A4FF00C014FF0000203FB05F568F160
:1064E0000008641B04F101037B81104B68F1000874
:1064F00001FB0030D3B2C35C511C9C4278F1000513
:1065000007D2013400203A71FC70FE6088E7002158
:10651000D8E7E31A1C460A4668F10008EAE700BF1C
:106520008033E101000000007FBD68793C2308084A
:106530002DE9F04F93B0CDE90A32DDE91C530E93FB
:1065400053EC102BCDE90801104619468DED060BD2
:106550001E9E56F037F980B1DDE906014FF0FF329B
:10656000C54B56F057F940B9DDE906014FF0FF324F
:106570006FF4801356F030F970B1DDE908019DED3C
:10658000060B0E9B1E96CDE91C53DDE90A3213B0B3
:10659000BDE8F04F00F088B90022DDE906010023D4
:1065A00056F01AF9002800F03381DDE906A303F163
:1065B000004BCBF30A5016F48063A0F2FF3008BF03
:1065C00006250F9355F02CFE9BA3D3E9002355F02D
:1065D00091FE9BA3D3E9002355F0D6FCCBF3130423
:1065E000894644F07F5180460022A44B504641F436
:1065F000401155F0C7FC94A3D3E9002355F07AFE6F
:1066000002460B464046494655F0BEFC56F00CF992
:10661000044655F005FE8EA3D3E900238046894643
:1066200055F068FE0022964B55F0AEFC56F0FCF893
:1066300089A3D3E9002307464946404655F05AFE50
:1066400080463846894655F0EBFD85A3D3E9002303
:1066500055F050FE02460B464046494655F092FC26
:1066600002460B46CDE90C2355F044FEDDE90C2330
:10667000804689461046194655F086FC0022CDE931
:106680001001804B4046494655F05EFF00227E4B8C
:1066900055F07AFC02460B464046494655F054FFF9
:1066A00000227A4B55F070FC02460B4640464946A4
:1066B00055F04AFFDDE90C238046894600204FF063
:1066C000804155F05FFC02460B464046494655F076
:1066D0005BFC02460B46DDE9100155F035FF07F281
:1066E000FF3700226A4B55F04FFC00223B0555F066
:1066F00001FE52465B468046894656F08BF80028DC
:1067000040F08980CDE90C8904F16303C72B34BFC5
:106710000427052731051BD553A3D3E90023504691
:10672000594656F06DF800287FD051A3D3E90023D5
:106730005046594656F050F8002876D00027A5421A
:10674000C6BF2C1B04F1FF3500253C4646F480668D
:106750000E9B9F422CBF4FF00008A3EB070816F0DA
:10676000020903D0002F18BF4FF000083CB1DDE94B
:106770000C235046594655F0E7FE82468B46DDE92C
:1067800006010022002356F027F810B10BF1004358
:106790009B46DDE9080126F40063CDE90183DDE9CC
:1067A0000A324BEC10AB009500F07EF802465FB366
:1067B000DDE9091316F0200F00F10105089E0CBF5A
:1067C00065204520B047DDE9080105230022059337
:1067D0000A23002CCDE9023207F1FF374FEAD473C8
:1067E000B8BF64422A46019304970A9B009460F064
:1067F000D5F80246B9F1000F06D00B9BC41A0B9BCB
:106800001A190E9BA34245D8104613B0BDE8F08F6D
:10681000DDE906ABCDE60022404649461A4B55F06D
:1068200093FE013CCDE90C016EE7002D90D00F9B4B
:10683000002B8DD0013D8BE7FB799F501344D33F54
:10684000B3C8608B288AC63F61436F63A787D23F76
:1068500071A379094F930A401655B5BBB16B02403D
:10686000EF39FAFE422EE63F2D431CEBE2361A3F8B
:106870000000000080842E41FFFFEF7F0000F83F02
:106880000000E03F00002C400000244000001840C1
:106890000000F03F2020DDE90913089DA8470134DE
:1068A000ADE700BF000000002DE9F04F97B05BECB2
:1068B00010ABDDE92057CDE90501CDE907235046AE
:1068C00052465B465946229E55F07CFF70B9032321
:1068D000CDE902760193B04B0093DDE90501DDE9D6
:1068E00007235FF07BFF17B0BDE8F08F4FF0FF325A
:1068F0006FF480135046594655F06EFF28B10423BB
:10690000CDE902760193A54BE6E74FF0FF32504602
:106910005946A34B55F07EFF68B1A24A06F0040326
:10692000002B08BF0322A04B1CBF13460422CDE955
:1069300002760192D0E7504693A3D3E9002359464B
:1069400055F068FF38B992A3D3E900235046594661
:1069500055F042FF68B1DDE90723DDE905014BECA5
:1069600010ABCDE92176209517B0BDE8F04FFFF7C9
:10697000DFBD002200235046594655F02DFF002868
:1069800000F09A805B4652460020002155F0FAFA4A
:10699000012382468B46099316F4806400F08E80B2
:1069A000092D40F28E80002430210EABA5F10902A2
:1069B0000134202C03F8011BA5EB040901D09442FB
:1069C000F6D15946504655F02FFF784B054603EB5C
:1069D000C90393ED007B8DED0A7B55F021FC024647
:1069E0000B465046594655F0CDFADDE90A2355F0DD
:1069F00081FC02460B46CDE90C2355F03DFF804655
:106A000055F0FEFB02460B46DDE90C0155F0BAFAE3
:106A100002460B46CDE90C230022654B55F0FAFEE9
:106A2000002851D008F10108404655F0E9FB024624
:106A30000B46DDE90A0155F0D9FE10B14FF0000810
:106A40000135B9F1000F50D1284655F0E9FB024657
:106A50000B465046594655F095FA0022544B804655
:106A6000894655F0B9FE30B1002240464946504BA8
:106A700055F0D0FE10B1E80700D501350A210EAB64
:106A80001A19202C0AD095FBF1F001FB1055303576
:106A900002F8015B013405460028F2D106F003023A
:106AA000012A57D1002F55D0099A12B916F00C0FB0
:106AB00000D0013F302245E009906DE74FF0060914
:106AC0007FE7A94600247CE70022DDE90C01384B72
:106AD00055F082FE0028B4D1B8F1000F02D018F0B2
:106AE000010FAED008F10108ABE70A210EAB234439
:106AF000202C0ED0B8FBF1F001FB1082B8F1090F89
:106B000002F1300209F1FF3904F1010403F8012B0D
:106B100011D83021A1440EAA202CAFD0A14504F1F8
:106B200001030AD11C4609F158030DEB03092E237A
:106B300009F8203CA2E78046DAE7A1541C46EBE7BF
:106B40001A550134A74205D9202CF9D1CDE9027696
:106B50000194C1E6202CF9D0099A3AB12D2104F113
:106B600058026A4402F8201C0134EFE7710704D58B
:106B700004F158022B216A44F4E73207E6D504F108
:106B8000580220216A44EDE70000000065CDCD41A8
:106B90000000000065CDCDC1EF330808F3330808CD
:106BA000FFFFEF7FE6330808EB330808F8330808E7
:106BB0000000E03F00000000F0B5934C9FB0228839
:106BC000A3780021ADF80C2013A82C228DF80E30EC
:106BD0006EF03FFF4FF00233159340F20B130AADF6
:106BE0000434ADF874300FCC0FC50FCC0FC523683B
:106BF000864A2B60864B874D06930023CDE90733E9
:106C000009934FF0FF33284683492B6028F036FF65
:106C10000446002853D12868431C06D140F2A44101
:106C20007E4B7F4A7F4807F0A9FF03A928F064FF45
:106C30000446002843D1286860F01BF87A4E7B4F49
:106C40003070286860F017F83870286860F015F820
:106C5000774B78491870286829F04CFA04460028C8
:106C60002DD13378744E4BB974482DF0E5FC30606B
:106C7000D0B940F2DC41724B694AD3E771482DF03C
:106C8000DBFC30600028EFD0C189286829F096F934
:106C90003368214658682DF009FD044678B96748E5
:106CA0002DF0CAFC306090B1C189286829F086F9BE
:106CB0003368042158682DF0F9FC044638B12346A6
:106CC00022210220604A60F06CFF1FB0F0BD11F07D
:106CD00069F85E4BCDE9040104AAA3F1080112F89A
:106CE000010B03F8010D9942F9D13B78002B46D1F5
:106CF0005749286860F0E9FC04460028DFD155496F
:106D0000286860F0CCFC04460028D8D15249286895
:106D100028F0F4FF04460028D1D139A3D3E9002399
:106D2000CDE90023286860F0D2FC04460028C6D1D3
:106D30004A4A4B49286860F02AFD04460028BED123
:106D4000484A4949286860F026FD04460028B6D123
:106D50000121286828F0EEFE04460028AFD1A023C8
:106D6000424A06A8D380424A136011F0EFF8414B23
:106D7000186088B940F225513F4B294A52E71C223E
:106D8000002116A86EF065FE286813A929F0AEFB55
:106D900004460028ACD092E722460121082011F0D9
:106DA0002FFA364B186020B94FF4A561344B1C4ABA
:106DB00038E722460121082011F022FA314B1860F1
:106DC00020B940F22B51304B154A2BE72F4A30495E
:106DD00030482FF061FA2F484AF01CF900212E4864
:106DE0000AAA11F067F92D4B186000287FF46DAFE7
:106DF00040F237512A4B0A4A14E700BFAFF3008034
:106E0000C88D01C10340000088B2080899430308F7
:106E1000A3A70808149E0020D4240120B8A70808BE
:106E200089B1080872A50808FE120120FD12012090
:106E3000FC12012007001100D08D0020539106089C
:106E4000DFA708083D9106086AA808080713012073
:106E500086B2080884B20808189E00205E26012029
:106E600008190020602601200C8E00201425012026
:106E7000809E0020949E0020F7A70808909E002086
:106E800013A808088C9E002030A8080850A80808FD
:106E900055480308349E0020BD590308989E0020E1
:106EA00059A80808000000002DE9F34705465A4C90
:106EB00022211020594A60F074FE142229462046EF
:106EC0006EF06EFEA27B564BDFF8A0A11A70637CB9
:106ED00000228AF800300023CDE90023DFF89081FA
:106EE00000224FF40073D8F8000060F0F0FB064673
:106EF00020B10126304602B0BDE8F087494B4A4F29
:106F00001B787BB949482DF097FB04463C60FCB9DF
:106F1000474A2221022060F044FE0122454B2126EF
:106F20001A70E7E7444B454C1A88454BD8F80000E7
:106F300053F82210434A8B6821603B6028F0C8FE5A
:106F40002268414B946824221B8802FB0344DDE73E
:106F50003E4B1C60394BD3F80090B9F1000F07D0BD
:106F600000232420D9F80C108B4208D100251AE008
:106F700040F2ED71364B374A374807F0FFFDD9F83C
:106F8000085000FB0355EA695278120912F00E0FFF
:106F90002BD0052A29D8314B0021EA89B3F900000A
:106FA0003D602DF0BBFB1AA3D3E90023CDE90023FC
:106FB000D8F8000060F08BFBD9F80820AA4207D06F
:106FC000274B3A600421D289B3F900002DF0A6FBCB
:106FD000244BE2893C601A80234B1B783BB92EF08E
:106FE000A5FB01202EF030F884E70133BCE79AF8C6
:106FF00000301B0913F00E0FF1D101220721D8F840
:10700000000060F092FC0028E9D072E7AFF3008046
:10701000C88D01C103420000D48D00203FAC080898
:10702000F3120120F7120120D08D002095470308AC
:107030005BAC0808F512012010A80020C48D0020C8
:10704000F41E0120A54303080EA80020CC8D0020CB
:1070500097AC080847B0080872A508086226012006
:107060006426012058260120FD120120F212012081
:10707000149E0020000000002DE9F84390F8E8611C
:10708000054644683EB902202721414A60F089FD47
:107090003046BDE8F88394F90130002B1ADA731EEC
:1070A0005BB2637000EB431393F825302370A06844
:1070B00055F0C8F832A3D3E900238046894694F9F5
:1070C000017055F0A7FBF8B1002F1DDD013F002333
:1070D000677024E09E42227805DD00EB431393F8AD
:1070E00025309342E3D0002305F125016370580158
:1070F000085C904208BF637001339E42F7D8731E4C
:10710000637000232371D2E740461FA3D3E9002315
:10711000494655F07FFBF0B12379E3B1013B237180
:1071200094F9013005F5F57005EB431393F825301C
:10713000237085F8EA31052395F8022285F8EC31B1
:1071400085F8F02100230E2285F8EB3185F8F22135
:1071500085F8F1319DE740460BA3D3E9002349466A
:1071600055F03AFB0028DBD023790133DBB2092B41
:107170002371D5D9013EBE42D2DD0137A7E700BF5A
:10718000666666666666E63F9A9999999999B93FE7
:1071900096750908000000002DE9F8432DED028BDB
:1071A00087680546384616460C4655F04BF828A326
:1071B000D3E900238046894655F02CFB88BB26A3E3
:1071C000D3E900234046494655F006FB60BBF7EE85
:1071D000007A07EE107A87EE878A6B7F607F012244
:1071E000834224D000214AF0ABFB01220446314601
:1071F000687F4AF0A5FB044404F2D5702860D8B13A
:1072000007EE900AF8EE677A9FED0D7A67EE887ABE
:1072100087EE270ABDEC028B10EE103AEB60BDE85A
:10722000F8839FED088AD8E79FED078AD5E73146B6
:1072300018464AF085FBE1E79FED040AEAE700BF44
:1072400000007A44E4388E3F00401C4600000000F5
:10725000CDCCCCCCCCCCEC3F9A9999999999B93FAB
:107260002DE9F74F064690F8E8010D469146A0B388
:107270007468A3690133A361A37D06EB43131A7FEE
:1072800002441A77D4E90732C3EB520207EE902A80
:107290004000B8EE677A07EE900AF8EEE76AF4EE7F
:1072A000C76AF1EE10FA0BD507EE903A37EE667A20
:1072B000F8EE677A77EE877AFCEEE77AC4ED077A24
:1072C0004FF0000BD9450BD842F21073A2699A42D5
:1072D00082BF0023C4E90633236203B0BDE8F08F08
:1072E000B5F802A02F79BAF1000F2ED0384654F02D
:1072F00097FFCDE90001504654F092FF02460B463D
:10730000DDE9000155F020F902460B4600204C490A
:1073100054F038FE55F0D0FA07EE100A96F8033212
:10732000AAEB0700034486F8033294F8243033B301
:1073300094F825305B4522D1BAF1000F08D1C4F88A
:1073400020A00BF1010B0635BCE7B7EE007AE5E7AC
:10735000E3690133E3612A78002AF2D000239846DA
:1073600096F8E8C106F108019C450FD8B8F1000F66
:1073700014D127210220334A60F013FCE1E72A7878
:10738000002ADED0BAF1000FDBD0E7E791F81DE06C
:107390000133964508BF88462031E5E7002288F88A
:1073A0001420B8F81020D8F8043017440133BAB2CA
:1073B000C8F80430A8F810701AB198F81D2086F8A3
:1073C0001422F7EE007A012B77EEC77A8CBFB3EE6A
:1073D000097A9FED1D7AB8F8122088BF67EE877A88
:1073E0000244A8F81220D8F808208CBF9FED177A25
:1073F00067EE877A06EE102ADFED156AE6EE077A69
:1074000087EEA67A17EE103A17EE100AC8F8083081
:1074100054F018FF08A3D3E9002355F0DDF918B1A3
:10742000FF2388F815308CE798F91530013388D19F
:107430000423F6E7AFF30080666666666666EE3F95
:107440000000F03FB675090800004842000096426F
:107450000000C842000000002DE9F04F2DED028B26
:10746000054600274FF0200A4FF0080B0B46082076
:107470004D4A87B08846272160F093FB95F8E831A4
:1074800027210820494A60F08CFB6C6805F108064A
:10749000E37D23716371637595F8E891B9450DDC5F
:1074A0003FA7D7E900674FF00008AA46C346C14589
:1074B00046D807B0BDEC028BBDE8F08FE17D4246B7
:1074C0001AFB01B130462944FFF766FE96F81D907D
:1074D0000495F06854F0B6FECDE90201B06854F0AE
:1074E000B1FE4B46CDE90001314A2721082060F06A
:1074F00058FB2379D6ED037A05EB431292ED057A1A
:10750000F4EEC77AF1EE10FA02DB327F22710EE060
:1075100017B995F82420F9E7637905EB431393ED48
:10752000057AF4EEC77AF1EE10FA04DB337F63716B
:1075300001372036B0E7012FFAD195F84430F6E74D
:10754000E37D434515D09AED048A18EE100A54F0F5
:1075500079FE32463B4655F053F910B9BBF1000FA6
:107560000CD19AF8243022799A4202D062799A4258
:1075700011D108F101080AF1200A98E7637D05EBB3
:107580004313D3ED047AB4EEE78AF1EE10FAE8DAA9
:107590004FF0010BEDE76375FAE700BFAFF3008032
:1075A000666666666666EE3FCE750908F075090880
:1075B000FF750908000000002DE9F047D0F80480AD
:1075C00000EB411393F8245098F817300446AB426F
:1075D0002DD098F81530AB4229D000EB411ADAF8DB
:1075E00010004FEA411954F02DFE13A3D3E90023F4
:1075F00006460F4655F0FAF810B99AF91D00A0B1E9
:1076000098F80430AB4212D098F80530AB420ED057
:1076100009A3D3E900233046394655F0FBF818B1E9
:107620004C44637F013B63770120BDE8F087002075
:10763000FBE700BFAFF30080666666666666EE3FF6
:107640002DE9F34704460E46456827210820804A65
:1076500060F0A7FA20463146FFF7FEFE28466DF09F
:10766000FBF9002800F0BA8020466DF008FA061EEB
:10767000C0F2B48094F8E8319E4280F2AF8004EB0F
:107680004617334627210820724A60F08AFA2721DC
:10769000082097F82530704A60F083FA012295F8A7
:1076A00004C085F8242004EB4C13386A196A884218
:1076B00097F8250002D8397F322977D9012284F83A
:1076C000EC21002284F8EA0184F8EB21A97D2970DD
:1076D00093F8251084F8F01193F8263084F8F121FE
:1076E00084F8F231697D85F801C004EB411393F809
:1076F0002500012684F8F60193F8263084F8F83145
:10770000002384F8F731A97085F82520A04605F1FB
:10771000FF3904F1120A19F8013F5F1C002E00F036
:10772000898004EB4313186954F08CFD02460B4624
:10773000CDE9002342A3D3E9002355F06BF840B90B
:1077400041A3D3E90023DDE9000155F045F8002805
:1077500070D004EB4717BB79042B8EBF0223013393
:10776000C3F3460388F8EC3108F10608C245D2D1CC
:10777000EA7D04F5F57004EB421393F8253084F8A4
:10778000FC31002384F8FD31EA7085F8243094F848
:10779000F22194F8EC31134494F8F821C3F1130367
:1077A0009B1A84F8FE3102B0BDE8F08793F825708B
:1077B000697D84F8EA7193F8263084F8EC3100236F
:1077C00084F8EB3185F800C084F8F13184F8F001D9
:1077D00084F8F22104EB41136E7088E700262A79C1
:1077E00004EB421393F8251084F8EA1193F826303D
:1077F00084F8EB6184F8EC312A706A7904EB421367
:1078000093F8251084F8F01193F8263084F8F1618C
:1078100084F8F2316A706A7D04EB421393F8251004
:1078200084F8F61193F8263084F8F76184F8F8317B
:10783000AA706BE704EB4717BB7993E7AFF30080BF
:10784000666666666666EE3F9A9999999999B93F18
:1078500023760908317609084176090800000000FE
:107860002DE9F8432DED028B87680546384616460C
:107870000C4654F0E7FC2EA3D3E90023804689464A
:1078800054F0C8FF00283DD12BA3D3E90023404684
:10789000494654F0A1FFC0BBF7EE007A07EE107A1C
:1078A000AB7F87EE878A07EE903AB8EEE77AB4EEC0
:1078B000C87AF1EE10FA01D5B8EE678A6B7F607F67
:1078C0000122834224D000214AF03AF801220446E2
:1078D0003146687F4AF034F8044404F2D5702860D9
:1078E000D8B107EE900AF8EE677A9FED0D7A67EE51
:1078F000887A87EE270ABDEC028B10EE103AEB6017
:10790000BDE8F8839FED078AD8E79FED078AD5E7A2
:10791000314618464AF014F8E1E79FED040AEAE719
:1079200000007A44E4388E3F00401C46000000000E
:10793000CDCCCCCCCCCCEC3F9A9999999999B93FC4
:107940002DE9F04F2DED028B90F8E83105460E46FB
:10795000934689B0002B00F0238127210820964A06
:1079600060F01FF900226C68A1690131A16195F8EE
:10797000E80190423DD8D4E907230A2779436427D8
:10798000B1FBF7F1C2EB53030B4407EE903A43000F
:1079900006EE903AF8EE677AF8EEE66AF4EEE76AF9
:1079A000F1EE10FA0BD507EE102A77EEE67AB8EE74
:1079B000477A77EE277AFCEEE77AC4ED077A00275C
:1079C000B846BB451DD8B8F1010F00F0E680B8F10C
:1079D000130F40F2B9800023A3612721082095F8F6
:1079E0000332764A09B0BDEC028BBDE8F04F60F07F
:1079F000D8B8A37D013205EB43131F7F01371F77F2
:107A0000B7E7B6F8029096F804A0B9F1000F41D09C
:107A1000504654F005FCCDE90601484654F000FC00
:107A200002460B46DDE9060154F08EFD02460B4688
:107A30000020634954F0A6FA54F03EFF08EE100A05
:107A4000337818EE100A0693049554F0FBFB069B5E
:107A5000CDE902015B4A27210820CDE9009A60F0B8
:107A6000A0F87288337995F80312D31A0B4485F87D
:107A7000033294F82430C3B194F82530BB4214D1BA
:107A80005AB92262272108204F4A60F08AF801374C
:107A9000063696E7B7EE008AD2E7E369272101337D
:107AA00008204A4AE36160F07CF8B6F802A0BAF117
:107AB000000FECD00023E25D05EB4211C8680B77A4
:107AC0000130C86096F804C00B8B4FEA421963443A
:107AD0009BB20B831BB191F8253085F81432F7EE79
:107AE000007A05EB0902538B01285344A3EB0C03E6
:107AF00077EEC87A53830DD9B2EE0E7AD2ED046ACE
:107B000027EE877ADFED327AA6EEA77ADFED316ACB
:107B1000C7EE267AA944C9ED047A17EE900A54F00C
:107B200091FB23A3D3E9002354F056FE30B1FF2389
:107B300089F81D30C2441FFA8AF8A8E799F91D3068
:107B40000133F7D10423F3E7B8F1020FD4ED0B7A38
:107B5000B1EE047A15D977EE877AB3EE047AF4EEB3
:107B6000477AF1EE10FA77FE277A42F21073A26993
:107B7000C4ED0B7A9A4282BF0023C4E90633236224
:107B80002BE7F2EE046A77EEE67AF4EE477AF1EE4E
:107B900010FA48BFF0EE477AE7E7DFED0F7AE4E747
:107BA00009B0BDEC028BBDE8F08F00BFAFF30080E1
:107BB000666666666666EE3F86760908EC760908B4
:107BC0000000F03F9C760908CD760908DC760908AC
:107BD0000000AA420000C8420000000000000000AF
:107BE0002DE9F84F2DED028B0546884600274FF012
:107BF00020094FF0080B446800F10806E37D23716B
:107C00006371637595F8E8A1BA450CDC0FF2D009F1
:107C1000D9E9008900262F46B346B24532D8BDECDB
:107C2000028BBDE8F88FE17D424619FB01B1304679
:107C30002944FFF715FE2379D6ED037A05EB4312AD
:107C400092ED057AF4EEC77AF1EE10FA02DB327F9C
:107C500022710EE017B995F82420F9E7637905EB56
:107C6000431393ED057AF4EEC77AF1EE10FA04DBD4
:107C7000337F637101372036C4E7012FFAD195F8BD
:107C80004430F6E7E37DB34215D097ED048A18EE51
:107C9000100A54F0D7FA42464B4654F0B1FD10B9E1
:107CA000BBF1000F0AD197F8243022799A4202D012
:107CB00062799A420FD101362037AEE7637D05EB3A
:107CC0004313D3ED047AB4EEE78AF1EE10FAEADA60
:107CD0004FF0010BEFE76375FAE700BFAFF30080E9
:107CE000666666666666EE3F2DE9F047456890F881
:107CF000E821AB690446B3EB420F2ED900EB4113E8
:107D000093F82480EB7D43452AD06B7D434527D0F3
:107D100000EB411ADAF810004FEA411954F092FAD8
:107D200011A3D3E9002306460F4654F05FFD10B9B6
:107D30009AF91D0090B12B79434511D06B794345D9
:107D40000ED009A3D3E900233046394654F062FD32
:107D500018B14C44637F013B63770120BDE8F08795
:107D60000020FBE7AFF30080666666666666EE3F5E
:107D70000348044B834202D0034B03B118477047BA
:107D8000AC320120AC32012000000000064B074954
:107D9000C91A891048BF0131491003D0044B0BB1F7
:107DA00001481847704700BFAC320120AC320120B7
:107DB0000000000010B5064C237843B9FFF7D8FF48
:107DC000044B13B10448AFF300800123237010BDAE
:107DD00020A8002000000000788E090808B5054B97
:107DE0001BB105490548AFF30080BDE80840FFF727
:107DF000CDBF00BF00000000E8220020788E0908F7
:107E0000A3F5803A704700BF174B002B08BF134BF8
:107E10009D46FFF7F5FF00218B460F461348144A95
:107E2000121A6DF016FE0E4B002B00D098470D4B2A
:107E3000002B00D098470020002104000D000D48C1
:107E4000002802D00C48AFF3008055F0EDFB200075
:107E5000290059F0B8FD55F06DF800BF000008008A
:107E6000000000000000000008140020081400209A
:107E7000001C0120000000000000000008B505F013
:107E80002BFB0022084BC3E90001084BC3E90001AA
:107E9000074B08491A8000220023C1E90023064944
:107EA000C1E9002308BD00BF881400208014002011
:107EB0006AA7002078140020701400202DE9F04FEC
:107EC0009BB000AF00233149314A04460D4692462B
:107ED00018460133DBB2082B01F8010B02F8010B45
:107EE000F7D107F10B0060F010F818B181B2294802
:107EF00020F086F86A46FB7A07F10B00A2EBC30379
:107F00009D4669466E4660F015F818B181B2224868
:107F100020F076F84FF00008FA7A5FFA88FB5A45AD
:107F200008D820462B686C3723606B686360BD46B9
:107F3000BDE8F08F06EBCB094FEACB0307F10C014C
:107F400048467B6060F00FF8F96A49B91349484622
:107F500060F009F856F83B102960D9F80410696000
:107F6000F96A01290ED148460D495FF0FCFF7B6894
:107F70003344994656F83B30CAF80030D9F80430FB
:107F8000CAF8043008F10108C6E700BFD9B00020E4
:107F9000D1B00020488707088187070834BA00203D
:107FA000DBB9002013B56846FFF788FF084C094A83
:107FB0002146D3790848927920F036F82146074ABD
:107FC0000748D379927902B0BDE8104020F02CB870
:107FD000B5870708D9B00020C0B90020D1B0002073
:107FE000B8B900202DE9F043A7B02E4C21AE2046B1
:107FF00060F048F855F01FFE2B490246304620F04D
:1080000013F8FFF7CFFF294B2088D3E90012013185
:1080100042F10002C3E90012254B264D5F89264B31
:108020001E93264BD3E90A89CDE91C89D3E9088937
:10803000CDE91A89D3E90689CDE91889D3E90489FC
:10804000CDE91689D3E90289CDE91489A378CDE970
:108050000F07CDE91173CDE90C12194B0E900A965A
:1080600093F844204FF48061099293F84520284604
:108070000892B3F840200792DA8F06929B8F114A3C
:108080000593114B0493114B0393114B0293114B26
:108090000193114B0093114B1FF0DAFF284627B0D4
:1080A000BDE8F0838DBA002037AA070868140020C5
:1080B0001C240020E9B4002054B90020081400203A
:1080C00034BA0020CC870708C0B9002091BA00203C
:1080D000EBB8002026890708C8B9002099B0002015
:1080E0002DE9F04FF7B0219055F0A5FDDFF884920F
:1080F00002468B4923A81FF097FFFFF753FF48461E
:108100005FF0B4FE87485FF0BDFF874C3CA90420B8
:108110005FF062FE012059A95FF05EFED4E90032F3
:10812000013342F10002C4E9003299F80030DFF86F
:1081300048A2052B28AD2DAE32AF40F09F8005F050
:10814000CBF97A4ADFF834B2D2E90032B0EB030857
:1081500061EB02094946404605F098F9704902462C
:1081600028461FF061FF724930461FF05DFFDAE9D3
:10817000000118EB000049EB010105F087F968499F
:10818000024638461FF050FFDBE9000105F07EF99A
:108190006349024637A81FF047FFDAE90001DBE92F
:1081A000003218EB000049EB010110EB030A41EB30
:1081B000020B5AEA0B0340F09E805E48479B1F93D8
:1081C000439B1E939DF8AC311D935A9B1C93619B5E
:1081D0001B935B9B1A93649B1993524B9B78189348
:1081E00037ABCDE9167354F02DF8CDE91401524B9D
:1081F0001B881393514B1B881095CDE91163504D8B
:10820000686853F0FDFF64230646E8680F46B0FB3C
:10821000F3F053F0F5FF02460B463046394654F072
:1082200093F9CDE90E01D4E90023CDE90C2323AB6A
:108230000B93444B4FF4806193F8442042480A92D8
:1082400093F845200992B3F840200892DA8F0792FC
:108250009B8F3E4A06933E4B05933E4B04933E4B09
:1082600003933E4B02933E4B01933E4B0093219B65
:108270001FF0EEFE344877B0BDE8F08F05F02CF922
:10828000394AD2E90032B0EB030861EB020B284611
:1082900099F8002035491FF0C7FE5946404605F0C1
:1082A000F5F81F49024630461FF0BEFEDAE900012C
:1082B00005F0ECF8DFF8C4900246194938461FF083
:1082C000B3FED9E9000118EB00004BEB010105F00A
:1082D000DDF81349024637A81FF0A6FEDAE90001CF
:1082E000D9E9003210EB030A41EB02031AEB080A4A
:1082F0004BEB030B5DE753F0C7FF00221C4B53F021
:10830000F9FF804689465046594653F0BDFF024664
:108310000B464046494654F017F954F0CDFA4DE764
:1083200037AA07088DBA002068140020881400209E
:108330002B8907080000C84268A700206AA7002010
:108340004823002034BA0020E9B4002042890708FD
:10835000C0B9002091BA0020EBB800202689070898
:10836000C8B9002099B00020801400202E89070889
:1083700000005940E9B80020781400207014002053
:1083800037B5604901205FF0AFFC05465E495D48A6
:1083900009F094FF5D4C002D00F09C804FF4AF611C
:1083A0005B4A20681FF054FE55F045FC23680246E6
:1083B000584900205EF012FC55F03DFC2268014651
:1083C00054481FF01DFE4FF4AF61534AABB2206812
:1083D0001FF03EFE002021685EF000FC20681FF0C8
:1083E0000FFE4FF4AF614D4B4D4A20681FF030FE39
:1083F00055F021FC23680246464900205EF0EEFB62
:1084000055F019FC2268014642481FF0F9FD434827
:108410006DF0D3FB434A0146404856F039FB4249D0
:10842000404809F04BFF40F2D54300934FF4AF6151
:108430003D4B3E4A20681FF00BFE55F0FCFB2368C5
:108440000246344900205EF0C9FB55F0F4FB226877
:10845000014630481FF0D4FD4FF4AF61344B354A2C
:1084600020681FF0F5FD55F0E6FB23680246294918
:1084700000205EF0B3FB55F0DEFB22680146254884
:108480001FF0BEFD2A486DF098FB2B4A0146284894
:1084900056F0FEFA2949284809F010FF41F23563E9
:1084A00000934FF4AF61254B254A20681FF0D0FDA3
:1084B00055F0C1FB23680246164900205EF08EFB92
:1084C00055F0B9FB2268014612481FF099FD284675
:1084D00003B030BD4FF4AF610B4B1A4A20681FF058
:1084E000B7FD55F0A8FB236802460A4928465EF00E
:1084F00075FB55F0A0FB2268014606481FF080FD81
:108500006FE700BFC1B0002099B00020D024002048
:10851000A12B0808AC8B0708B48B0708148C07083C
:10852000268C07083423002049B00020418C07081E
:10853000688C07087A8C07081423002021B00020DB
:10854000968C0708F18B0708F8B5FFF719FF03228F
:108550000221002028F034FD514A411C0346514CB1
:10856000106023D14FF4AF614F4A20681FF070FDB7
:1085700055F061FB236802464C4900205EF02EFB5B
:1085800055F059FB2268014648481FF039FD484A1A
:108590004FF4AF6120681FF05BFD216800205EF0A2
:1085A0001DFB20681FF02CFD0120F8BD4FF4AF61CA
:1085B000404A20681FF04CFD55F03DFB2368024601
:1085C0003A4900205EF00AFB55F035FB00250146D4
:1085D0002268394E35481FF013FD40F2D540356012
:1085E0005FF0ECFA0322B0800221284628F0E8FC74
:1085F000324E421C0346306016D14FF4AF612A4A16
:1086000020681FF025FD55F016FB23680246274918
:1086100028465EF0E3FA55F00EFB22680146234837
:108620001FF0EEFC264AB3E74FF4AF61254A2068FD
:108630001FF00EFD55F0FFFA236802461B4928463D
:108640005EF0CCFA55F0F7FA1F4F01462268174842
:108650001E4C1FF0D5FC41F2356025605FF0AEFA8C
:1086600033683E46A08046F8043B0FCC0FC694E822
:108670000F0086E80F0041F20303FB843223BB6244
:1086800042F22A3312484FF40071BB85B86356F0AA
:108690000FFD7D63F88587F8245028463D6484E704
:1086A00004230020D0240020A12B0808AC8B07084D
:1086B000BD8C0708F38C0708282300200023002026
:1086C000238D07085A8D0708841E012008230020E7
:1086D0008A8D070873B53C4D4FF40071E86356F07E
:1086E000E7FC288605F1240056F00DF8064655F003
:1086F000F3FF0446E8B9354D009640F29B434FF432
:10870000AF61334A28681FF0A3FC55F094FA2B6838
:108710000246304920465EF061FA55F08CFA2A682C
:1087200001462C481FF06CFC40F29D45284602B0E3
:1087300070BD05F1240155F0E8FF00281CDA234D37
:108740004FF494634FF4AF61234A28681FF080FC14
:1087500055F071FA1F4902462B6800205EF03EFA80
:1087600055F069FA2A6801461A481FF049FC0025AD
:10877000204655F0BDFFD9E720230193174B324621
:10878000009321460023286828F08AFC0130EED1AE
:108790002B680E4E00934FF4AF6140F2A943104A8C
:1087A00030681FF055FC55F046FA33680246094917
:1087B00000205EF013FA55F03EFA32680146054893
:1087C0001FF01EFC3125D3E7841E0120D024002099
:1087D0009D8D0708AC8B0708DD8D07080823002056
:1087E000178E07082DE9F04385B005461C469DF815
:1087F00030609DF83470002A00F08F80002978D016
:1088000055F019FA014671481FF0FAFB28461FF08F
:10881000F7FB002C40F09A800124002E3CD02B4620
:108820004FF480616A4A6B481FF012FC20230193C9
:10883000694BDFF8D091009386B200233246654938
:10884000D9F8000028F02CFC013040F0838040F281
:10885000D5430293614B03960193D9F80030DFF8BA
:108860008C8100934FF4AF614FF49A635C4AD8F85F
:1088700000001FF0EDFB55F0DEF95A490246D8F82A
:10888000003000205EF0AAF955F0D5F9D8F80020A4
:10889000014654481FF0B4FB3FB32B464FF48061B0
:1088A0004B4A51481FF0D4FB83B2B3F5007F54D933
:1088B0004FF400734D4D80B20193009040F2D943C4
:1088C0004FF4AF614A4A28681FF0C2FB55F0B3F974
:1088D000444902462B6800205EF080F955F0ABF960
:1088E0002A6801463F481FF08BFB204605B0BDE8D3
:1088F000F0831FF085FB002C8ED00124DFF8EC8084
:108900002A464FF4AF61D8F800001FF0A1FBD8F859
:10891000001000205EF062F916E0002B3FF47DAFFE
:10892000B1B11446DFF8C4802A464FF4AF61D8F8DD
:1089300000001FF08DFB55F07EF9D8F8003002469C
:10894000284900205EF04AF9013466E70124E9E78E
:108950000C46D3E70134E4B29EE72348FFF7BAFEA2
:10896000064610B90134E4B2BFE7204D4FF4AF61C1
:10897000204A28681FF06CFB55F05DF92B68024611
:10898000184900205EF02AF955F055F92A68014689
:1089900014481FF035FB41F235630293164BB6B213
:1089A0000193164B03961B68154A00934FF4AF6171
:1089B00040F2DD4328681FF04BFB296800205EF081
:1089C0000DF928681FF01CFB8FE700BF458E0708D4
:1089D00037AA070821AC00202823002049B0002036
:1089E0004B8E0708AC8B070821A80020D02400205C
:1089F000A98E0708A12B080821B000200023002021
:108A0000158F0708042300202DE9F04F9BB004F0D8
:108A1000C5FC03F071FDC4481FF0F2FAC34856F0DC
:108A20007FFBC3481FF0ECFA06F034F9C1486DF043
:108A3000C4F8C14CC14DD0B1E3880133E38003F0E9
:108A400019FD4FF4AF61BB4BBD4A28681FF000FB16
:108A500055F0F1F8BB4902462B6800205EF0BEF8E5
:108A600055F0E9F82A680146B6481FF0C9FA4FF4F4
:108A70007A706FF002F9B4481FF0C2FAB34AB449F1
:108A8000B4481FF0D1FAB44BB44EB54F0293B54B76
:108A900064213046B44A01930097AE4B1FF0D8FAD8
:108AA000CDE900764FF4AF61AA4BB04A28681FF0B9
:108AB000CFFA55F0C0F82B680246A24900205EF0BC
:108AC0008DF855F0B8F8AA4F01462A689D481FF066
:108AD00097FA5021A74BA84AA84800971FF0B8FA68
:108AE0000DA80AF0B1F8119B50211B69A44ACDE9E9
:108AF0000073A2489F4B1FF0ABFA33464FF4AF61AF
:108B0000A04A28681FF0A4FA55F095F82B68024691
:108B10008C4900205EF062F855F08DF82A68014615
:108B200088481FF06DFA4FF4AF61944B954A28685E
:108B30001FF08EFA55F07FF82B680246814900201D
:108B40005EF04CF855F077F82A6801467D481FF032
:108B500057FA4FF4AF618C4B8C4A28681FF078FAB3
:108B600055F069F82B680246764900205EF036F829
:108B700055F061F82A68014672481FF041FA012059
:108B80002E6809F02FFC4FF4AF610346804A30464F
:108B90001FF05EFA55F04FF82B6802466949002035
:108BA0005EF01CF855F047F82A68014665481FF04A
:108BB00027FA02234FF4AF61764A28681FF048FA7B
:108BC00055F039F82B6802465E4900205EF006F841
:108BD00055F031F82A6801465A481FF011FA012170
:108BE000032004F093F9012203211A2004F0B6F9BE
:108BF00001220421102004F0B1F9012222201146A3
:108C000004F0ACF9012204210B2004F0A7F90122A1
:108C10002520114604F0A2F901221D20114604F07E
:108C20009DF901220221002004F098F9012202217D
:108C3000282004F093F9584B4FF48061444A574878
:108C40001FF006FA4FF4AF61554A28681FF000FA8A
:108C500054F0F1FF2B6802463A4900205DF0BEFF58
:108C600054F0E9FF2A68014636481FF0C9F94FF46D
:108C7000AF614C4A28681FF0EBF954F0DCFF2B6819
:108C80000246304900205DF0A9FF54F0D4FF2A6865
:108C900001462C481FF0B4F94FF4AF61424B434AF0
:108CA00028681FF0D5F954F0C6FF2B680246254905
:108CB00000205DF093FF54F0BEFF2A680146214872
:108CC0001FF09EF94FF4AF61394B3A4A28681FF004
:108CD000BFF954F0B0FF2B6802461A4900205DF03E
:108CE0007DFF54F0A8FF2A68014616481FF088F956
:108CF0004FF4AF61304A28681FF0AAF954F09BFF87
:108D00002B6802460F4900205DF068FF54F093FF86
:108D10002A4E01462A680B481FF072F930465FF070
:108D2000CAF830464CE000BF7F8F070898E8070874
:108D3000B78F07084CE400201C240020D02400201A
:108D4000F48F0708AC8B0708A12B080826890708B1
:108D500037AA0708D0B900201C90070854B9002092
:108D600038900708219007081090070841900708DD
:108D70006C9007084B9007085790070804B900202B
:108D800075900708108C07089F900708B390070894
:108D9000BF900708D09007086C270808E9B00020AA
:108DA000E6900708FD900708179107082791070824
:108DB0003F9107084F91070867910708E1B000202D
:108DC00009F004FC8949024689481FF02DF9F3791E
:108DD000B279884988481FF027F94FF4AF61844B76
:108DE000864A28681FF034F954F025FF2B680246A4
:108DF000834900205DF0F2FE54F01DFF2A68014611
:108E00007F481FF0FDF84FF4AF617B4B7D4A286827
:108E10001FF01EF954F00FFF2B680246784900201E
:108E20005DF0DCFE54F007FF2A68014674481FF02D
:108E3000E7F8754975481FF0F7F84FF4AF61734BC9
:108E4000734A28681FF004F954F0F5FE2B680246B7
:108E50006B4900205DF0C2FE54F0EDFE2A68014629
:108E600067481FF0CDF8237B53B96A49942007F077
:108E70007BFF9520674907F077FF012002F034FF60
:108E800065498B2007F070FF03F076F9637BE3B14F
:108E9000267B002E40F0A18001205FF036F94FF4D0
:108EA000AF61637B5D4A28681FF0D2F854F0C3FEBF
:108EB000534902462B6800205DF090FE54F0BBFE43
:108EC0002A6801464E481FF09BF84FF4AF61238992
:108ED000534A28681FF0BCF854F0ADFE2B680246D8
:108EE000474900205DF07AFE54F0A5FE2A6801464D
:108EF00043481FF085F860895FF05CF94FF4AF617B
:108F00006389484A28681FF0A3F854F094FE2B6840
:108F100002463B4900205DF061FE54F08CFE2A6859
:108F2000014637481FF06CF83F481FF069F80221EE
:108F30000023084604220EF01FFA3C481FF060F898
:108F40003B4B00211B68DFF8FCB0DA6918689047DA
:108F5000384B394F186805F09BFA012005F09EFA4E
:108F6000002005F055FA35481FF04AF802F07CFD64
:108F700002F016FE04F056F804F0D8FA04F0ACFA49
:108F80002F4BDFF8CC80C3E9000106F095FA04F01E
:108F9000A3FA06462B480D465EF068FF9BF80030AA
:108FA000052B57D03C2200233046294653F032FE91
:108FB0001A430BD154F03FFE014638461FF020F80B
:108FC00041469BF8002020481FF01AF804F080FB6F
:108FD0004FF47A706EF051FED9E700964FF4AF610E
:108FE0001A4A28681FF034F860E700BF37AA07085C
:108FF00091BA0020B5870708C8B9002080910708FA
:10900000AC8B07088F9107089E910708EBB80020EA
:10901000B69107083DBE000879920008C69107087E
:1090200006920708279207084092070865920708EA
:10903000701F0120741F0120458E070898920708B1
:1090400090140020E9B80020BC920708D4910708CA
:109050009F90070804F040FACDE9060101210320A2
:1090600003F054FF01222220114603F077FF012272
:109070000B20114603F072FF01222520114603F058
:109080006DFF01221D20114603F068FF012202211D
:10909000002003F063FF01220221282003F05EFF7D
:1090A000FFF752FA4523604A604961481EF0A8FF65
:1090B00009A901205EF018FE5E481EF0A1FF09A874
:1090C00009F06EF90125002601465B481EF0ACFF51
:1090D00041F23362594B584959481EF091FF5948A3
:1090E0001EF08EFF41F23362544B534956481EF036
:1090F00087FF0A2155481EF083FF41F23362544B2B
:10910000494954481EF07CFF53481EF079FF41F254
:1091100033624F4B444951481EF072FF5049464854
:1091200000F030FC4F48FEF75DFF2B462A462946EB
:10913000CDE90056FFF756FB4B486CF03EFD50B1B1
:1091400002206EF09AFD2B462A462946CDE90056AC
:109150004548FFF747FB01254448DFF8148114F028
:109160002BFE022088F800504FF0000A6EF085FDBB
:10917000DFF8009104F0B0F9069BC61A079B61EB7B
:1091800003079BF80030052B2ED104F08DF804F076
:109190009FFA01230593304600233946228953F074
:1091A00039FD1A4324D099F8003033BB00233046F0
:1091B0003946228953F02EFD013A1A4308BF012592
:1091C000052200233046394653F024FD53EA0201BC
:1091D00023D198F8003023B1244814F0EDFD88F82D
:1091E00000A054F0D3FDC5E704F072FA0023D1E7E4
:1091F0001DB999F80050002DE2D01A48FEF770FF13
:10920000059BCDF804A0009301231A461946FFF7E9
:10921000E9FA002589F800A0C8E7013A1A4304BF1B
:10922000012388F80030DCE7E9920708F592070887
:10923000089307084A93070899B000206493070829
:109240006D930708B0930708E79307081E94070873
:109250004F9407085F940708AD940708E89407083F
:1092600071B000206C2708084CE40020482300203F
:10927000D8B90020D9B900202DE9FF478268CA4D2E
:10928000D2B2052A2A7000F21282C84E33889A425E
:1092900000F00D82C64C00924FF4AF61C54A2068C1
:1092A0001EF0D6FE54F0C7FC23680246C2490020D7
:1092B0005DF094FC54F0BFFCC04F01462268BE48EC
:1092C0001EF09EFE95F800803B78434508F1FF3381
:1092D00088BF87F80080042B41D804F0FDF8DFF840
:1092E000EC92B74B09EBC808C8E90001D3F800803D
:1092F000404655F018FF642015F04EFA404655F0F0
:1093000024FF2B78581E59F8332009EBC00C59F86C
:10931000300009EBC301121ADCF804C04968A948FF
:1093200061EB0C0100EBC30C40F83320CCF80410C7
:10933000CDE900214FF4AF61A34A20681EF088FEFA
:1093400054F079FC9C490246236800205DF046FCFD
:1093500054F071FC2268014697481EF051FE2B78AC
:10936000052B40F0AB80964BDFF89092186855F0D3
:10937000DAFE2A78954B03EBC201D1F804C0944978
:1093800053F832300A88C9E9003C013292B20A80AF
:10939000397803299FBF8F48018801310180052159
:1093A000012A397020688C4F40F08481CDE9003C5F
:1093B0004FF4AF61894A1EF04BFE54F03CFC236829
:1093C00002467D4900205DF009FC54F034FC22681F
:1093D000014679481EF014FE00231A46DFF8288261
:1093E000C7E9003240466CF0E8FB7D4B87B295F848
:1093F0000090188054F01FFCC7F580614B46794AF5
:10940000009008EB07001EF023FE276895F8008007
:1094100054F011FC43464FF4AF61724A0090384655
:109420001EF016FE54F007FC236802466249002035
:109430005DF0D4FB54F0FFFB226801465E481EF04D
:10944000DFFD02A8FEF73AFD674F029B67493B60CC
:10945000039B67487B60FB79BA791EF0E5FD654B9D
:109460001B684BB16448FEF7BDFD01231A4619463F
:10947000CDE90033FFF7B6F90121032003F046FDE3
:1094800001222220114603F069FD01220B20114622
:1094900003F064FD01222520114603F05FFD012247
:1094A0001D20114603F05AFD01220221002003F085
:1094B00055FD01220221282003F050FD3388052BA1
:1094C00040F0F380414F4FF00009BA46B84604F02F
:1094D00003F8EAE80201287809F101094845F6DABB
:1094E0004FF0000CDFF8DCE03B46BA68D9680CF1BD
:1094F000010CD3E90093B2EB090261EB03034EF8D0
:10950000082F604507F10807CEF80430ECDA08EBC5
:10951000C00258F830305268DFF8F080374FC8E9A1
:109520000032D7E900011B1A62EB0102CDE90032DB
:109530004FF4AF61324A20681EF08AFD54F07BFB85
:10954000236802461C4900205DF048FB54F073FB81
:109550002268014618481EF053FDD8E90032DFF8B2
:10956000B0C0DFF8A480DCE900011B1842EB010267
:10957000D7E900105B1A62EB00024046CCE90032EA
:109580006CF01BFB164B87B295F80090188054F0D6
:1095900052FBC7F580614B461A4A009008EB070062
:1095A0001EF056FD36E000BFE9B8002064A7002099
:1095B000D02400201E950708AC8B0708DAB90020DC
:1095C000C8E807080814002033950708381400205D
:1095D0006AA7002068A70020701400205C95070887
:1095E00066A7002099950708D9B00020B58707081D
:1095F000C0B90020042300206C270808881400202C
:10960000A4950708C1950708E9B000208014002040
:1096100078140020276895F8008054F00CFB43462E
:109620004FF4AF61384A009038461EF011FD54F0F7
:1096300002FB23680246354900205DF0CFFA54F062
:10964000FAFA22680124014630481EF0D9FC304B5A
:10965000214603201C7003F059FC224603211A20E6
:1096600003F07CFC22460421102003F077FC224604
:109670002146222003F072FC224604210B2003F035
:109680006DFC22462146252003F068FC2246214637
:109690001D2003F063FC22460221002003F05EFC43
:1096A00022460221282003F059FC2B78338004B095
:1096B000BDE8F087DFF86080D8E900125B1A6CEB38
:1096C0000202CDE900324FF4AF61124A1EF0C0FC35
:1096D00054F0B1FA236802460C4900205DF07EFA8E
:1096E00054F0A9FA2268014608481EF089FCD7E91F
:1096F0000001D9E900321B1842EB0102D8E9001041
:109700005B1A62EB000269E6C1950708AC8B07089B
:10971000EAB800207D9507088014002084B010B5B9
:109720008CB00EAC84E80F009DF87F30154C0B9385
:109730009DF87C304FF48061AE3B0A939DF87D30FC
:109740002046AE3B0993BDF876300F4A0893BDF82A
:10975000743007931B9B06931A9B0593199B0493E4
:10976000189B0393179B0293169B01939DF89430CB
:109770000093269B1EF06CFC20460CB0BDE8104008
:1097800004B07047E9B40020CC9507082DE9F347F1
:1097900005460DF107000E4690461F465EF0B5FBEC
:1097A00018B181B226481EF02BFC9DF80700002856
:1097B00043D0C00058F01AF8044600283DD00146B6
:1097C0000DF107005EF0B6FB18B181B21D481EF026
:1097D00017FC9DF807303DB3307883422AD93946CB
:1097E00004EBC0005EF0BFFB327804EBC202D37919
:1097F00092790EE004EBC90A394650465EF0B3FB9D
:109800003B6A013583B986F800909AF807309AF8D8
:1098100006200D4940461EF007FC204658F005F88A
:10982000012002B0BDE8F0879DF807305FFA85F9A6
:109830004B45DFD8204657F0F8FF0020F1E700BF86
:109840004887070881870708B587070830B5AFB094
:10985000104D17AC23462A4600200DF15B01FFF79F
:1098600095FF034670B19DF85B3049221BA96846FD
:10987000139314956CF094F994E80F00FFF74EFFE2
:109880002FB030BD4FF48061034A04481EF0E0FB66
:109890000248F5E7B9BA0020A4960708E9B4002009
:1098A00000B589B003A85EF007FC70B99DF81430CC
:1098B0004FF480610093094ABDF80C3008481EF04F
:1098C000C7FB074809B05DF804FB83B24FF4806121
:1098D000044A03481EF0BCFBF3E700BFB496070838
:1098E000E9B40020E09607082DE9F041AEB0064645
:1098F0000DF15B005EF009FB18B181B21C481EF04F
:109900007FFB9DF85B00B04203D81A482EB0BDE83B
:10991000F081C00057F06AFF04460028F5D00146E8
:109920000DF15B005EF006FB18B181B212481EF02B
:1099300067FB04EBC607DFF8488017AD29463846B9
:109940005EF011FBFB79BA790C4940461EF06CFBC6
:10995000204657F06AFF1BA949226846CDE91368E3
:109960006CF01EF995E80F00FFF7D8FECEE700BFB8
:10997000488707086C27080881870708B587070804
:10998000B9BA002070B50D4604461D4E30461EF093
:1099900037FB1C481EF034FB41F2356229461A4859
:1099A0001EF02EFB19481EF02BFB214618481EF016
:1099B00027FB18481EF024FB214617481EF020FB09
:1099C00006F0AEFD15481EF01BFB15481EF018FBF7
:1099D00014481EF015FB14481EF012FB13481EF02D
:1099E0000FFB13481EF00CFB12481EF009FB124837
:1099F0001EF006FB3046BDE870401EF001BB00BF04
:109A0000A12B0808189707084C9707086D970708B7
:109A10007E970708BE970708D29707082A98070875
:109A200080980708D0980708299907088799070898
:109A3000C39907081D9A0708789A070870B58EB071
:109A400005460CA85EF037FA0CA808F0BFFD0446E6
:109A50000DF12E030DF12D020BA90DF12B005EF07F
:109A6000E1FABDF82E30134E08939DF82D30124ABE
:109A700007939DF82C304FF47A7106939DF82B30A4
:109A8000304605930D4B099404930D4B03930D4BF6
:109A900002930D4B01930D4B00930D4B1EF0D8FA22
:109AA000204655F083F82946304654F0AFF80EB002
:109AB00070BD00BFBFBA0020B69A070804B90020E5
:109AC00054B90020EBB8002038900708D0B9002026
:109AD000C8B9002070B59AB004460DF117005EF0C9
:109AE00014FA03F0F9FC03F0D1FC2821024606A881
:109AF0001EF0AEFA03F0F0FC104A10AED2E90032CC
:109B0000C01A61EB020103F0C1FC28210246304675
:109B10001EF09EFA9DF81730094D0293094B0A4A30
:109B2000CDE900634FF47A7106AB28461EF090FA37
:109B30002146284654F06AF81AB070BD88140020F7
:109B4000BFBA0020C0B90020609B070838B50122C9
:109B50000446074B074D1A704FF47A712846064A9F
:109B60001EF076FA21462846BDE8384054F04EB83B
:109B7000D9B90020BFBA0020B89B070810B5044629
:109B80000B486CF01AF860B14FF47A71084B094A2F
:109B900009481EF05DFA2146BDE81040064854F021
:109BA00035B84FF47A71054A03481EF051FAF2E7CE
:109BB0004CE4002037AA0708BFBA0020D39B07084F
:109BC00038B50446064D4FF47A712846054B064ACF
:109BD0001EF03EFA21462846BDE8384054F016B83B
:109BE000BFBA0020C8B9002037AA070838B5044614
:109BF000064D4FF47A712846054B064A1EF028FAA6
:109C000021462846BDE8384054F000B8BFBA0020CD
:109C1000D0B9002037AA070838B50446064D4FF4DE
:109C20007A712846054B064A1EF012FA214628464C
:109C3000BDE8384053F0EABFBFBA002038900708AB
:109C400037AA070838B50446064D4FF47A712846FE
:109C5000054B064A1EF0FCF921462846BDE838406F
:109C600053F0D4BFBFBA0020EBB8002037AA0708D2
:109C700070B58AB004462822002168466BF0E9FEE0
:109C8000A389002B3CD0204654F063FD0546A0B3C9
:109C90006A461D4953F074FA0646284654F028FDDA
:109CA0005EB3684619496BF069FF68B95EF03DF82C
:109CB00041F28831872005F0F3FB5EF0EBF854F0B9
:109CC00057F800200AB070BD684611496BF056FF86
:109CD00038B95EF02AF841F28831872005F0E0FBC0
:109CE000EDE76B460B4A4FF47A710B481EF0B0F962
:109CF0002146094853F08AFFE4E76B46074AF2E73A
:109D0000074B084AEFE700BFEA9B0708EF9B0708ED
:109D1000F99B0708039C0708BFBA0020189C070896
:109D200054B9002037AA070838B50446064D4FF449
:109D30007A712846054B064A1EF08AF921462846C4
:109D4000BDE8384053F062BFBFBA002004B900201C
:109D500037AA070838B5044603F0BEFB03F096FBAC
:109D6000064D03464FF47A712846054A1EF070F9F5
:109D700021462846BDE8384053F048BFBFBA00200E
:109D800037AA070838B50446074DFEF70BF94FF41C
:109D90007A712846054B064A1EF05AF92146284694
:109DA000BDE8384053F032BFBFBA0020C0B9002030
:109DB00037AA070838B50446FFF748FD064D0346A5
:109DC0004FF47A712846054A1EF042F9214628468A
:109DD000BDE8384053F01ABFBFBA002037AA0708C1
:109DE00038B50446FFF75CFD064D03464FF47A7123
:109DF0002846054A1EF02CF921462846BDE8384081
:109E000053F004BFBFBA002037AA070813B50023D8
:109E1000019383890446B3B10F49806901AA53F0C5
:109E2000AFF980B19DF80400FFF75EFD03460B4AD1
:109E30004FF47A710A481EF00BF92146084853F096
:109E4000E5FE02B010BD0DF103005EF05EF89DF876
:109E50000330044AECE700BFA806090837AA070840
:109E6000BFBA00202F9C070830B58BB00446114BB9
:109E7000114DD3E90A01CDE90801D3E90801CDE983
:109E80000601D3E90601CDE90401D3E90401CDE9D6
:109E900002014FF47A71D3E902232846CDE9002369
:109EA000064A1EF0D5F8214628460BB0BDE83040E2
:109EB00053F0ACBE08140020BFBA0020429C070833
:109EC00038B50446064D4FF47A712846054B064ACC
:109ED0001EF0BEF821462846BDE8384053F096BE35
:109EE000BFBA0020E9B0002037AA0708F7B5002361
:109EF0000193838904460F4F73B154F02AFC054641
:109F000050B10D4901AA53F03BF90646284654F0DA
:109F1000EFFB0EB1019B3B813B89084A4FF47A71FC
:109F200007481EF095F82146054853F06FFE03B030
:109F3000F0BD00BF1C240020A8060908A03F0908A6
:109F4000BFBA0020F7B500230127CDE900331F4E2B
:109F5000838905463760BBB154F0FBFB044680B1F2
:109F60006B461B4901AA53F00BF902281CD19DF83E
:109F70000010184B3A469DF80400197002F0EEFFED
:109F80003060204654F0B4FB3368E3B9114B124AF9
:109F90001B784FF47A7111481EF05AF829460F4881
:109FA00053F034FE03B0F0BD0D496A46204653F02D
:109FB000E7F801280146E4D19DF80000054B187030
:109FC00002F0A4FFDCE7074AE3E700BF1424002007
:109FD000A0B90708E8260120A03F0908BFBA002061
:109FE000A80609085D9C070870B58CB000210646DC
:109FF000282202A801916BF02CFDB3895BB3304697
:10A0000054F0A7FB054678B3184901AB02AA53F0F8
:10A01000B7F8022815D1019902A802F0C3FA044644
:10A02000284654F065FBBCB9019B114A4FF47A7184
:10A0300010481EF00DF831460E4853F0E7FD0CB005
:10A0400070BD28460C4902AA53F09AF8012806D0A0
:10A05000284654F04DFB0F242346084AE6E701A9A1
:10A0600002A802F09BFBDAE71924F5E77C9C0708BD
:10A07000A03F0908BFBA0020EA9B0708849C070894
:10A0800038B583890546C3B154F063FB044640B13B
:10A0900002464FF47A710C4802F0BEFE204654F09E
:10A0A00027FB4FF47A71094A09481DF0D1FF294670
:10A0B000BDE83840064853F0A9BD4FF47A71054A0F
:10A0C000014802F0A9FEECE7148C0708929C0708EF
:10A0D000BFBA00204227080838B50446074D02F0F1
:10A0E0000FFF4FF47A712846054A1DF0B1FF214653
:10A0F0002846BDE8384053F089BD00BFBFBA0020F4
:10A100009A9C070838B5044603F0A8FE064D02469F
:10A110004FF47A7128461DF09BFF21462846BDE882
:10A12000384053F073BD00BFBFBA002038B50446B5
:10A1300003F0E2FC064D02464FF47A7128461DF00A
:10A1400087FF21462846BDE8384053F05FBD00BF79
:10A15000BFBA002038B5044603F0EAFC064D0246BB
:10A160004FF47A7128461DF073FF21462846BDE85A
:10A17000384053F04BBD00BFBFBA002038B504468D
:10A180000D481DF03DFF0D4854F0C7FF0C4854F03A
:10A19000C4FF01220B4B0C4D1A704FF47A71284604
:10A1A0000A4A1DF055FF0A481DF02AFF214628469D
:10A1B000BDE8384053F02ABDA29C070898E807087C
:10A1C000B0E80708BEBA0020BFBA0020CF9C07083D
:10A1D000C09C070838B504460D481DF011FF0D4816
:10A1E00054F09EFF0C4854F09BFF00220B4B0C4D8B
:10A1F0001A704FF47A7128460A4A1DF029FF0A485E
:10A200001DF0FEFE21462846BDE8384053F0FEBC56
:10A21000F79C070898E80708B0E80708BEBA0020CE
:10A22000BFBA0020259D0708169D070808B582893A
:10A230000AB9002008BD054980696BF02EFC002892
:10A24000F7D1FDF71BFE0120F4E700BF4D9D070885
:10A2500037B504460A4B0B4D1B884FF47A710093B7
:10A26000094B0A4A1B8828461DF0F2FE2046FFF7DC
:10A27000DDFF2146284603B0BDE8304053F0C6BCA0
:10A2800068A70020BFBA00206AA70020539D0708D6
:10A2900038B5044603F020F90C4A0D4DD2E90032DE
:10A2A000C01A61EB020103F0F1F84FF47A71034632
:10A2B000084A28461DF0CCFE2046FFF7B7FF21468E
:10A2C0002846BDE8384053F0A1BC00BF88140020E8
:10A2D000BFBA002037AA070870B5044603F0FCF89F
:10A2E0000F4E104AD6E90056D2E900325B1B62EBF2
:10A2F0000602181842EB010103F0C8F80A4D0346A4
:10A300004FF47A712846094A1DF0A2FE2046FFF755
:10A310008DFF21462846BDE8704053F077BC00BF52
:10A320008814002078140020BFBA002037AA07083C
:10A3300038B50B4B0446D3E9000103F0A7F8094DEB
:10A3400003464FF47A712846074A1DF081FE2046E5
:10A35000FFF76CFF21462846BDE8384053F056BC55
:10A3600070140020BFBA002037AA07082DE9F74370
:10A37000064603F0B1F8DFF89890DFF89880D9E945
:10A380000032D8E900545B1B62EB0402181842EB60
:10A39000010151F079FF00221A4B51F0ABFF044646
:10A3A0000D4603F099F8D9E90032DFF86CE0164F5A
:10A3B000DEE900CE13EB0C0342EB0E02D8E900CE2F
:10A3C000B3EB0C0362EB0E02181842EB010151F0E3
:10A3D0005BFF0B4602462946204652F0B5F80B4A71
:10A3E000CDE900014FF47A7138461DF031FE304658
:10A3F000FFF71CFF3146384603B0BDE8F04353F089
:10A4000005BC00BF00005940BFBA00205B9D070893
:10A410007814002088140020701400202DE9F04FDB
:10A42000A7B0834603F058F8414D424CD5E90032BD
:10A43000D4E900679B1B62EB0702181842EB01018D
:10A4400003F024F80DF148093B4F02462821484605
:10A450001DF0FEFDD7E9000103F018F80DF1700AB8
:10A460000246282150461DF0F3FD03F035F8D5E9EA
:10A4700000322668DFF8D8809B1B666862EB060214
:10A48000181842EB010151F0FFFE00222B4B51F056
:10A4900031FFCDE9100103F01FF8D5E90032D7E90B
:10A4A00000575B1942EB0702D4E900545B1B62EBD7
:10A4B0000402181842EB010151F0E6FE02460B4679
:10A4C000DDE9100152F040F852F0F6F951F0BAFE11
:10A4D000CDE90C9ACDE90E01194B1B880B93194B52
:10A4E0001B880A93184BD3E90A01CDE90801D3E987
:10A4F0000801CDE90601D3E90601CDE90401D3E95C
:10A500000401CDE902014FF47A71D3E902234046F8
:10A51000CDE900230D4A1DF09BFD5846FFF786FE4E
:10A520005946404653F072FB27B0BDE8F08F00BF9C
:10A530007814002088140020701400200000594076
:10A5400068A700206AA7002008140020619D070862
:10A55000BFBA002084B013B504AC84E80F00084CE7
:10A5600003460192009120464FF47A71054A1DF08E
:10A570006FFD204602B0BDE8104004B0704700BF38
:10A58000BFBA00201F9E070884B010B590B012AC6F
:10A5900084E80F009DF89030164C0F93219B029297
:10A5A0000E93209B01910D931F9B4FF47A710C9396
:10A5B0001E9B20460B931D9B0F4A0A931C9B0993DD
:10A5C0001B9B08931A9B0793199B0693189B059353
:10A5D000169B0493159B0393BDF84A300093BDF876
:10A5E00048301DF035FD204610B0BDE8104004B0E5
:10A5F000704700BFBFBA0020699E070884B010B53D
:10A6000086B008AC84E80F000493BDF926300B4CEB
:10A610000293BDF8243003920193BDF822304FF429
:10A620007A7100932046BDF92030054A1DF010FDD7
:10A63000204606B0BDE8104004B07047BFBA002005
:10A6400027A0070884B013B504AC84E80F00074CBA
:10A650000B4600904FF47A712046054A1DF0F8FC35
:10A66000204602B0BDE8104004B07047BFBA0020D9
:10A67000CAA0070884B010B59CB01EAC84E80F00D7
:10A68000BDF8DE30214C1A93BDF8DC301993BDF8CB
:10A69000DA301893BDF8D8301793359B1693349B56
:10A6A0001593339B1493329B1393319B1293309BDE
:10A6B00011932F9B10932E9B0F932D9B0E932C9BEE
:10A6C0000D932B9B01920C932A9B00910B93299B3A
:10A6D0004FF47A710A93289B0D4A0993279B08939C
:10A6E000269B0793259B0693249B0593239B04930A
:10A6F000229B0393219B0293034620461DF0A8FC56
:10A7000020461CB0BDE8104004B07047BFBA00201E
:10A7100010A1070810B58A8904460B460AB9002023
:10A7200010BD054998696BF0B8F90028F7D12046AB
:10A730005DF0D9FB0120F3E74D9D070830B59BB0D4
:10A740000E4C0546214600205DF046FB0C4B04F103
:10A7500010011860642268466BF022FA94E80F003A
:10A76000FFF7F8FE29460020FFF7D4FF29460548E9
:10A770001BB0BDE8304053F049BA00BFA023002011
:10A7800014240020BFBA002030B59BB00E4C054603
:10A79000214601205DF020FB0C4B04F110011860F4
:10A7A000642268466BF0FCF994E80F00FFF7ECFEBA
:10A7B00029460120FFF7AEFF294605481BB0BDE83A
:10A7C000304053F023BA00BFA023002014240020FF
:10A7D000BFBA002030B59BB00E4C05462146022082
:10A7E0005DF0FAFA0C4B04F110011860642268461F
:10A7F0006BF0D6F994E80F00FFF700FF294602201E
:10A80000FFF788FF294605481BB0BDE8304053F0EC
:10A81000FDB900BFA023002014240020BFBA0020EF
:10A8200030B59BB00E4C0546214603205DF0D4FAAE
:10A830000C4B04F110011860642268466BF0B0F90B
:10A8400094E80F00FFF7FEFE29460320FFF762FFA2
:10A85000294605481BB0BDE8304053F0D7B900BFCA
:10A86000A023002014240020BFBA002030B59BB0E4
:10A870000E4C0546214604205DF0AEFA0C4B04F167
:10A8800010011860642268466BF08AF994E80F00A2
:10A89000FFF7F0FE29460420FFF73CFF2946054854
:10A8A0001BB0BDE8304053F0B1B900BFA023002079
:10A8B00014240020BFBA002070B50D4E0446314666
:10A8C00005205DF089FA0B4D0B4B4FF47A7118603F
:10A8D0000A4A336828461DF0BBFB21460520FFF7D6
:10A8E00019FF21462846BDE8704053F08FB900BFDC
:10A8F000A0230020BFBA0020142400204AA4070887
:10A900002DE9F04389B001271422002103A86BF040
:10A91000A0F8A04BA04DA14C0093A14B6846019517
:10A92000029404938DF80C7005F09AFD30B140F25A
:10A9300013519C4B9C4A9D4804F020F99C4BDFF836
:10A94000049300939B4B6846CDE9019404938DF8E2
:10A950000C7005F085FD20B140F21B51914B924ADD
:10A96000E9E7954B6846CDE90039944B029404938E
:10A970008DF80C7005F074FD20B140F22351894B25
:10A98000894AD8E78E4B684600938E4B8DF80C7041
:10A99000CDE901348C4B049305F062FD20B140F207
:10A9A0002B51804B804AC6E7884B894E0093894BD8
:10A9B0006846CDE9016404938DF80C7005F050FDF4
:10A9C00020B140F23351774B774AB4E7824B684667
:10A9D000CDE90036814B029404938DF80C7005F09C
:10A9E0003FFD20B140F23B516E4B6F4AA3E77C4BD9
:10A9F0006846CDE900367B4B029404938DF80C70C9
:10AA000005F02EFD20B140F24351664B664A92E7B5
:10AA1000754B6846CDE90035744B029404938DF86C
:10AA20000C7005F01DFD20B140F24B515D4B5E4AAC
:10AA300081E76F4B6846CDE900366E4B0294049374
:10AA40008DF80C7005F00CFD20B140F25351554BC0
:10AA5000554A70E7684BDFF8F0810093674B684612
:10AA6000CDE9018404938DF80C7005F0F9FC20B158
:10AA700040F25B514B4B4C4A5DE70127604B684607
:10AA8000CDE900395F4B029404938DF80C7005F00A
:10AA9000E7FC20B140F26351424B434A4BE75A4B2B
:10AAA0006846CDE90035594B029404938DF80C703B
:10AAB00005F0D6FC20B140F26B513A4B3A4A3AE7E6
:10AAC000534B6846CDE90035524B029404938DF800
:10AAD0000C7005F0C5FC20B140F27351314B324A85
:10AAE00029E74D4B6846CDE900354C4B0294049361
:10AAF0008DF80C7005F0B4FC20B140F27B51294B6D
:10AB0000294A18E7464B6846CDE90038454B029480
:10AB100004938DF80C7005F0A3FC20B140F2845131
:10AB2000204B214A07E7404B684600933F4B8DF886
:10AB30000C70CDE901343E4B049305F091FC20B13B
:10AB400040F28C51174B184AF5E63A4B6846CDE96E
:10AB50000038394B029404938DF80C7005F080FC9A
:10AB600020B140F294510F4B0F4AE4E6334BDFF82B
:10AB7000DC900093324B6846CDE9019404938DF844
:10AB80000C7005F06DFC002862D040F29C51054B22
:10AB9000054AD0E66DA4070877A407087CA4070837
:10ABA0003D9A000881A4070893B60708C1A40708C6
:10ABB000CFA40708C19B0008E0A40708ED9B00088C
:10ABC000EBA40708F7A40708199C0008FBA40708D2
:10ABD0007A740908459C00080DA50708719C0008B7
:10ABE0001FA50708299D00082DA50708D59A00086C
:10ABF00039A507084D9B000846A50708559D000884
:10AC00005BA50708859D00086AA50708B59D000893
:10AC10007EA50708E19D00088EA507080D9E000887
:10AC20009FA5070891A20008B1A50708D1A50708AC
:10AC3000699E0008D7A5070831A30008FAA50708F0
:10AC400051A20008DCA4070856A5070816A60708A5
:10AC5000984B6846CDE90038974B029404938DF8E1
:10AC60000C7005F0FDFB20B140F2A451934B944AC7
:10AC700061E6944B68460093934B8DF80C70CDE9D8
:10AC80000134924B049305F0EBFB20B140F2AC5140
:10AC90008A4B8B4A4FE601278D4B6846CDE900363B
:10ACA0008C4B029404938DF80C7005F0D9FB20B105
:10ACB00040F2B551814B824A3DE6874B6846CDE96B
:10ACC0000035864B029404938DF80C7005F0C8FB98
:10ACD00020B14FF4B861794B794A2CE6804B684635
:10ACE000CDE900357F4B8DF80C7002937E4B0493B9
:10ACF00005F0B6FB20B140F2C951704B704A1AE61C
:10AD00007A4B6846CDE90035794B8DF80C7002938B
:10AD1000784B049305F0A4FB20B140F2D151674B6E
:10AD2000674A08E6744B6846CDE90035734B8DF8E9
:10AD30000C700293724B049305F092FB20B140F229
:10AD4000D9515E4B5E4AF6E56E4B6846CDE900355B
:10AD50006D4B8DF80C7002936C4B049305F080FBE7
:10AD600020B140F2E151554B554AE4E5684B684645
:10AD7000CDE90035674B8DF80C700293664B049358
:10AD800005F06EFB20B140F2E9514C4B4C4AD2E544
:10AD9000624B6846CDE90035614B8DF80C7002932B
:10ADA000604B049305F05CFB20B140F2F151434B42
:10ADB000434AC0E55C4B5D4C00935D4B6846019394
:10ADC0005C4B029404938DF80C7005F049FB20B1A4
:10ADD00040F2FA51394B3A4AADE5574B6846009379
:10ADE000564B8DF80C70CDE90134554B049305F0AA
:10ADF00037FB20B140F20261304B314A9BE50294AF
:10AE00000124504B6846CDE900394F4B8DF80C407A
:10AE1000049305F025FB20B140F20A61274B284A34
:10AE200089E54A4B6846CDE90036494B8DF80C4020
:10AE30000293484B049305F013FB20B140F21361D9
:10AE40001E4B1F4A77E5444B444DCDE90036444B39
:10AE50006846029504938DF80C4005F001FB20B183
:10AE600040F21B61154B164A65E53E4B6846CDE93D
:10AE700000363D4B029504938DF80C4005F0F0FA36
:10AE800020B140F223610D4B0D4A54E5374B384D4C
:10AE9000CDE90036374B6846029504938DF80C4097
:10AEA00005F0DEFA002867D040F22E61034B044A19
:10AEB00041E500BF1AA60708D9A2000881A4070827
:10AEC00093B607083AA6070857A607086DA3000817
:10AED0005DA60708C19E000866A607081DA4000815
:10AEE0007AA60708ECAD08083DA7000890A6070859
:10AEF000A2A6070889A70008A6A60708B8A60708FB
:10AF0000D5A70008BDA60708CFA6070821A80008F6
:10AF1000D5A60708F94A09086DA80008EFA6070892
:10AF2000BFE70808B9A800080CA7070820A707086A
:10AF3000B7BF0708ED9E000829A7070828D0080812
:10AF4000459F00083FA70708E99F000853A7070887
:10AF500063A707087D9B00086CA707087CA7070864
:10AF600081A0000881A70708D9A0000890A70708BA
:10AF7000A6A7070805A100086E4B6846CDE9003674
:10AF80006D4B029504938DF80C4005F069FA20B1E1
:10AF900040F23661694B6A4ACDE46A4B6846CDE9B6
:10AFA0000036694B029504938DF80C4005F058FA71
:10AFB00020B140F23E61614B614ABCE4634B644E98
:10AFC000644D0093644B68460196029504938DF896
:10AFD0000C4005F045FA20B14FF4C961574B584A6F
:10AFE000A9E45E4B6846CDE900365D4B02950493BB
:10AFF0008DF80C4005F034FA20B140F251614F4B0E
:10B000004F4A98E4574B6846CDE90036564B0295B7
:10B0100004938DF80C4005F023FA20B140F25961F9
:10B02000464B474A87E40124504B6846CDE9003639
:10B030004F4B029504938DF80C4005F011FA20B1A6
:10B0400040F261613D4B3E4A75E44A4B6846CDE9AA
:10B050000036494B029504938DF80C4005F000FA38
:10B0600020B140F26961354B354A64E4434B444FAB
:10B07000DFF838810093434B68460197CDF808808C
:10B0800004938DF80C4005F0EBF920B140F27161AA
:10B090002A4B2B4A4FE43C4B6846CDE900373B4BEB
:10B0A000CDF8088004938DF80C4005F0D9F920B153
:10B0B00040F27961214B224A3DE4354B6846CDE9A7
:10B0C0000036344B029504938DF80C4005F0C8F916
:10B0D00020B140F28161194B194A2CE42E4B68468D
:10B0E000CDE900372D4B029504938DF80C4005F007
:10B0F000B7F920B140F28961104B114A1BE4284B8B
:10B100006846CDE90037274B029504938DF80C4033
:10B1100005F0A6F920B140F29161084B084A0AE413
:10B1200032222F2120481CF06BFF2F2009B0BDE8F0
:10B13000F08300BFB4A707082DA1000881A4070869
:10B1400093B60708C6A7070855A10008DAA707089D
:10B1500077A40708E3A7070875B60008EAA7070859
:10B1600081B40008F2A70708C1B20008FBA70708CE
:10B17000EDB5000804A807083DB3000810A80708AB
:10B180007A7409087DA100081FA80708D5A1000846
:10B1900027A807088DB7000835A8070841BB000895
:10B1A0004CA8070889BC000861A8070817A8070869
:10B1B0002DE9F04FA9B04FF000083B481CF020FFEC
:10B1C00078223A490AA86AF0EBFC1822002104A868
:10B1D0006AF03FFC47464FF0000BDFF8DC90DFF8E9
:10B1E000DCA00AAD04AE2C7C2888611C03F05CF95D
:10B1F00000284DD0002C45D0002003F00FF9044664
:10B20000012003F00BF944EA004307EE903A95ED74
:10B21000037AF8EE677A67EE877AC6ED007A17EE62
:10B22000900A51F00FF80B46A968024600910137C9
:10B2300050466968FFB21CF0E3FE00234CF24F3227
:10B240000393039B93422ADD08F10108B8F1060F2E
:10B2500005F1140506F10406C5D1424639461448E5
:10B260001CF0CEFE134B049A1A60059A5A60089A95
:10B270009A60069ADA60079A1A61099A5A6129B0A7
:10B28000BDE8F08F204603F0C9F807EE900ABEE74C
:10B2900048466968C6F800B01CF0B2FECDE7039BD3
:10B2A00001330393CDE700BF98A80708ACB60708A1
:10B2B000DBA8070888230020C8A80708B6A8070845
:10B2C0002DE9F341DFF87080054616481CF098FE22
:10B2D000FFF76EFFD8F8040050F0B4FF124FCDE92D
:10B2E0000001124A4FF47A7138461CF0B1FE02F0A8
:10B2F000F3F80F4AD2E90046041BD8F8040061EBCA
:10B30000060650F09FFF2246CDE90001334609486A
:10B310001CF076FE2946384602B0BDE8F04152F0F6
:10B3200075BC00BF09A90708BFBA002029A90708F2
:10B33000A814002040A907088823002070B58CB00D
:10B340001F4C06461F481CF05BFEFFF731FF60698B
:10B3500050F078FFCDE90A01206950F073FFCDE984
:10B360000801E06850F06EFFCDE90601A06850F0DA
:10B3700069FFCDE90401606850F064FFCDE9020186
:10B38000206850F05FFF104DCDE900010F4A4FF4E7
:10B390007A7128461CF05CFE02F09EF80C4CD4E951
:10B3A0000023821A61EB030300950A481CF028FE73
:10B3B000314628460CB0BDE8704052F027BC00BFB3
:10B3C0008823002076A90708BFBA002099A907089A
:10B3D000A814002013AA070813B5204C237A7BB3C6
:10B3E0001F4840216A46006801AB53F091FC0146BA
:10B3F00040BBDDED017A9FED1B7AF8EEE77AC7EEF0
:10B40000876ADDED007AF8EE677AC4ED006AC7EE70
:10B41000876AC4ED016A02F05FF8134BC3E90001CB
:10B42000206850F00FFF02460B4610481CF0E8FD64
:10B43000606850F007FF02460B460D481CF0E0FD27
:10B4400002B010BD0B481CF0DBFD0B481CF0D8FD12
:10B4500000232372094B23606360F1E77C23002003
:10B46000181F012000007A44A01400203AAA0708FF
:10B4700051AA070869AA07089FAA070800C079C44B
:10B48000F0B52DED028B85B0264C054626481CF004
:10B49000B7FDFFF7A1FF237A43B194ED008ADFEDFA
:10B4A000237AB4EE678AF1EE10FA11D14FF47A7173
:10B4B0001F4A20481CF0CCFD1F481CF0A1FD294666
:10B4C0001C4805B0BDEC028BBDE8F04052F09EBBBD
:10B4D000606850F0B7FECDE9020118EE100A50F096
:10B4E000B1FE164ACDE900014FF47A7111481CF003
:10B4F000AFFD01F0F1FF124AD2E90076C71B606888
:10B5000061EB060650F09EFECDE90201206850F086
:10B5100099FE3A46CDE9000133460A481CF070FD19
:10B52000CDE700BF7C230020DBAA070800C079C458
:10B53000FAAA0708BFBA002063AB07089DAB07084B
:10B54000A0140020CCAB070873B5204C237A8BB134
:10B550001F4E6946306853F0C0FC054660B1014695
:10B560001C481CF04DFD1C481CF04AFD0023C4E99A
:10B570000033237202B070BD01A9306853F0C8FCDB
:10B58000014648B115481CF03BFD13481CF038FD3E
:10B59000C4E900552572EDE7DDED007AFCEEE77AAF
:10B5A000C4ED007ADDED017AFCEEE77AC4ED017AB4
:10B5B00001F092FF0A4BC3E90001216809481CF021
:10B5C0001FFD616808481CF01BFDD3E770230020B5
:10B5D000181F012009AC07089FAA070843AC0708F9
:10B5E000981400207FAC07088DAC070873B5194C80
:10B5F000054619481CF004FDFFF7A6FF237A7BB926
:10B600004FF47A71154A16481CF022FD15481CF0BB
:10B61000F7FC2946124802B0BDE8704052F0F6BA75
:10B620006368114A009323684FF47A710C481CF048
:10B630000FFD01F051FF0D4ED6E90023821A60681C
:10B6400061EB030301902068009009481CF0D8FCCE
:10B65000DFE700BF702300209DAC0708BDAC0708E2
:10B66000BFBA00201DAD070859AD07089814002087
:10B670007BAD07082DE9F0432DED028B8FB0364CE2
:10B68000074636481CF0BCFCFFF792FDFFF7A4FE0E
:10B69000FFF75AFF94ED018AB5EEC08A304B314A6C
:10B6A0001878314B314D00280CBF11461946F1EE88
:10B6B00010FAD8BF1346CDE90B132D4B2D4E1B6846
:10B6C0000A93686850F0BEFDCDE90801286850F083
:10B6D000B9FDCDE90601E06850F0B4FDCDE9040103
:10B6E000206950F0AFFDCDE9020118EE100A50F0CC
:10B6F000A9FD214ACDE900014FF47A7130461CF0D2
:10B70000A7FC01F0E9FE1D4AD2E90042041B61EBEF
:10B71000020801F0E1FE1A4AD2E90052451B61EB32
:10B72000020901F0D9FE174A0496D2E90032C31A81
:10B7300061EB0201CDE9023122464346CDE90059D1
:10B7400011481CF05DFC394630460FB0BDEC028B51
:10B75000BDE8F04352F05ABA88230020BFAD070875
:10B76000BEBA0020BBAD0708A20908087C23002050
:10B7700070230020BFBA0020DFAD0708A814002006
:10B78000A01400209814002073AE07082DE9F04F94
:10B790002DED028BCFB015909C481CF031FCFFF7CB
:10B7A00007FDFFF719FEFFF7CFFE1EA85CF084FC33
:10B7B000002840F01D81BDF87880954B002124229F
:10B7C0002EA82D936AF045F901201AA95CF08CFA95
:10B7D00018B92DA91AA806F071FD01F07DFE8D4D56
:10B7E0008D4F2C68D7E900321B196C6842EB0402BC
:10B7F0008A4C26689B1B666862EB06021B1842EBAC
:10B800000102134300F0F78001F066FED7E9003231
:10B8100026689B1B666862EB0602181842EB010162
:10B8200051F062F9DFED7E7A08EE100A28EE278AE1
:10B8300001F052FED7E90032D5E900679B1942EBCF
:10B84000070CD4E900279B1A6CEB0707181847EB85
:10B85000010151F049F907EE900AC8EE278A23AAA0
:10B860001746704B03F1080E944618685968083360
:10B87000ACE8030073456246F6D118681B79CCF832
:10B8800000008CF804300023CDF899302793D4E9D8
:10B89000001351EA030200F0B180634AD2E90002CA
:10B8A00088429A4180F0AA8001F016FED4E9003265
:10B8B000C01A61EB020101F0E9FD142103465B4A65
:10B8C00038461CF0C5FBD5E9000101F0DFFD0DF1A4
:10B8D000A00903461421554A48461CF0B9FB002034
:10B8E00037AB18AA0DF15F018DF85F00FDF74EFF31
:10B8F0000446002800F087809DF821A19DF8204192
:10B90000AAF1AE0AAE3C0FFA8AFA24B2DFF854B1BB
:10B91000474B9BED018AB5EEC08A1878454A464BE5
:10B92000464D00280CBF11461946F1EE10FAD8BF5B
:10B930001346CDE91213DBF8100050F083FCCDE97B
:10B940001001DBF80C0050F07DFCCDE90E0118EE83
:10B95000100A50F077FCCDE90C0118EE900ACDE901
:10B960000879CDE90AA450F06DFC2DABCDE9048334
:10B97000CDE90601324C206850F064FCCDE90201AB
:10B98000606850F05FFCCDE900012E4B2E4A1B6829
:10B990004FF47A7128461CF05BFB01F09DFD2B4AA9
:10B9A000D2E90042041B61EB020801F095FD284A30
:10B9B000D2E90072C71B61EB020901F08DFD254A37
:10B9C0000495D2E90032C01A61EB0201CDE902010F
:10B9D00022464346CDE900791F481CF011FB28465A
:10B9E000159952F013F94FB0BDEC028BBDE8F08F02
:10B9F0004FF00008E1E6DFED198A30E738461849D4
:10BA00006AF0C6F85FE7824680E700BFB9AE070874
:10BA10004E2F41007014002078140020881400205C
:10BA20000000C84224B707088014002037AA07087E
:10BA3000BEBA0020BBAD0708A2090808BFBA0020A3
:10BA40007C23002070230020DEAE0708A81400200D
:10BA5000A01400209814002073AE07080000000016
:10BA6000195609088823002030B52DED028B85B0CA
:10BA700029482A4D1CF0C4FA642012F08DFE4021A2
:10BA8000286853F08FF9264C014660B125481CF018
:10BA9000B7FA00232372244805B0BDEC028BBDE841
:10BAA00030401CF0ADBA21481CF0AAFA01232372E1
:10BAB000002300200021236063601D4B02AAC3E91C
:10BAC00000014021286803AB53F022F90146F8B980
:10BAD000DDED037A9FED178AF8EEE77AC7EE887AF4
