S01400005048595F434F41505F434F44452E733337F3
S3150800000000040020698E0008B39F0508CF860508FE
S31508000010B39F0508B39F0508B39F0508B39F050856
S31508000020B39F0508B39F0508B39F0508B39F050846
S31508000030B39F0508B39F0508C9E90008B39F0508DB
S31508000040B39F0508B39F0508B39F0508B39F050826
S31508000050B39F0508B39F0508B39F0508B39F050816
S31508000060B39F0508B39F0508B39F0508C16F00082D
S31508000070B16F0008E16F0008D16F0008B39F05084B
S31508000080B39F0508B39F0508B39F0508B39F0508E6
S31508000090B39F0508B39F050845980008B39F050850
S315080000A0B39F0508B39F0508BD92000895920008FE
S315080000B0B39F0508B39F0508856302087D6E02088D
S315080000C06D5C0608695C0608F5650208835C060827
S315080000D0715C06084D6E0208755C0608BD6E02085E
S315080000E0A96F0208B39F0508B39F0508B39F0508C3
S315080000F0B39F0508B39F0508B39F0508B39F050876
S31508000100B39F0508B39F0508B39F0508B39F050865
S31508000110B39F0508B39F0508B39F0508B39F050855
S31508000120B39F0508B39F0508B39F0508B39F050845
S31508000130B39F0508B39F0508B39F0508B39F050835
S31508000140B39F0508B39F0508B39F0508B5F10008D6
S31508000150B39F0508B39F0508B37B0708D146020875
S31508000160B39F0508B39F05085D5C0608635C06082F
S31108000170B39F0508B39F0508B39F050858
S3150800017C194A5AB3194BDB6913F0040F29D110B479
S3150800018C0AE003EA00048C4210D0013AB2B1134BD0
S3150800019CDB6913F0040F14D110F0010FF1D1104CD8
S315080001AC1C40002CEDD06FF001000CE00C4A1A40F4
S315080001BC0AB9002007E06FF0010004E06FF00200B6
S315080001CC01E04FF0FF305DF8044B70476FF002000A
S315080001DC70474FF0FF307047809698000000035028
S315080001EC020001000D4BDB6913F4803F12D170B588
S315080001FC0A4B03F580560124F46003F500552C646C
S3150800020C4FF480721A6100212046FFF7B1FF34645F
S3150800021CEC6070BD6FF00100704700BF0000035022
S3150800022C38B50446C0F30C03FBB9154B4FF48032B2
S3150800023C9A6603F51C33DD69154041F67132DA63AB
S3150800024C03F580520121D1605C6102221A610021FA
S3150800025C2120FFF78DFF70B10A4B0122DA601DB120
S3150800026CA3F500530022DA6338BD40F21A2106487A
S3150800027C00F096F8D9E700212120FFF779FFEBE784
S3150800028C0090005000200350F0E0070838B51A4BD0
S3150800029C5861DB6913F0040F2AD10C4654F8041B79
S315080002AC154B9961151F06E0214651F8042B124B84
S315080002BC9A61043D0C465DB108210846FFF758FFC4
S315080002CC03460028F0D00C4A04211161184638BDA3
S315080002DC094B04221A6100212120FFF749FF034626
S315080002EC0028F3D100212120FFF742FF0346EDE752
S315080002FC4FF0FF33EAE700BF000003502DE9F04149
S3150800030C0F461646054610F0030F14D116F0030FC8
S3150800031C17D1204B4FF480329A6603F51C33DA69F1
S3150800032C02F4803841F67132DA6303F58053012200
S3150800033CDA6000230EE040F26621174800F030F828
S3150800034CE4E74FF41A71144800F02AF8E1E725445B
S3150800035C2744361B8EB105F5005424F4FF5424F0BB
S3150800036C1F04641BB44228BF344622463946284625
S3150800037CFFF78CFF03460028E9D0084A0121D16013
S3150800038CB8F1000F03D0A2F500520021D16318462C
S3150800039CBDE8F08100900050F0E0070800200350FB
S30D080003AC5FF800F0C99F05087F
S315080003C0013800D0FCE770472DE9F04180460F461A
S315080003D01546106051604FF47A72002356F074FD8A
S315080003E006460C461FA3D3E900234046394656F075
S315080003F06BFD83B22B81184A02FB03F3F61A64F1EC
S3150800040000044FF4616200233046214656F05CFD35
S31508000410C0B2A8724FF4616303FB00F0301A64F1AE
S3150800042000040022031915D213440C4AA2FB031236
S31508000430D208C2EB02129B1AC31A094AA3FB02325C
S31508000440C3F38703EB72C3EB0313A0EB8300287394
S31508000450BDE8F0810122E7E7805101008988888894
S31508000460EFEEEEEE005C260500000000000000003E
S315080004702DE9F04F2DED028B93B082460C4693463C
S315080004801D4657EC106B8DED080B32463B46304641
S31508000490394656F0F1FA002800F009814FF0FF328C
S315080004A0B14B3046394656F00FFB002840F0FF8026
S315080004B04FF0FF326FF480133046394656F0E6FAAD
S315080004C0002840F0F48000220023DDE90867304662
S315080004D0394656F0DBFA002840F0FC809DED087B93
S315080004E08DED067B209B13F48063119301D10623BF
S315080004F01E93DDE906010246C1F30A50C1F3130350
S31508000500904643F07F5949F44019A0F2FF3055F060
S31508000510E1FF83A3D3E9002356F046F882A3D3E983
S31508000520002355F08BFE06460F4600228F4B4046A9
S31508000530494655F081FE7EA3D3E9002356F034F8E8
S3150800054002460B463046394655F078FE56F0C6FA4E
S31508000550064655F0BFFF8046894677A3D3E90023B0
S3150800056056F022F80022824B55F068FE56F0B6FA8D
S31508000570074673A3D3E900234046494656F014F8C4
S3150800058080468946384655F0A5FF6FA3D3E9002370
S3150800059056F00AF802460B464046494655F04CFEC8
S315080005A08046894602460B4655F0FEFFCDE90C010A
S315080005B007F2FF3700210022CDE90A123B050B930B
S315080005C000230A9342464B464046494655F036FEB6
S315080005D0CDE90E0142464B4600204FF0804155F0CA
S315080005E02BFE804689460022624BDDE90C0156F057
S315080005F005F90022604B55F021FE02460B46DDE95F
S315080006000C0156F0FBF800225C4B55F017FE02462B
S315080006100B46DDE90C0156F0F1F802460B4640465A
S31508000620494655F00BFE02460B46DDE90E0156F02B
S31508000630E5F80022524B55F001FEDDE90A2355F094
S31508000640B3FF8046894649EC188BDDE9062356F048
S315080006503BFA40B1013E0022474B4046494656F018
S31508000660CDF841EC180B06F16303C62B3BD80427DB
S31508000670209B13F4006F40D035A3D3E90023DDE9AE
S3150800068006894046494656F015FA00283BD032A35B
S31508000690D3E900234046494656F0F8F9002832D0F7
S315080006A01E9BB34221DD9E1B731E1E931FE0209BDB
S315080006B002931F9B01931E9B00939DED080B2B46EF
S315080006C05A462146504600F0CBF813B0BDEC028BD3
S315080006D0BDE8F08F9FED227B8DED067B069607F130
S315080006E000430793FEE60527C2E700231E93209BD7
S315080006F043F48063209300273E461F9B9F4241D2C6
S31508000700A3EB070840E01E9B002BF6D0119B002B9D
S31508000710F3D01E9B013B1E93EFE700BFAFF30080AB
S31508000720FB799F501344D33FB3C8608B288AC63FD2
S3150800073061436F63A787D23F71A379094F930A4034
S315080007401655B5BBB16B0240EF39FAFE422EE63FAD
S315080007502D431CEBE2361A3F0000000080842E4130
S315080007600000000000000000FFFFEF7F0000F83FD8
S315080007700000E03F00002C40000024400000184024
S315080007800000F03F4FF00008209B13F0020902D04A
S315080007900FB14FF000083EB153EC182BDDE9060106
S315080007A056F02CF8CDE9060100220023DDE9080100
S315080007B056F06CF900283BD1209B23F40063029382
S315080007C0CDF804801E9B00939DED060B2B465A46DA
S315080007D02146504600F044F8002F3FF476AF209BA0
S315080007E013F0200F2CD04FF0450C00F101082B46D2
S315080007F0024621466046D04786EAE672A2EBE672D2
S3150800080005230593013F0497002303930A230293C4
S31508000810F30F019300922B4642462146504664F058
S31508000820E2FBB9F1000F3FF450AF02461F9F10E0FC
S31508000830DDE90601024601F10043CDE90623BBE7DF
S315080008404FF0650CD1E7561C2B4621462020D04791
S315080008503246A2EB0B03BB42F5D3104635E700BF81
S315080008602DE9F04F2DED028B93B005900891924635
S315080008709B4659EC108B1E9D42464B4640464946C0
S3150800088056F0FAF8002840D04FF0FF326FF4801384
S315080008904046494656F0FAF8002845D14FF0FF324F
S315080008A0B14B4046494656F00FF900284BD1AAA34A
S315080008B0D3E900234046494656F006F900285AD19E
S315080008C0A7A3D3E900234046494656F0DFF8002897
S315080008D051D1002200234046494656F0D7F8002851
S315080008E057D100230993209B13F4806F5CD0002412
S315080008F01F2C5BD8092D59D904F148036B443022C3
S3150800090003F8202C013D0134F2E7209B03931F9B3B
S31508000910029303230193954B00935B46524608992D
S31508000920059864F086FA10E1209B03931F9B0293B7
S31508000930042301938E4B00935B465246089905980B
S3150800094064F077FA01E1209B13F004030FD0894A7B
S315080009507BB10423209903911F9902910193009278
S315080009605B4652460899059864F063FAEDE0824AB8
S31508000970EEE70323EEE7209B02931F9B0193009566
S3150800098049EC108B5B46524608990598FFF770FDAF
S31508000990DBE042464B460020002155F04DFC8046E0
S315080009A08946012309939EE70625A0E7404649465E
S315080009B056F094F8064655F08DFD02460B4640461D
S315080009C0494655F039FC6D4B03EBC50393ED008B97
S315080009D053EC182B55F0E8FD02460B46CDE90623E5
S315080009E056F0A4F8074655F065FD02460B46DDE9C4
S315080009F0060155F021FC02460B46CDE906230022E6
S31508000A005F4B56F061F850B30137384655F052FD42
S31508000A1002460B4651EC180B56F042F808B101365F
S31508000A20002755BB304655F055FD02460B46404655
S31508000A30494655F001FC804689460022504B56F03F
S31508000A4025F838B100224E4B4046494656F03CF848
S31508000A50002842D016F0010F3FD001363DE00022B3
S31508000A60474BDDE9060156F011F80028D9D117B130
S31508000A7017F0010FD5D00137D3E71F2C17D8013D42
S31508000A80404BA3FB0723DB08194603EB8303A7EBBD
S31508000A904303621C303304F148000DEB000404F8EC
S31508000AA0203C092F02D90F461446E6E714461F2CA8
S31508000AB00AD86B1E45B104F148026A44302102F88F
S31508000AC0201C1D460134F2E71F2C06D804F1480302
S31508000AD06B442E2203F8202C01341F2C17D82A4ADF
S31508000AE082FB0632F317C3EBA2031A4603EB830312
S31508000AF0A6EB4303611C303304F148000DEB0004F8
S31508000B0004F8203C16460AB10C46E6E70C46209B3C
S31508000B1003F00303012B39D01F2C09D8099B002B9E
S31508000B2051D004F148036B442D2203F8202C0134DC
S31508000B30209B03931F9B029301940AAB00935B4689
S31508000B4052460899059864F074F913B0BDEC028B07
S31508000B50BDE8F08FAFF300800000000065CDCD4101
S31508000B600000000065CDCDC1FFFFEF7F3803080800
S31508000B703C0308082C030808340308084803080837
S31508000B800000E03FCDCCCCCC676666661F9BB3B150
S31508000B90099B1BB9209B13F00C0F12D01F9B013B1E
S31508000BA01F93194606E004F148036B44302203F804
S31508000BB0202C01348C42AFD21F2CF4D9ACE71F99F4
S31508000BC0F8E71F99F6E7209B13F0040F07D004F106
S31508000BD048036B442B2203F8202C0134A8E7209BFA
S31508000BE013F0080FA4D004F148036B44202203F83D
S31508000BF0202C01349CE700BFF0B5934C9FB02288A7
S31508000C00A3780021ADF80C2013A82C228DF80E30FD
S31508000C1073F06FFD4FF00233159340F20B130AADD4
S31508000C200434ADF874300FCC0FC50FCC0FC523684C
S31508000C30864A2B60864B874D06930023CDE90733FA
S31508000C4009934FF0FF33284683492B6026F0B8FAFC
S31508000C500446002853D12868431C06D140F2A44113
S31508000C607E4B7F4A7F4856F0BFFA03A926F0E6FA7C
S31508000C700446002843D1286864F0D2FB7A4E7B4F9D
S31508000C803070286864F0CEFB3870286864F0CCFBB6
S31508000C90774B78491870286826F0CEFD0446002858
S31508000CA02DD13378744E4BB974482AF08DFF3060D5
S31508000CB0D0B940F2DC41724B694AD3E771482AF051
S31508000CC083FF30600028EFD0C189286826F018FD18
S31508000CD03368214658682AF0B1FF044678B9674850
S31508000CE02AF072FF306090B1C189286826F008FDA5
S31508000CF03368042158682AF0A1FF044638B1234610
S31508000D0022210220604A65F023FB1FB0F0BD0CF0DB
S31508000D10D7FB5E4BCDE9040104AAA3F1080112F83A
S31508000D20010B03F8010D9942F9D13B78002B46D106
S31508000D305749286865F0A0F804460028DFD15549C8
S31508000D40286865F083F804460028D8D152492868EF
S31508000D5026F076FB04460028D1D139A3D3E900232F
S31508000D60CDE90023286865F089F804460028C6D12D
S31508000D704A4A4B49286865F0E1F804460028BED17E
S31508000D80484A4949286865F0DDF804460028B6D17E
S31508000D900121286826F070FA04460028AFD1A0235E
S31508000DA0424A06A8D380424A13600CF09BFC414B8A
S31508000DB0186088B940F225513F4B294A52E71C2250
S31508000DC0002116A873F095FC286813A926F030FFB1
S31508000DD004460028ACD092E72246012108200CF0F0
S31508000DE05DFE364B186020B94FF4A561344B1C4A9A
S31508000DF038E72246012108200CF050FE314B1860D6
S31508000E0020B940F22B51304B154A2BE72F4A30496F
S31508000E1030482CF009FD2F4848F0B4FE00212E4832
S31508000E200AAA0CF03DFD2D4B186000287FF46DAF23
S31508000E3040F237512A4B0A4A14E700BFAFF3008045
S31508000E40C88D01C103400000E880080829B90208D6
S31508000E5003760808DC8E00203CAB002018760808CC
S31508000E60E97F0808D2730808979900209699002008
S31508000E709599002007001100987E002059780608E9
S31508000E803F76080843780608CA760808A09900201D
S31508000E90E6800808E4800808E08E0020B6AC00204A
S31508000EA0F8080020B8AC0020D47E00207CAB0020D7
S31508000EB0488F00205C8F002057760808588F00203E
S31508000EC073760808548F002090760808B0760808CC
S31508000ED0E5BD0208FC8E00204DCF0208608F002079
S31508000EE0B9760808000000002DE9F34705465A4C74
S31508000EF022211020594A65F02BFA14222946204649
S31508000F0073F06AFCA27B564BDFF8A0A11A70637CCB
S31508000F1000228AF800300023CDE90023DFF890810B
S31508000F2000224FF40073D8F8000064F0A7FF0646C5
S31508000F3020B10126304602B0BDE8F087494B4A4F3A
S31508000F401B787BB949482AF03FFE04463C60FCB949
S31508000F50474A2221022065F0FBF90122454B21264A
S31508000F601A70E7E7444B454C1A88454BD8F80000F9
S31508000F7053F82210434A8B6821603B6026F04AFAF0
S31508000F802268414B946824221B8802FB0344DDE750
S31508000F903E4B1C60394BD3F80090B9F1000F07D0CF
S31508000FA000232420D9F80C108B4208D100251AE01A
S31508000FB040F2ED71364B374A374856F015F9D9F8ED
S31508000FC0085000FB0355EA695278120912F00E0F11
S31508000FD02BD0052A29D8314B0021EA89B3F900001C
S31508000FE03D602AF063FE1AA3D3E90023CDE9002366
S31508000FF0D8F8000064F042FFD9F80820AA4207D0C2
S31508001000274B3A600421D289B3F900002AF04EFE34
S31508001010244BE2893C601A80234B1B783BB92BF0A2
S315080010204DFE01202BF0D8FA84E70133BCE79AF885
S3150800103000301B0913F00E0FF1D101220721D8F851
S31508001040000065F049F80028E9D072E7AFF30080A0
S31508001050C88D01C1034200009C7E00209F7A0808C3
S315080010608C99002090990020987E002025BD0208C2
S31508001070BB7A08088E990020F89800208C7E0020FC
S315080010808CA5002035B90208F6980020947E002029
S31508001090F77A0808A77E0808D2730808BAAC0020B1
S315080010A0BCAC0020B0AC0020969900208B9900209B
S315080010B0DC8E0020000000002DE9F84390F8E86176
S315080010C0054644683EB902202721414A65F040F9A1
S315080010D03046BDE8F88394F90130002B1ADA731EFE
S315080010E05BB2637000EB431393F825302370A06856
S315080010F055F002FA32A3D3E900238046894694F9CB
S31508001100017055F0E1FCF8B1002F1DDD013F002309
S31508001110677024E09E42227805DD00EB431393F8BE
S3150800112025309342E3D0002305F125016370580169
S31508001130085C904208BF637001339E42F7D8731E5D
S31508001140637000232371D2E740461FA3D3E9002327
S31508001150494655F0B9FCF0B12379E3B1013B237157
S3150800116094F9013005F5F57005EB431393F825302E
S31508001170237085F8EA31052395F8022285F8EC31C3
S3150800118085F8F02100230E2285F8EB3185F8F22147
S3150800119085F8F1319DE740460BA3D3E9002349467C
S315080011A055F074FC0028DBD023790133DBB2092B18
S315080011B02371D5D9013EBE42D2DD0137A7E700BF6C
S315080011C0666666666666E63F9A9999999999B93FF9
S315080011D0D24C0908000000002DE9F8432DED028BDA
S315080011E087680546384616460C4655F085F928A3FD
S315080011F0D3E900238046894655F066FC88BB26A3BA
S31508001200D3E900234046494655F040FC60BBF7EE5B
S31508001210007A07EE107A87EE878A6B7F607F012255
S31508001220834224D0002149F043F90122044631467D
S31508001230687F49F03DF9044404F2D5702860D8B1B6
S3150800124007EE900AF8EE677A9FED0D7A67EE887AD0
S3150800125087EE270ABDEC028B10EE103AEB60BDE86C
S31508001260F8839FED088AD8E79FED078AD5E73146C8
S31508001270184649F01DF9E1E79FED040AEAE700BFC1
S3150800128000007A44E4388E3F00401C460000000007
S31508001290CDCCCCCCCCCCEC3F9A9999999999B93FBD
S315080012A02DE9F74F064690F8E8010D469146A0B39A
S315080012B07468A3690133A361A37D06EB43131A7F00
S315080012C002441A77D4E90732C3EB520207EE902A92
S315080012D04000B8EE677A07EE900AF8EEE76AF4EE91
S315080012E0C76AF1EE10FA0BD507EE903A37EE667A32
S315080012F0F8EE677A77EE877AFCEEE77AC4ED077A36
S315080013004FF0000BD9450BD842F21073A2699A42E6
S3150800131082BF0023C4E90633236203B0BDE8F08F19
S31508001320B5F802A02F79BAF1000F2ED0384655F03D
S31508001330D1F8CDE90001504655F0CCF802460B46E7
S31508001340DDE9000155F05AFA02460B4600204C49E1
S3150800135054F072FF55F00AFC07EE100A96F80332AD
S31508001360AAEB0700034486F8033294F8243033B313
S3150800137094F825305B4522D1BAF1000F08D1C4F89C
S3150800138020A00BF1010B0635BCE7B7EE007AE5E7BE
S31508001390E3690133E3612A78002AF2D000239846EC
S315080013A096F8E8C106F108019C450FD8B8F1000F78
S315080013B014D127210220334A64F0CAFFE1E72A78CC
S315080013C0002ADED0BAF1000FDBD0E7E791F81DE07E
S315080013D00133964508BF88462031E5E7002288F89C
S315080013E01420B8F81020D8F8043017440133BAB2DC
S315080013F0C8F80430A8F810701AB198F81D2086F8B5
S315080014001422F7EE007A012B77EEC77A8CBFB3EE7B
S31508001410097A9FED1D7AB8F8122088BF67EE877A99
S315080014200244A8F81220D8F808208CBF9FED177A36
S3150800143067EE877A06EE102ADFED156AE6EE077A7A
S3150800144087EEA67A17EE103A17EE100AC8F8083093
S3150800145055F052F808A3D3E9002355F017FB18B145
S31508001460FF2388F815308CE798F91530013388D1B1
S315080014700423F6E7AFF30080666666666666EE3FA7
S315080014800000F03FF24C090800004842000096426E
S315080014900000C842000000002DE9F04F2DED028B38
S315080014A0054600274FF0200A4FF0080B0B46082088
S315080014B04D4A87B08846272164F04AFF95F8E831F7
S315080014C027210820494A64F043FF6C6805F108069D
S315080014D0E37D23716371637595F8E891B9450DDC71
S315080014E03FA7D7E900674FF00008AA46C346C1459B
S315080014F046D807B0BDEC028BBDE8F08FE17D4246C9
S315080015001AFB01B130462944FFF766FE96F81D908E
S315080015100495F06854F0F0FFCDE90201B06854F084
S31508001520EBFF4B46CDE90001314A2721082064F03C
S315080015300FFF2379D6ED037A05EB431292ED057A70
S31508001540F4EEC77AF1EE10FA02DB327F22710EE072
S3150800155017B995F82420F9E7637905EB431393ED5A
S31508001560057AF4EEC77AF1EE10FA04DB337F63717D
S3150800157001372036B0E7012FFAD195F84430F6E75F
S31508001580E37D434515D09AED048A18EE100A54F007
S31508001590B3FF32463B4655F08DFA10B9BBF1000F42
S315080015A00CD19AF8243022799A4202D062799A426A
S315080015B011D108F101080AF1200A98E7637D05EBC5
S315080015C04313D3ED047AB4EEE78AF1EE10FAE8DABB
S315080015D04FF0010BEDE76375FAE700BFAFF3008044
S315080015E0666666666666EE3F0A4D09082C4D09086A
S315080015F03B4D0908000000002DE9F047D0F80480AB
S3150800160000EB411393F8245098F817300446AB4280
S315080016102DD098F81530AB4229D000EB411ADAF8EC
S3150800162010004FEA411954F067FF13A3D3E90023CA
S3150800163006460F4655F034FA10B99AF91D00A0B1BE
S3150800164098F80430AB4212D098F80530AB420ED069
S3150800165009A3D3E900233046394655F035FA18B1BF
S315080016604C44637F013B63770120BDE8F087002087
S31508001670FBE700BFAFF30080666666666666EE3F08
S315080016802DE9F34704460E46456827210820804A77
S3150800169064F05EFE20463146FFF7FEFE284671F0EE
S315080016A01BFE002800F0BA80204671F028FE061EB0
S315080016B0C0F2B48094F8E8319E4280F2AF8004EB21
S315080016C04617334627210820724A64F041FE27212F
S315080016D0082097F82530704A64F03AFE012295F8FA
S315080016E004C085F8242004EB4C13386A196A88422A
S315080016F097F8250002D8397F322977D9012284F84C
S31508001700EC21002284F8EA0184F8EB21A97D2970EE
S3150800171093F8251084F8F01193F8263084F8F1210F
S3150800172084F8F231697D85F801C004EB411393F81A
S315080017302500012684F8F60193F8263084F8F83156
S31508001740002384F8F731A97085F82520A04605F10D
S31508001750FF3904F1120A19F8013F5F1C002E00F048
S31508001760898004EB4313186954F0C6FE02460B46FB
S31508001770CDE9002342A3D3E9002355F0A5F940B9E2
S3150800178041A3D3E90023DDE9000155F07FF90028DC
S3150800179070D004EB4717BB79042B8EBF02230133A5
S315080017A0C3F3460388F8EC3108F10608C245D2D1DE
S315080017B0EA7D04F5F57004EB421393F8253084F8B6
S315080017C0FC31002384F8FD31EA7085F8243094F85A
S315080017D0F22194F8EC31134494F8F821C3F1130379
S315080017E09B1A84F8FE3102B0BDE8F08793F825709D
S315080017F0697D84F8EA7193F8263084F8EC31002381
S3150800180084F8EB3185F800C084F8F13184F8F001EA
S3150800181084F8F22104EB41136E7088E700262A79D2
S3150800182004EB421393F8251084F8EA1193F826304E
S3150800183084F8EB6184F8EC312A706A7904EB421378
S3150800184093F8251084F8F01193F8263084F8F1619E
S3150800185084F8F2316A706A7D04EB421393F8251016
S3150800186084F8F61193F8263084F8F76184F8F8318D
S31508001870AA706BE704EB4717BB7993E7AFF30080D1
S31508001880666666666666EE3F9A9999999999B93F2A
S315080018905F4D09086D4D09087D4D090800000000D7
S315080018A02DE9F8432DED028B87680546384616461E
S315080018B00C4654F021FE2EA3D3E900238046894620
S315080018C055F002F900283DD12BA3D3E90023404661
S315080018D0494655F0DBF8C0BBF7EE007A07EE107AFA
S315080018E0AB7F87EE878A07EE903AB8EEE77AB4EED2
S315080018F0C87AF1EE10FA01D5B8EE678A6B7F607F79
S315080019000122834224D0002148F0D2FD0122044658
S315080019103146687F48F0CCFD044404F2D57028604F
S31508001920D8B107EE900AF8EE677A9FED0D7A67EE62
S31508001930887A87EE270ABDEC028B10EE103AEB6028
S31508001940BDE8F8839FED078AD8E79FED078AD5E7B4
S315080019503146184648F0ACFDE1E79FED040AEAE790
S3150800196000007A44E4388E3F00401C460000000020
S31508001970CDCCCCCCCCCCEC3F9A9999999999B93FD6
S315080019802DE9F04F2DED028B90F8E83105460E460D
S31508001990934689B0002B00F0238127210820964A18
S315080019A064F0D6FC00226C68A1690131A16195F842
S315080019B0E80190423DD8D4E907230A2779436427EA
S315080019C0B1FBF7F1C2EB53030B4407EE903A430021
S315080019D006EE903AF8EE677AF8EEE66AF4EEE76A0B
S315080019E0F1EE10FA0BD507EE102A77EEE67AB8EE86
S315080019F0477A77EE277AFCEEE77AC4ED077A00276E
S31508001A00B846BB451DD8B8F1010F00F0E680B8F11D
S31508001A10130F40F2B9800023A3612721082095F807
S31508001A200332764A09B0BDEC028BBDE8F04F64F08C
S31508001A308FBCA37D013205EB43131F7F01371F7748
S31508001A40B7E7B6F8029096F804A0B9F1000F41D0AE
S31508001A50504654F03FFDCDE90601484654F03AFD9C
S31508001A6002460B46DDE9060154F0C8FE02460B465F
S31508001A700020634954F0E0FB55F078F808EE100AA8
S31508001A80337818EE100A0693049554F035FD069B34
S31508001A90CDE902015B4A27210820CDE9009A64F0C6
S31508001AA057FC7288337995F80312D31A0B4485F8D4
S31508001AB0033294F82430C3B194F82530BB4214D1CC
S31508001AC05AB92262272108204F4A64F041FC01379F
S31508001AD0063696E7B7EE008AD2E7E369272101338F
S31508001AE008204A4AE36164F033FCB6F802A0BAF16A
S31508001AF0000FECD00023E25D05EB4211C8680B77B6
S31508001B000130C86096F804C00B8B4FEA421963444B
S31508001B109BB20B831BB191F8253085F81432F7EE8A
S31508001B20007A05EB0902538B01285344A3EB0C03F7
S31508001B3077EEC87A53830DD9B2EE0E7AD2ED046ADF
S31508001B4027EE877ADFED327AA6EEA77ADFED316ADD
S31508001B50C7EE267AA944C9ED047A17EE900A54F01E
S31508001B60CBFC23A3D3E9002354F090FF30B1FF2325
S31508001B7089F81D30C2441FFA8AF8A8E799F91D307A
S31508001B800133F7D10423F3E7B8F1020FD4ED0B7A4A
S31508001B90B1EE047A15D977EE877AB3EE047AF4EEC5
S31508001BA0477AF1EE10FA77FE277A42F21073A269A5
S31508001BB0C4ED0B7A9A4282BF0023C4E90633236236
S31508001BC02BE7F2EE046A77EEE67AF4EE477AF1EE60
S31508001BD010FA48BFF0EE477AE7E7DFED0F7AE4E759
S31508001BE009B0BDEC028BBDE8F08F00BFAFF30080F3
S31508001BF0666666666666EE3FC24D0908284E09089F
S31508001C000000F03FD84D0908094E0908184E090882
S31508001C100000AA420000C8420000000000000000C0
S31508001C202DE9F84F2DED028B0546884600274FF023
S31508001C3020094FF0080B446800F10806E37D23717C
S31508001C406371637595F8E8A1BA450CDC0FF2D00903
S31508001C50D9E9008900262F46B346B24532D8BDECED
S31508001C60028BBDE8F88FE17D424619FB01B130468B
S31508001C702944FFF715FE2379D6ED037A05EB4312BF
S31508001C8092ED057AF4EEC77AF1EE10FA02DB327FAE
S31508001C9022710EE017B995F82420F9E7637905EB68
S31508001CA0431393ED057AF4EEC77AF1EE10FA04DBE6
S31508001CB0337F637101372036C4E7012FFAD195F8CF
S31508001CC04430F6E7E37DB34215D097ED048A18EE63
S31508001CD0100A54F011FC42464B4654F0EBFE10B97C
S31508001CE0BBF1000F0AD197F8243022799A4202D024
S31508001CF062799A420FD101362037AEE7637D05EB4C
S31508001D004313D3ED047AB4EEE78AF1EE10FAEADA71
S31508001D104FF0010BEFE76375FAE700BFAFF30080FA
S31508001D20666666666666EE3F2DE9F047456890F892
S31508001D30E821AB690446B3EB420F2ED900EB4113F9
S31508001D4093F82480EB7D43452AD06B7D434527D005
S31508001D5000EB411ADAF810004FEA411954F0CCFBAF
S31508001D6011A3D3E9002306460F4654F099FE10B98D
S31508001D709AF91D0090B12B79434511D06B794345EB
S31508001D800ED009A3D3E900233046394654F09CFE09
S31508001D9018B14C44637F013B63770120BDE8F087A7
S31508001DA00020FBE7AFF30080666666666666EE3F70
S31508001DB00348044B834202D0034B03B118477047CC
S31508001DC0DCB80020DCB8002000000000064B0749FC
S31508001DD0C91A891048BF0131491003D0044B0BB109
S31508001DE001481847704700BFDCB80020DCB800205F
S31508001DF00000000010B5064C237843B9FFF7D8FF5A
S31508001E00044B13B10448AFF300800123237010BDBF
S31508001E100899002000000000246C090808B5054B45
S31508001E201BB105490548AFF30080BDE80840FFF738
S31508001E30CDBF00BF0000000008130020246C09086D
S31508001E40A3F5803A704700BF174B002B08BF134B0A
S31508001E509D46FFF7F5FF00218B460F461348144AA7
S31508001E60121A72F046FC0E4B002B00D098470D4B09
S31508001E70002B00D098470020002104000D000D48D3
S31508001E80002802D00C48AFF3008055F085FD2000ED
S31508001E9029005CF00FF955F0C5F900BF00000800ED
S31508001EA000000000000000000004002000040020DC
S31508001EB0C0A20020000000000000000008B504F0E1
S31508001EC007FA0C4B186059600B4B186059600021D3
S31508001ED00A4B19800A4B1980002200230948C0E9D9
S31508001EE000230948C0E900233022084872F001FCA3
S31508001EF008BD00BF8004002078040020D498002084
S31508001F00D2980020700400206804002000040020F5
S31508001F102DE9F04399B000AF0546002306E00022FC
S31508001F202B49CA542B49CA540133DBB2072BF6D9BD
S31508001F3007F15F0064F0A4FB40B1254B03CB286092
S31508001F40696028466437BD46BDE8F08397F85F3078
S31508001F506A46A2EBC3039D46E846694607F15F0059
S31508001F6064F0A3FB08B9002409E0194B03CB2860E9
S31508001F706960E6E77B6A012B19D00134E4B297F869
S31508001F805F30A3421FD9A14608EBC406391D304667
S31508001F9064F0A4FB7B6A002BECD10F49304664F051
S31508001FA09DFB0B4B58F83400716803C3E2E70B49F5
S31508001FB0304664F093FB074B08EBC90258F8390022
S31508001FC0516803C3D9E7024B03CB28606960B8E7B9
S31508001FD08C13002084130020101D0020B41C002040
S31508001FE010B582B06846FFF793FF084A084CD379C4
S31508001FF09279214607481DF031FB074AD379927931
S31508002000214606481DF02AFB02B010BD8C1300209D
S31508002010287C0708741C0020841300206C1C0020F0
S315080020208168CAB2984B1A70052A03D8974B1B8841
S315080020309A4200D17047F0B585B0954C0092954A02
S315080020404FF4AF6120681DF01FFB56F000FB0246F7
S31508002050914D23682946002063F096F956F0F7FA61
S315080020600146226828461DF0E3FA874B1C788B4BFD
S315080020701B789C4201D2894B1C70631EDBB2042B71
S315080020800ED9814B1B78052B4CD0804B1B88052B12
S3150800209000F0F7807C4B1A787C4B1A8005B0F0BDAF
S315080020A004F016F97E4D05EBC404C4E900017D4B26
S315080020B01C68204657F0C2FF642012F079FE2046BD
S315080020C057F0D0FF704B1B7805EBC30155F833204A
S315080020D04968581E05EBC00455F830006468121AA2
S315080020E061EB0401704800EBC30440F833206160DB
S315080020F0674C009201916D4A4FF4AF6120681DF05C
S31508002100C3FA56F0A4FA0246634D2368294600200E
S3150800211063F03AF956F09BFA0146226828461DF004
S3150800212087FAAEE75F4B186857F088FF5C4B564A4C
S31508002130127803EBC20153F8322049685C4B1A60E7
S3150800214059605C48038801339BB203805348007882
S31508002150032803D8584C2088013020804F4805248E
S315080021600470012B5FD04A4D544C23686068D21A1C
S3150800217061EB000100920191514A4FF4AF61286862
S315080021801DF082FA56F063FA0246434E2B68314632
S31508002190002063F0F9F856F05AFA01462A683046E4
S315080021A01DF046FA424B19685B6822686068891A0E
S315080021B063EB0003434802684468521843EB040380
S315080021C002604360404C02A8FFF7A2FE234602982D
S315080021D0039903C3E379A2793C493D481DF03EFAC9
S315080021E00121032003F0BAFE01221146222003F042
S315080021F0DBFE012211460B2003F0D6FE0122114612
S31508002200252003F0D1FE012211461D2003F0CCFE45
S3150800221001220221002003F0C7FE01220221282004
S3150800222003F0C2FE31E71A4C00920191294A4FF495
S31508002230AF6120681DF028FA56F009FA0246164DD5
S3150800224023682946002063F09FF856F000FA0146F5
S31508002250226828461DF0ECF91A4B00200021C3E934
S315080022600001AFE704F034F80D4B03EBC403C3E9F0
S3150800227000010134044B93F800C0A445F2DA0022A9
S3150800228041E00024F6E700BF09990020D098002015
S3150800229050220020347C07084C7C07080D99002042
S315080022A030040020CCC0070800040020547C07082E
S315080022B080040020D4980020D298002078040020BA
S315080022C0A47C0708680400208C130020287C0708D3
S315080022D0741C0020807C0708531C3F4800EBC3048D
S315080022E050F83310646800EBC20E50F83220DEF85E
S315080022F00400891A64EB0002384800EBC30440F86E
S31508002300331062601A469445E6DA334B03EBCC0287
S3150800231053F83C305268324D2B606A60314E324C6D
S31508002320216860685B1A62EB0002009301922F4AEB
S315080023304FF4AF6130681DF0A7F956F088F90246E8
S315080023402B4F33683946002063F01EF856F07FF9A4
S315080023500146326838461DF06BF929686B682268B1
S315080023606068891A63EB00032248026844685218B9
S3150800237043EB04030260436001241F4B1C70214693
S31508002380032003F0EBFD224603211A2003F00CFE7E
S3150800239022460421102003F007FE22462146222069
S315080023A003F002FE224604210B2003F0FDFD22461F
S315080023B02146252003F0F8FD224621461D2003F07C
S315080023C0F3FD22460221002003F0EEFD22460221FB
S315080023D0282003F0E9FD5DE6300400200004002013
S315080023E0780400205022002080040020C07C0708C2
S315080023F04C7C0708700400200A9900202DE9F04F4C
S31508002400A7B0394E304664F015FA384C21460120FB
S3150800241064F025F8204606F031FC0146344C204687
S315080024201DF01CF956F013F9024621AD314928462C
S315080024301DF014F9FFF7D4FD2F4B19685A680131BE
S3150800244042F1000219605A602C4BB3F83CC0B3F84D
S315080024503EE0B3F8408093F8459093F844A030885E
S31508002460274B5F8996F802B0264E274B1E93274BBB
S3150800247093ED0A7B8DED1C7B93ED087B8DED1A7B26
S3150800248093ED067B8DED187B93ED047B8DED167B26
S3150800249093ED027B8DED147BCDF848B0119710971C
S315080024A00F900E900C910D920A95CDF824A0CDF8B8
S315080024B02090CDF81C80CDF818E0CDF814C0144B48
S315080024C00493144B0393144B0293144B0193144B2C
S315080024D000932346134A4FF4006130461DF0D4F8A2
S315080024E0304627B0BDE8F08F201300207413002073
S315080024F0241300204099070860040020101D0020BE
S31508002500042200209C130020081C00200004002040
S31508002510741C00204C1300209C1B0020841C0020E7
S315080025207C1C00202C7D07082DE9F04FABB01990D4
S315080025303E4864F07FF956F08AF802463C4C25AFCF
S31508002540214638461DF08AF83A4BD3E9000103F0D4
S3150800255099FE02460DF18008214640461DF07EF898
S31508002560354BD3E9000103F08DFE02460DF16C09E7
S31508002570214648461DF072F8FFF732FD2F4B1C68BE
S315080025805D68013445F100051C605D602C4B9A8F2F
S315080025901492D98F1591B3F84060189693F845A010
S315080025A093F844B0274E706853F084FFCDE91601BE
S315080025B0F068254BA3FB0030244E254B1B8813934C
S315080025C0244B1B881293CDF84490CDF840804009DF
S315080025D053F070FF02460B46DDE9160154F00EF97A
S315080025E0CDE90E010C940D950B97CDF828B0CDF8D2
S315080025F024A0189C089415990791149A0692164BCC
S315080026000593164B0493164B0393164B0293164BDE
S315080026100193164B0093199B154A4FF400613046F7
S315080026201DF032F830462BB0BDE8F08F201300209D
S315080026304099070870040020680400206004002000
S31508002640101D00208C1C00201F85EB519C130020B8
S31508002650D2980020D4980020741C00204C13002027
S315080026609C1B0020841C00207C1C002024130020B6
S31508002670887E07082DE9F04385B003F0F3FC03F0E4
S315080026809BF9D2481CF0D4FF04F00AFBD04B1B7808
S31508002690002B40F00A824FF47A7074F084FCCD481F
S315080026A01CF0C6FFCC4FDFF8B483CC4D3A46414602
S315080026B028461CF0D3FFCA4ECA4B0293CA4B019355
S315080026C000972B46C94A642130461CF0DDFFC84CEA
S315080026D0019600972B46C74A4FF4AF6120681CF055
S315080026E0D3FF55F0B4FF0246C34D236829460020A0
S315080026F062F04AFE55F0ABFF0146226828461CF0F8
S3150800270097FFDFF85C93BD4B0093BD4BBD4A502144
S3150800271048461CF0B9FFBC4F33463A464FF4AF6102
S3150800272020681CF0B1FF55F092FF0246236829463F
S31508002730002062F029FE55F08AFF014622682846E5
S315080027401CF076FF4B463A464FF4AF6120681CF002
S315080027509BFF55F07CFF024623682946002062F05D
S3150800276013FE55F074FF0146226828461CF060FFE8
S31508002770A64BA74A4FF4AF6120681CF085FF55F0B9
S3150800278066FF024623682946002062F0FDFD55F0E3
S315080027905EFF0146226828461CF04AFF266801208B
S315080027A006F08EFA03469B4A4FF4AF6130461CF09A
S315080027B06BFF55F04CFF024623682946002062F05D
S315080027C0E3FD55F044FF0146226828461CF030FF19
S315080027D00121032003F0C2FB012203211A2003F082
S315080027E0E3FB01220421102003F0DEFB012211463F
S315080027F0222003F0D9FB012204210B2003F0D4FB8D
S3150800280001221146252003F0CFFB012211461D2087
S3150800281003F0CAFB01220221002003F0C5FB0122B6
S315080028200221282003F0C0FB27687B4E0FCE3860B4
S315080028307960BA60FB603288B3783A82BB7455F027
S3150800284006FF024623682946002062F09DFD55F0E2
S31508002850FEFE0146226828461CF0EAFE6F4E304608
S3150800286063F0E4FE304606F033FA0246DFF8F491E8
S31508002870414648461CF0F2FE694FF379B279694938
S3150800288038461CF0EBFE4B46674A4FF4AF612068AA
S315080028901CF0FAFE55F0DBFE0246236829460020A6
S315080028A062F072FD55F0D3FE0146226828461CF0F8
S315080028B0BFFE3B465D4A4FF4AF6120681CF0E4FE5C
S315080028C055F0C5FE024623682946002062F05CFDE5
S315080028D055F0BDFE0146226828461CF0A9FE544F55
S315080028E0544938461CF0BAFE002600963B46524A22
S315080028F04FF4AF6120681CF0C7FE55F0A8FE0246EB
S3150800290023682946304662F03FFD55F0A0FE014691
S31508002910226828461CF08CFE3B46484A4FF4AF61B5
S3150800292020681CF0B1FE55F092FE0246236829463F
S31508002930304662F029FD55F08AFE0146226828468F
S315080029401CF076FE3E498B2006F084F83D4F3B8905
S315080029503D4A4FF4AF6120681CF096FE55F077FEAD
S31508002960024623682946304662F00EFD55F06FFE92
S315080029700146226828461CF05BFE788963F09DFFB5
S315080029807B89324A4FF4AF6120681CF07DFE55F012
S315080029905EFE024623682946304662F0F5FC55F08D
S315080029A056FE0146226828461CF042FE28481CF0BE
S315080029B03FFE33460422022108460AF09DF82548C0
S315080029C01CF036FE244B1B684EE000BFC07F07088C
S315080029D054280020E0D7070800800708841C002038
S315080029E0081C0020148007081C80070808800708B0
S315080029F0502200202C8007084C7C07085C800708BA
S31508002A00388007084480070838820708688007085E
S31508002A107C800708888007089C8007089413002094
S31508002A207C1C0020287C0708B0800708C08007089F
S31508002A309C1B0020D0800708E8800708008107084B
S31508002A402120000804220020108107083481070885
S31508002A5050810708788107080CA6002040990708C6
S31508002A60B81B00204C130020DA69314618689047D5
S31508002A70BE4B186803F0CCFC012003F0CFFC3046AF
S31508002A8003F088FCBA481CF0D3FD02F0B9FB4FF4FA
S31508002A90FA7012F08DF902F073FC03F019FCB54BCD
S31508002AA0C3E9000104F07CFE1EE0B34CB34BB44A04
S31508002AB04FF4AF6120681CF0E7FD55F0C8FD0246EB
S31508002AC0B04D23682946002062F05EFC55F0BFFD34
S31508002AD00146226828461CF0ABFDDCE5012211E020
S31508002AE04FF47A7074F05FFA03F0F2FB04460D4671
S31508002AF0A54E304663F075FD3378052B38D0002295
S31508002B006319EBD21344A14AA2FB0312D208C2EB03
S31508002B1002129B1AE31A65F100009D494FF0EE3246
S31508002B2003FB02F201FB0022A3FB01310A449B08C6
S31508002B3043EA82739208110141EA13711801C01A17
S31508002B4061EB02039B0043EA90738200A41A65EBCB
S31508002B5003052C43C4D155F07AFD01468D481CF077
S31508002B6067FD894B1A788C498C481CF061FDB7E7DC
S31508002B7003F0AEFB05460F460121032003F0EEF9EC
S31508002B8001221146222003F00FFA012211460B20DA
S31508002B9003F00AFA01221146252003F005FA01225C
S31508002BA011461D2003F000FA01220221002003F03D
S31508002BB0FBF901220221282003F0F6F9DFF8B88193
S31508002BC0D8F80060764C0FCC30607160B260F36064
S31508002BD007CC30617161B2612388B38355F037FD44
S31508002BE00246684CD8F800302146002062F0CCFB3B
S31508002BF055F02DFD0146D8F8002020461CF018FD9A
S31508002C00D8F80060FFF7FAFB0346664A4FF4AF614F
S31508002C1030461CF039FD55F01AFD0246D8F800304A
S31508002C202146002062F0B0FB55F011FD0146D8F8A8
S31508002C30002020461CF0FCFC504B1B784BB95A4828
S31508002C4011F0EAFB0126594B1E70022074F0ABF90D
S31508002C5068E0022074F0A7F9484B554A4FF4AF6173
S31508002C60D8F800001CF010FD55F0F1FC0246454E60
S31508002C70D8F800303146002062F086FB55F0E7FCB4
S31508002C800146D8F8002030461CF0D2FCD7E7494B5D
S31508002C901A8900232046414654F016F9134302D0F8
S31508002CA0454B1B7823B316B9434B1B7803B3324EF7
S31508002CB0D6F800904148FFF737FC0346394A4FF4E7
S31508002CC0AF6148461CF0E0FC55F0C1FC0246DFF84F
S31508002CD0B49033684946002062F056FB55F0B7FCBD
S31508002CE00146326848461CF0A3FC0026324B1E708B
S31508002CF0304B1A8900232046414654F0E5F8013A3C
S31508002D001A4318D1BEB9012615E0012317E0013C84
S31508002D1014B9264B01221A704FF47A7074F043F9ED
S31508002D2055F05BFD03F0D4FA441B61EB0708164B1C
S31508002D301B78052BABD0002314EB0804E5D21C4402
S31508002D401F4BA3FB042323F0030202EB9303E41AAD
S31508002D50002CDCD1154B1B78002BD8D0124811F06B
S31508002D605BFB124B00221A70D1E700BF10A60020A9
S31508002D70AC8107088804002050220020542800202F
S31508002D80E47F07084C7C0708099900208988888809
S31508002D90EFEEEEEED081070868800708D8810708AD
S31508002DA008820708409907088C1C00200B99002008
S31508002DB028820708042200200C990020E4F5070859
S31508002DC0CDCCCCCC84B030B58DB010AC84E80F0037
S31508002DD0BDF87C10BDF87E009DF885309DF88420EE
S31508002DE09DF88750114C0B95AE3A0A92AE3B099363
S31508002DF0089007911D9B06931C9B05931B9B0493A8
S31508002E001A9B0393199B0293189B01939DF89C3078
S31508002E100093289B064A4FF4806120461CF034FC38
S31508002E2020460DB0BDE8304004B070479C13002022
S31508002E303C8207082DE9F04383B004460E469046C7
S31508002E401D460DF1070063F01BFC28B99DF8070025
S31508002E5038B903B0BDE8F08381B228481CF0E8FB16
S31508002E60F4E7C0005BF01FF88146002843D001460E
S31508002E700DF1070063F019FC50B984B130789DF85C
S31508002E800730984224D348465BF02DF80020E0E747
S31508002E9081B21B481CF0CCFBEFE70134E4B29DF885
S31508002EA00730A342EFD909EBC4072946384663F031
S31508002EB015FC2B6A002BF0D13470FB79BA791149CD
S31508002EC040461CF0CBFB48465BF00DF80120C0E7F6
S31508002ED0294609EBC00063F001FC327809EBC2020F
S31508002EE0D3799279074940461CF0B8FB48465AF010
S31508002EF0FAFF0120ADE70020ABE700BFE07C07083A
S31508002F0014830708287C070810B5AEB017AB104A1B
S31508002F100DF15B010020FFF78DFF78B10C4B149380
S31508002F209DF85B30139349221BA9684671F054FC3F
S31508002F3017AB0FCBFFF746FF2EB010BD054C00238D
S31508002F40054A4FF4806120461CF09EFB2046F3E7B5
S31508002F506C1D00209C1300204883070800B589B023
S31508002F6003A863F081FC70B99DF814300093BDF88E
S31508002F700C30094A4FF4806108481CF085FB074865
S31508002F8009B05DF804FB83B2054A4FF48061034833
S31508002F901CF07AFBF3E700BF588307089C13002050
S31508002FA0848307082DE9F041AEB004460DF1B70059
S31508002FB063F066FB38B99DF8B700002837D0A04201
S31508002FC006D81E4834E081B21D481CF031FBF2E7F2
S31508002FD0C0005AF068FF064668B301460DF1B7000F
S31508002FE063F063FBF0B906EBC40717AD294638460C
S31508002FF063F074FBDFF85480FB79BA7911494046CF
S315080030001CF02CFB30465AF06EFFCDF85080139416
S3150800301049221BA9684671F0DFFB95E80F00FFF708
S31508003020D1FE05E081B208481CF002FBDBE7034845
S315080030302EB0BDE8F0810148FAE700BFE4F50708BD
S31508003040E07C0708287C0708148307086C1D002005
S3150800305070B58EB005460CA863F0E8FA0CA805F022
S3150800306037FE04460DF12A030DF12D020DF12E014E
S315080030700DF12F0063F091FB134E0994BDF82A3029
S3150800308008939DF82D3007939DF82E3006939DF8EA
S315080030902F3005930D4B04930D4B03930D4B029361
S315080030A00D4B01930D4B00930D4B0E4A4FF47A715D
S315080030B030461CF0E9FA204656F07CFD2946304693
S315080030C055F0B0FA0EB070BD1C1E0020B81B0020CB
S315080030D0081C00209C1B002000800708841C002078
S315080030E07C1C0020BC83070870B59AB004460DF115
S315080030F0170063F0C5FA03F0EBF803F0C3F80246CD
S31508003100282110A81CF0C0FA03F0E2F8104A136848
S315080031105268C01A61EB020103F0B4F8024606AE23
S31508003120282130461CF0B0FA0A4D9DF81730029354
S31508003130094B0193009610AB084A4FF47A7128465A
S315080031401CF0A2FA2146284655F06CFA1AB070BD52
S31508003150800400201C1E0020741C002068840708B8
S3150800316038B586460B4B01221A700B4DAC460B4CF4
S315080031700FCCACE80F0094E80700ACE803002CF885
S31508003180022B120C8CF800207146284655F04AFA94
S3150800319038BD00BF0C9900201C1E0020C0840708FB
S315080031A038B50446064D074B074A4FF47A71284648
S315080031B01CF06AFA2146284655F034FA38BD00BF95
S315080031C01C1E00207C1C00204099070838B50446C0
S315080031D0064D074B074A4FF47A7128461CF054FAF5
S315080031E02146284655F01EFA38BD00BF1C1E002091
S315080031F0841C00204099070808B58446054B064AF2
S3150800320092E80300186019716146184655F00AFAE3
S3150800321008BD00BF1C1E00200080070838B50446FC
S31508003220064D074B074A4FF47A7128461CF02CFACC
S315080032302146284655F0F6F938BD00BF1C1E002069
S315080032409C1B00204099070870B58AB004462822BE
S315080032500021684671F04DFAA389002B3FD020461D
S3150800326056F077F9064690B36A46234954F02EF984
S315080032700546304656F03AF94DB32049684671F08E
S3150800328099FA60B11E49684671F094FAA0B16B4686
S315080032901C4A4FF47A711C481CF0F6F926E063F0D4
S315080032A0FFF841F28831872004F0DAF963F0ADF9C6
S315080032B055F085FA00201DE063F0F2F841F28831F6
S315080032C0872004F0CDF955F07AFA002012E06B4613
S315080032D00E4A4FF47A710C481CF0D6F906E00C4BEE
S315080032E00C4A4FF47A7108481CF0CEF92146064874
S315080032F055F098F90AB070BDDC840708E48407081D
S31508003300F8840708048507081C1E00201C85070882
S31508003310081C00204099070838B50446064D074B97
S31508003320074A4FF47A7128461CF0AEF9214628461A
S3150800333055F078F938BD00BF1C1E0020B81B0020C8
S315080033404099070838B5044602F0C2FF02F09AFF12
S315080033500346064D064A4FF47A7128461CF094F93E
S315080033602146284655F05EF938BD00BF1C1E0020D0
S315080033704099070838B50446FEF732FE064D074B56
S31508003380074A4FF47A7128461CF07EF921462846EA
S3150800339055F048F938BD00BF1C1E0020741C0020DB
S315080033A04099070838B50446FFF7AEFD0346064DB3
S315080033B0064A4FF47A7128461CF066F921462846D3
S315080033C055F030F938BD00BF1C1E0020409907088B
S315080033D038B50446FFF7C2FD0346064D064A4FF4C4
S315080033E07A7128461CF050F92146284655F01AF9F4
S315080033F038BD00BF1C1E00204099070830B583B0B1
S3150800340004460023019383892BB101AA14498069D4
S3150800341054F05CF890B90DF1030063F031F9114DE1
S315080034209DF80330104A4FF47A7128461CF02CF99F
S315080034302146284655F0F6F803B030BD9DF804003D
S31508003440FFF7B0FD0346074D084A4FF47A71284640
S315080034501CF01AF92146284655F0E4F8ECE700BFB7
S31508003460448507081C1E002034850708409907086C
S3150800347030B58BB00446114D114BD3E90A01CDE99D
S315080034800801D3E90801CDE90601D3E90601CDE92A
S315080034900401D3E90401CDE90201D3E90223CDE908
S315080034A00023084A4FF47A7128461CF0EDF82146A5
S315080034B0284655F0B7F80BB030BD00BF1C1E0020DB
S315080034C0000400204885070870B582B0044600232A
S315080034D00193838973B9114D114B1B89114A4FF416
S315080034E07A7128461CF0D0F82146284655F09AF8F5
S315080034F002B070BD56F02DF806460028EBD001AA9A
S31508003500094953F0E3FF0546304655F0EFFF002D15
S31508003510E1D0BDF80420024B1A81DCE71C1E00200E
S3150800352004220020648507084485070830B583B05F
S315080035300446002301930093254B01221A608389D0
S315080035408BB9234B1B68002B3BD1224B1B78224A95
S315080035504FF47A7121481CF097F821461F4855F018
S3150800356061F803B030BD55F0F4FF054690B101ABE4
S315080035706A461B4953F0AAFF02280CD19DF804108D
S31508003580144B197001229DF8000002F00DFD104B36
S31508003590186008E0002025B101AA1249284653F010
S315080035A095FF012803D0284655F0A0FFC9E79DF8E6
S315080035B00400084B1870012102F0D0FC044B186077
S315080035C0F1E7094A4FF47A7104481CF05DF8C4E73C
S315080035D0181E002040AD0020648507081C1E002028
S315080035E068850708448507087085070870B58CB094
S315080035F0044600210191282202A871F07AF8A389CD
S3150800360063B3204655F0A5FF0646002834D001AB23
S3150800361002AA1A4953F05AFF022813D002AA1849D7
S31508003620304653F053FF012812D00F25304655F087
S315080036305DFFA5B9019B134A4FF47A7112481CF035
S3150800364023F813E0019902A802F024FA0546EDE7EB
S3150800365001A902A802F084FB0546E7E70F252B46D9
S315080036600A4A4FF47A7108481CF00EF821460648B3
S3150800367054F0D8FF0CB070BD1925F0E790850708FF
S31508003680DC840708648507081C1E0020988507083F
S3150800369070B5054610481BF0CBFF104856F0C4FC21
S315080036A00F4856F0C1FC0F4B01221A700E4EB44655
S315080036B00E4C0FCCACE80F000FCCACE80F0094E82A
S315080036C003008CE803000A481BF0B2FF294630467F
S315080036D054F0A8FF70BD00BFA88507089CC007085E
S315080036E0B4C007080E9900201C1E0020C8850708CC
S315080036F0F085070870B5054610481BF099FF104875
S3150800370056F097FC0F4856F094FC0F4B00221A709F
S315080037100E4EB4460E4C0FCCACE80F000FCCACE8FE
S315080037200F0094E803008CE803000A481BF080FFAA
S315080037302946304654F076FF70BD00BF2886070834
S315080037409CC00708B4C007080E9900201C1E00205C
S31508003750488607087086070882895AB108B5064957
S31508003760806970F0DBFF08B1002008BDFEF7A6FBF4
S315080037700120FAE700207047A886070830B583B00D
S3150800378004460A4D0A4B1B8800930A4B1B880A4AB3
S315080037904FF47A7128461BF077FF2046FFF7DCFFC7
S315080037A02146284654F03EFF03B030BD1C1E0020BB
S315080037B0D2980020D4980020B086070838B5044669
S315080037C002F086FD0B4A13685268C01A61EB0201C3
S315080037D002F058FD0346084D084A4FF47A71284608
S315080037E01BF052FF2046FFF7B7FF2146284654F044
S315080037F019FF38BD800400201C1E002040990708C8
S3150800380038B5044602F064FD0E4A13685268C318B8
S3150800381042EB01010C4802684568981A61EB0501FC
S3150800382002F030FD0346094D094A4FF47A712846DD
S315080038301BF02AFF2046FFF78FFF2146284654F043
S31508003840F1FE38BD70040020800400201C1E0020F4
S315080038504099070838B504460A4BD3E9000102F037
S3150800386011FD0346084D094A4FF47A7128461BF0A4
S315080038700BFF2046FFF770FF2146284654F0D2FE7C
S3150800388038BD00BF680400201C1E002040990708A8
S315080038902DE9F04182B0064602F01AFDDFF89C8059
S315080038A0D8F80020D8F80430801843EB01031E4FDF
S315080038B03A687968801A63EB010152F03FFE0022EC
S315080038C01A4B52F071FE04460D4602F001FDD8F877
S315080038D00030D8F80420C31842EB0102396878682A
S315080038E05B1A62EB00021249086849681818114FFA
S315080038F042EB010152F022FE02460B4620462946BB
S3150800390052F07CFFCDE900010B4A4FF47A71384634
S315080039101BF0BAFE3046FFF71FFF3146384654F013
S3150800392081FE02B0BDE8F081800400200000594005
S31508003930680400201C1E0020B886070870040020B2
S315080039402DE9F04FA5B0064602F0C2FC414D2A68A3
S315080039506B68801843EB01033F4C22686168801A44
S3150800396063EB010102F08EFC02460DF1680A28217C
S3150800397050461BF089FE394FD7E9000102F082FC58
S3150800398002460DF1400B282158461BF07DFE02F039
S315080039909FFC2A686B68801843EB010123686268FC
S315080039A0C01A61EB020152F0C9FD00222C4B52F0FD
S315080039B0FBFD8046894602F08BFC2A686B688018F6
S315080039C043EB010322686168801A63EB01033A68D6
S315080039D07968801843EB010152F0B0FD02460B46A8
S315080039E04046494652F00AFF53F0C0F81D4C52F0C3
S315080039F083FDCDE90E01CDF834B0CDF830A01A4BD1
S31508003A001B880B93194B1B880A93194BD3E90A0198
S31508003A10CDE90801D3E90801CDE90601D3E9060194
S31508003A20CDE90401D3E90401CDE90201D3E9022372
S31508003A30CDE900230F4A4FF47A7120461BF024FE85
S31508003A403046FFF789FE3146204654F0EBFD25B097
S31508003A50BDE8F08F70040020800400206804002070
S31508003A60000059401C1E0020D2980020D49800203F
S31508003A7000040020C086070884B010B582B004ACE4
S31508003A8084E80F000346074C01920091064A4FF45A
S31508003A907A7120461BF0F8FD204602B0BDE81040BA
S31508003AA004B070471C1E00208087070884B010B534
S31508003AB090B012AC84E80F00BDF84A309DF890200B
S31508003AC0154C0F92219A0E92209A0D921F9A0C92DB
S31508003AD01E9A0B921D9A0A921C9A09921B9A089290
S31508003AE01A9A0792199A0692189A0592169A0492A1
S31508003AF0159A0392149A029201910093BDF84830E0
S31508003B00064A4FF47A7120461BF0BEFD204610B0D7
S31508003B10BDE8104004B070471C1E0020CC8707087B
S31508003B2084B010B586B008AC84E80F00BDF8223022
S31508003B30BDF82420BDF926100A4C0B9804900A9863
S31508003B400390029101920093BDF92030064A4FF482
S31508003B507A7120461BF098FD204606B0BDE8104055
S31508003B6004B070471C1E00208C89070884B010B565
S31508003B7082B004AC84E80F00074C00900B46074A55
S31508003B804FF47A7120461BF07FFD204602B0BDE84F
S31508003B90104004B0704700BF1C1E0020308A07087A
S31508003BA084B070B59CB020AC84E80F00BDF8E02066
S31508003BB0BDF8E210BDF8E450BDF8E66003461F4CB8
S31508003BC01A96199518911792379A1692369A159247
S31508003BD0359A1492349A1392339A1292329A11920F
S31508003BE0319A1092309A0F922F9A0E922E9A0D921F
S31508003BF02D9A0C922C9A0B922B9A0A922A9A09922F
S31508003C00299A0892289A0792279A0692269A05923E
S31508003C10259A0492249A0392239A0292229A01924E
S31508003C20219A0092064A4FF47A7120461BF02CFD21
S31508003C3020461CB0BDE8704004B070471C1E00202A
S31508003C40788A070884B010B502AC84E80F000346EA
S31508003C50054C064A4FF47A7120461BF015FD20469E
S31508003C60BDE8104004B070471C1E0020B48D07083C
S31508003C708A8972B110B504460B460749986970F0EF
S31508003C804DFD08B1002010BD204662F0E7FC01207A
S31508003C90F9E70020704700BFA886070830B59BB033
S31508003CA005460D4C2146002062F051FC0B4B18606E
S31508003CB0642204F11001684670F08EFD94E80F0046
S31508003CC0FFF7DAFE29460020FFF7D2FF2946044807
S31508003CD054F0A8FC1BB030BDA41D0020181E0020FF
S31508003CE01C1E002030B59BB005460D4C2146012010
S31508003CF062F02DFC0B4B1860642204F11001684633
S31508003D0070F06AFD94E80F00FFF7D0FE29460120FF
S31508003D10FFF7AEFF2946044854F084FC1BB030BDBB
S31508003D20A41D0020181E00201C1E002030B59BB0C4
S31508003D3005460D4C2146022062F009FC0B4B186023
S31508003D40642204F11001684670F046FD94E80F00FD
S31508003D50FFF7E6FE29460220FFF78AFF29460448B0
S31508003D6054F060FC1BB030BDA41D0020181E0020B6
S31508003D701C1E002030B59BB005460D4C214603207D
S31508003D8062F0E5FB0B4B1860642204F110016846EB
S31508003D9070F022FD94E80F00FFF7E8FE294603209D
S31508003DA0FFF766FF2946044854F03CFC1BB030BDBB
S31508003DB0A41D0020181E00201C1E002030B59BB034
S31508003DC005460D4C2146042062F0C1FB0B4B1860DA
S31508003DD0642204F11001684670F0FEFC94E80F00B6
S31508003DE0FFF7DEFE29460420FFF742FF294604486E
S31508003DF054F018FC1BB030BDA41D0020181E00206E
S31508003E001C1E002030B59BB005460D4C21460520EA
S31508003E1062F09DFB0B4B1860642204F110016846A2
S31508003E2070F0DAFC94E80F00FFF70CFF294605202E
S31508003E30FFF71EFF2946044854F0F4FB1BB030BDBB
S31508003E40A41D0020181E00201C1E002000B589B0E5
S31508003E5020220021684670F04CFCA54B0093A54B28
S31508003E600193A54B0293A54B049301238DF80C30BF
S31508003E70684604F063FA002840F07083A04B00936C
S31508003E80A04B01939C4B02939F4B049301238DF8FF
S31508003E900C30684604F052FA002840F066839B4BC3
S31508003EA00093984B0193944B0293994B04930123E7
S31508003EB08DF80C30684604F041FA002840F05C831F
S31508003EC0944B0093944B01938B4B0293934B04931F
S31508003ED001238DF80C30684604F030FA002840F0CB
S31508003EE052838F4B00938F4B0193834B02938E4BD8
S31508003EF0049301238DF80C30684604F01FFA002855
S31508003F0040F04883894B0093864B01937A4B029382
S31508003F10874B049301238DF80C30684604F00EFA9B
S31508003F20002840F03E83834B00937E4B0193724BEF
S31508003F300293814B049301238DF80C30684604F0F4
S31508003F40FDF9002840F034837C4B0093694B0193BC
S31508003F50694B02937A4B049301238DF80C3068461B
S31508003F6004F0ECF9002840F02A83764B00936D4B59
S31508003F700193614B0293744B049301238DF80C3023
S31508003F80684604F0DBF9002840F020836F4B009365
S31508003F906F4B0193584B02936E4B049301238DF894
S31508003FA00C30684604F0CAF9002840F016836A4BBC
S31508003FB00093544B0193504B0293684B049301238F
S31508003FC08DF80C30684604F0B9F9002840F00C83E7
S31508003FD0634B0093474B0193474B0293614B049302
S31508003FE001238DF80C30684604F0A8F9002840F043
S31508003FF002835D4B00933F4B01933F4B02935B4B10
S31508004000049301238DF80C30684604F097F90028CC
S3150800401040F0F882564B0093364B0193364B029389
S31508004020544B049301238DF80C30684604F086F946
S31508004030002840F0EE82504B0093454B01932E4BDF
S3150800404002934E4B049301238DF80C30684604F016
S3150800405075F9002840F0E482494B0093494B0193D7
S31508004060254B0293484B049301238DF80C30684680
S3150800407004F064F9002840F0DA82444B0093344B8C
S3150800408001931D4B0293424B049301238DF80C3088
S31508004090684604F053F9002840F0D0823D4B00935F
S315080040A03D4B0193144B02933C4B049301238DF82B
S315080040B00C30684604F042F9002840F0C682384BB6
S315080040C00093234B01930C4B0293364B0493012325
S315080040D08DF80C30684604F031F9002840F0BC82AF
S315080040E0314B0093314B0193034B029360E000BFC1
S315080040F0D88D0708E48D0708EC8D070851300008AD
S31508004100448E0708548E0708A1310008588E070800
S31508004110CD310008648E0708708E0708F93100084B
S31508004120748E0708888E07081D320008908E0708C7
S3150800413049320008A48E070819330008B48E070808
S31508004140E9300008C08E070861310008D08E0708DC
S31508004150E08E070845330008E88E0708753300081F
S31508004160F88E0708A53300080C8F0708D133000816
S315080041701C8F0708FD330008308F0708BD37000875
S31508004180448F0708648F0708713400086C8F070886
S3150800419055380008908F0708AC8F07087D37000848
S315080041A0B08F070801380008D08F0708F08F070876
S315080041B0A74B049301238DF80C30684604F0BEF82B
S315080041C0002840F05082A34B0093A34B0193A34BC6
S315080041D00293A34B049301238DF80C30684604F030
S315080041E0ADF8002840F046829E4B00939A4B019307
S315080041F09D4B02939D4B049301238DF80C30684622
S3150800420004F09CF8002840F03C82994B0093924BAE
S315080042100193984B0293984B049301238DF80C3025
S31508004220684604F08BF8002840F03282934B0093DE
S31508004230894B0193924B0293924B049301238DF879
S315080042400C30684604F07AF8002840F028828E4B35
S315080042500093814B01938D4B02938D4B049301235D
S315080042608DF80C30684604F069F8002840F01E8284
S31508004270884B0093784B0193874B0293874B0493A3
S3150800428001238DF80C30684604F058F8002840F0F1
S315080042901482834B0093704B0193824B0293824B9B
S315080042A0049301238DF80C30684604F047F800287B
S315080042B040F00A827D4B00937D4B01937D4B029320
S315080042C07D4B049301238DF80C30684604F036F8CC
S315080042D0002840F00082794B0093794B0193754B87
S315080042E00293784B049301238DF80C30684604F04A
S315080042F025F8002840F0F681734B0093734B019321
S315080043006C4B0293724B049301238DF80C3068466C
S3150800431004F014F8002840F0EC816E4B00934E4BE5
S3150800432001936D4B02936D4B049301238DF80C306A
S31508004330684604F003F8002840F0E281684B0093D1
S31508004340454B0193644B0293664B049301238DF806
S315080043500C30684603F0F2FF002840F0D881624B23
S3150800436000933D4B01935C4B0293604B04930123EE
S315080043708DF80C30684603F0E1FF002840F0CE8146
S315080043805B4B0093344B0193534B0293594B049365
S3150800439001238DF80C30684603F0D0FF002840F062
S315080043A0C481554B00932C4B01934B4B0293534BB3
S315080043B0049301238DF80C30684603F0BFFF0028EC
S315080043C040F0BA814E4B00934E4B01934E4B0293ED
S315080043D04E4B049301238DF80C30684603F0AEFF6C
S315080043E0002840F0B0814A4B0093464B0193464B58
S315080043F00293484B049301238DF80C30684603F06A
S315080044009DFF002840F0A681434B0093124B019371
S31508004410314B0293414B049301238DF80C306846C7
S3150800442003F08CFF002840F09C813D4B0093354BF0
S315080044300193294B02933B4B049301238DF80C30CF
S31508004440684603F07BFF002840F092816CE000BFCD
S3150800445091380008F88F0708E48D0708EC8D0708DF
S31508004460413900080C900708249007089D3C00086D
S315080044702890070840900708E53C0008449007087C
S315080044805C9007082D3D0008649007087C90070893
S31508004490753D000884900708A0900708BD3D0008F0
S315080044A0A8900708C8900708053E0008D490070892
S315080044B0608F0708E8900708C9340008F4900708D1
S315080044C0049107082D3500080C910708AC8F0708DA
S315080044D0ED350008209107082C910708B54C00080F
S315080044E0349107089D4800083C910708E94D0008E3
S315080044F048910708A94A000854910708654E00081C
S3150800450060910708888E07086891070891360008A1
S3150800451070910708F536000878910708114F0008CA
S315080045208891070819530008984B0093984B0193F4
S31508004530984B0293984B049301238DF80C306846E8
S3150800454003F0FCFE002840F01A8132222821934805
S315080045501BF06EF8282009B05DF804FB904B914AD1
S3150800456040F27551904852F03FFE8D4B8D4A40F20D
S315080045707D518D4852F038FE894B8A4A40F2855162
S31508004580894852F031FE864B864A40F28D5186485C
S3150800459052F02AFE824B834A40F29551824852F0E5
S315080045A023FE7F4B7F4A40F29D517F4852F01CFE06
S315080045B07B4B7C4A40F2A5517B4852F015FE784B5E
S315080045C0784A40F2AD51784852F00EFE744B754A5F
S315080045D040F2B551744852F007FE714B714A40F2E9
S315080045E0BD51714852F000FE6D4B6E4A40F2C551FE
S315080045F06D4852F0F9FD6A4B6A4A40F2CD516A4855
S3150800460052F0F2FD664B674A40F2D551664852F0C1
S31508004610EBFD634B634A40F2DD51634852F0E4FD1B
S315080046205F4B604A40F2E6515F4852F0DDFD5C4B55
S315080046305C4A40F2EE515C4852F0D6FD584B594A56
S3150800464040F2F651584852F0CFFD554B554A40F2C4
S31508004650FE51554852F0C8FD514B524A40F2066188
S31508004660514852F0C1FD4E4B4E4A40F20E614E483B
S3150800467052F0BAFD4A4B4B4A40F222614A4852F080
S31508004680B3FD474B474A40F22B61474852F0ACFD11
S31508004690434B444A40F23361434852F0A5FD404B30
S315080046A0404A40F23B61404852F09EFD3C4B3D4A31
S315080046B040F243613C4852F097FD394B394A40F283
S315080046C04B61394852F090FD354B364A40F25361FA
S315080046D0354852F089FD324B324A40F25C61324825
S315080046E052F082FD2E4B2F4A40F264612E4852F05A
S315080046F07BFD2B4B2B4A40F26C612B4852F074FD24
S31508004700274B284A40F28F61274852F06DFD244B0B
S31508004710244A40F29761244852F066FD204B214A0C
S3150800472040F29F61204852F05FFD1D4B1D4A40F242
S31508004730A7611D4852F058FD194B1A4A40F2AF615D
S31508004740194852F051FD164B164A40F2B761164801
S3150800475052F04AFD124B134A40F2BF61124852F01A
S3150800476043FD0F4B0F4A40F2C7610F4852F03CFD1C
S315080047700B4B0C4A40F2CF610B4852F035FD084B03
S31508004780084A40F2D761084852F02EFDA091070862
S31508004790888E07082C91070805550008B891070860
S315080047A0F48D07080CA40708348E0708314B1B7ACA
S315080047B003B9704770B582B0322010F0F9FA0025B7
S315080047C02AE0DDED007AF8EEE77A9FED2B7AC7EE60
S315080047D0876A284CC4ED006ADDED017AF8EE677A3F
S315080047E0C7EE876AC4ED016A01F072FD234BC3E97F
S315080047F00001206851F080FE02460B4620481AF058
S3150800480017FF606851F078FE02460B461D481AF0FD
S315080048100FFF2DE00135EDB2022D1BD86B4601AA1C
S3150800482040211948006855F022FA06460028C8D0E3
S31508004830012DEFD86C1C03232246014613481AF0B3
S31508004840F7FE04EB840404EB8404A00080B210F0A5
S31508004850AFFADFE7324603210D481AF0E9FE0D48A4
S315080048601AF0E6FE034B00221A720B4A1A605A60C7
S3150800487002B070BD801D002000007A449804002014
S31508004880F091070808920708B0A5002020920708AB
S3150800489060920708B092070800C079C42DE9F04372
S315080048A02DED028B85B004462A481AF0C1FEFFF7A3
S315080048B07DFF294B1B7A4BB1274B93ED008ADFED21
S315080048C0277AB4EE678AF1EE10FA11D1244D6922DF
S315080048D0244928466FF080FF23481AF0A9FE21468E
S315080048E0284653F09FFE05B0BDEC028BBDE8F08369
S315080048F0194FDFF86C80786851F0FEFDCDE90201AA
S3150800490018EE100A51F0F8FDCDE90001174A4FF4E8
S315080049107A7140461AF0B8FE01F0DAFC144A1668B5
S315080049205568861B61EB0505D7F80090786851F045
S31508004930E3FDCDE90201484651F0DEFDCDE900016F
S3150800494032462B460B481AF073FE2146404653F072
S3150800495069FEC8E7EC920708801D002000C079C4EC
S315080049601C1E00200C93070878930708B4930708C1
S3150800497098040020E4930708414B1B7A03B9704753
S3150800498070B582B0FA2010F013FA002601E001365D
S31508004990F6B2042E18D801A93A4B186855F0C0FA91
S315080049A0054688B1032EF2D8741C05232246014613
S315080049B035481AF03DFE04EB8404C4EB0414600089
S315080049C080B210F0F5F9E2E725B9962010F0F0F973
S315080049D000260FE02A4605212C481AF029FE2C4805
S315080049E01AF026FE264B00221A721A605A6037E021
S315080049F00136F6B2042E18D86946224B186855F0C7
S31508004A00AEFA054688B1032EF2D8741C0523224651
S31508004A10014620481AF00CFE04EB8404C4EB041487
S31508004A20600080B210F0C4F9E2E7DDB9DDED017A85
S31508004A30FCEEE77A124CC4ED007ADDED007AFCEE66
S31508004A40E77AC4ED017A01F043FC134BC3E9000190
S31508004A50216812481AF0ECFD616811481AF0E8FD61
S31508004A6002B070BD2A4605210E481AF0E1FD084835
S31508004A701AF0DEFD024B00221A721A605A60EFE73E
S31508004A80741D0020B0A50020249407086C9407081C
S31508004A90B0920708B89407089004002050950708B4
S31508004AA06095070800950708F0B583B004461B48CB
S31508004AB01AF0BEFDFFF760FF194B1B7AFBB1184DC4
S31508004AC0184E6B6800932B68174A4FF47A71304674
S31508004AD01AF0DAFD01F0FCFB144F3A687B68821A7B
S31508004AE0686801902868009061EB030310481AF083
S31508004AF09FFD2146304653F095FD03B0F0BD094DA4
S31508004B0060220C4928466FF067FE0B481AF090FDA4
S31508004B102146284653F086FDEFE700BF7095070843
S31508004B20741D00201C1E00202C96070890040020E7
S31508004B305096070890950708F0950708064B83EDE9
S31508004B40000AC3ED010A83ED021AC3ED031A83EDC9
S31508004B50042AC3ED052A70478C1D002070B5A8B03D
S31508004B604F481AF065FD78224E490AA86FF034FEC0
S31508004B7000260496059606960796089609963446DC
S31508004B802CE0012136E0002001F00AFC07EE900A2D
S31508004B90F8EE677A04EB840328AA02EB830313ED85
S31508004BA01B7A67EE877A48E0002228AB03EB84037A
S31508004BB043F8902C04EB840328AA02EB830353F8EA
S31508004BC0741C39481AF034FD51E0039B01330393F2
S31508004BD0039A4CF24F339A42F7DD0134052C49D833
S31508004BE004EB840328AA02EB830313F8685C002D00
S31508004BF0C7D0022104EB840328AA02EB830333F807
S31508004C00780C01F011FC0028CED0002DBBD0002076
S31508004C1001F0C6FB0546012001F0C2FB45EA004348
S31508004C2007EE903AF8EE677A04EB840328AA02EBBB
S31508004C30830313ED1B7A67EE877AA50028AB03EB8F
S31508004C40840343ED247A0136F6B217EE900A51F042
S31508004C5053FC02460B46291928A800EB810151F896
S31508004C60700C009051F8741C10481AF0E1FC0023EF
S31508004C700393ADE7062231460D481AF0D9FCDDED5F
S31508004C80092A9DED072ADDED061A9DED081ADDEDC8
S31508004C90050A9DED040AFFF751FF28B070BD00BF55
S31508004CA09096070824A40708C4960708B09607082C
S31508004CB0D89607082DE9F0432DED028B8FB00746ED
S31508004CC03C481AF0B5FCFFF749FFC82010F070F809
S31508004CD0FFF76CFD4FF4967010F06AF8FFF74CFE7C
S31508004CE0354B1B78002B61D0344A354B93ED018A3E
S31508004CF0B5EEC08AF1EE10FA5ADD3049304B1C6920
S31508004D00DD68304BD3F800802F4E0C910B922F4A5A
S31508004D1012680A92586851F0EFFBCDE9080140463F
S31508004D2051F0EAFBCDE90601284651F0E5FBCDE94D
S31508004D300401204651F0E0FBCDE9020118EE100A05
S31508004D4051F0DAFBCDE90001214A4FF47A71304679
S31508004D501AF09AFC01F0BCFA1E4A14685268041B41
S31508004D6061EB020801F0B4FA1B4A15685268451B44
S31508004D7061EB020901F0ACFA184A13685268C31AC3
S31508004D8061EB02010496029303910095CDF8049015
S31508004D902246434612481AF04BFC3946304653F031
S31508004DA041FC0FB0BDEC028BBDE8F0830D4A9CE7D1
S31508004DB00C49A3E7109707080E99002008970708DB
S31508004DC08C1D0020801D00201C1E0020741D002044
S31508004DD030970708A00400209804002090040020BB
S31508004DE0C49707080C9707082DE9F04182B00646D4
S31508004DF016481AF01DFCFFF7B1FEDFF86480144F61
S31508004E00D8F8040051F078FBCDE90001114A4FF4B7
S31508004E107A7138461AF038FC01F05AFA0E4A1568C3
S31508004E205468451B61EB0404D8F8040051F064FB90
S31508004E30CDE900012A46234608481AF0F9FB31460F
S31508004E40384653F0EFFB02B0BDE8F0810C9807082E
S31508004E501C1E00202C980708A00400204498070868
S31508004E608C1D00202DE9F0478CB0054622481AF023
S31508004E70DFFBFFF773FE214B1E685F68D3F80880D7
S31508004E80D3F80C90D3F810A01D4C586951F034FB98
S31508004E90CDE90A01504651F02FFBCDE908014846F5
S31508004EA051F02AFBCDE90601404651F025FBCDE934
S31508004EB00401384651F020FBCDE90201304651F095
S31508004EC01BFBCDE900010F4A4FF47A7120461AF010
S31508004ED0DBFB01F0FDF90C4E32687368821A009408
S31508004EE061EB030309481AF0A3FB2946204653F051
S31508004EF099FB0CB0BDE8F0877C9807088C1D00204C
S31508004F001C1E0020A0980708A00400201C9907086A
S31508004F102DE9F04F2DED028BCDB01590A1481AF072
S31508004F2087FBFFF71BFEC8200FF042FFFFF73EFC8A
S31508004F304FF496700FF03CFFFFF71EFD47A861F08F
S31508004F4093FC10B9BDF81C5100E00025964B399327
S31508004F50242200213AA86FF0CCFB43A9012061F076
S31508004F607EFA002800F0D18001F0B2F98F4A136862
S31508004F705268C31842EB01028D48016840685B1A03
S31508004F8062EB00028B48016840685B1842EB00023E
S31508004F90134340F0BF80DFED888A0DF1D00C874BB4
S31508004FA00FCBACE807008CF800300023CDF8DD30D5
S31508004FB038937F4B1A685B6852EA030106D080492A
S31508004FC00868496890429941C0F0D3807D4B1B68B8
S31508004FD0ADF8D0301B0C8DF8D230764BD3E90001F2
S31508004FE001F050F90346784A14212FA81AF04CFB11
S31508004FF000208DF85F0018AB16AA0DF15F01FDF7CA
S3150800500019FF002800F0C6809DF8A580A8F1AE0813
S315080050109DF8A460AE3E6D4B1B78002B00F0BD805A
S315080050206B4A6C4B93ED018AB5EEC08AF1EE10FA25
S3150800503040F3B5806649684BD3F804A0D3F800B0AE
S31508005040644BDC686548D0F80090654F139112925E
S31508005050186951F051FACDE91001204651F04CFA81
S31508005060CDE90E0118EE100A51F046FACDE90C0109
S315080050700B96CDF828802FAB099334AB089318EE1E
S31508005080900A51F039FACDE9060139AB0593049532
S31508005090584651F031FACDE90201504651F02CFA42
S315080050A0CDE900014B464F4A4FF47A7138461AF05B
S315080050B0EBFA01F00DF94C4A15685268451B61EB8D
S315080050C0020801F005F9494A16685268861B61EB21
S315080050D0020901F0FDF8464A13685268C01A61EBE6
S315080050E002010497029003910096CDF804902A468F
S315080050F0434640481AF09CFA1599384653F092FAF6
S315080051004DB0BDEC028BBDE8F08F39A943A803F07A
S3150800511033FD29E701F0DCF8244F3A687B688018EC
S3150800512043EB0101224E33687268C01A61EB020133
S3150800513051F034FE08EE100ADFED2F7A28EE278AA2
S3150800514001F0C6F83A687B68801843EB01033268B9
S315080051507168801A63EB010316490A684968801862
S3150800516043EB010151F01AFE07EE900AC8EE278AB2
S3150800517013E701F0ADF80E4A13685268C01A61EBDE
S31508005180020101F07FF803460F4A142134A81AF0E9
S315080051907BFA22E70026B0463DE7184A41E7174959
S315080051A049E700BF449907084E2F410070040020C4
S315080051B08004002068040020000000009CA4070862
S315080051C0780400206C990708409907080E99002072
S315080051D0089707088C1D0020801D0020741D0020DC
S315080051E01C1E002070990708A004002098040020BF
S315080051F090040020C49707080000C8420C970708C7
S3150800520030B52DED028B85B037481AF011FA6420B7
S315080052100FF0CEFD4021354B186854F070FD80B173
S31508005220014633481AF004FA324B00221A72324801
S315080052301AF0FEF9C8200FF0BBFD05B0BDEC028BD5
S3150800524030BD2E481AF0F4F92A4B01221A720022B0
S315080052501A605A602A4B00200021C3E90001294838
S315080052601AF0E6F94FF496700FF0A2FD002421E03B
S31508005270DDED037AF8EEE77ADFED236A9DED027A33
S31508005280B8EE477A87EE268AC7EEA67A17EE900A10
S3150800529051F032F904460D4618EE100A51F02CF971
S315080052A0CDE9000122462B4618481AF0C1F9BEE797
S315080052B00134E4B2022C13D803AB02AA40210B48EE
S315080052C0006854F0D4FC01460028D1D0621C10486E
S315080052D01AF0AEF9012CEBD8C8200FF069FDE7E704
S315080052E00C481AF0A5F9A2E79C9A0708B0A5002071
S315080052F0C49A0708801D0020109C0708FC9A070816
S3150800530098040020289B070800007A444C9B07084D
S315080053107C9B0708B49B070870B5064611481AF027
S3150800532087F9FFF76DFF104B1B7A8BB10F4C104DA9
S315080053300FCD0FC40FCD0FC495E8070003C4228014
S315080053400C481AF075F93146084853F06BF970BDE8
S31508005350E822094905486FF03FFA08481AF068F943
S31508005360F1E700BF3C9C0708801D00201C1E00209A
S315080053706C9C0708989C0708D49C0708BC9D0708DE
S3150800538030B585B049481AF053F949481AF050F92A
S31508005390C8200FF00DFD0121464B186854F093FD07
S315080053A0C0B1014644481AF043F944481AF040F996
S315080053B043481AF03DF943481AF03AF9424B00229D
S315080053C01A7242481AF034F94FF496700FF0F0FC4E
S315080053D005B030BD3E481AF02BF93B4B01221A7234
S315080053E000241C605C603B4B00200021C3E90001DF
S315080053F039481AF01DF921462E4B186854F088FDD5
S31508005400014658B935481AF013F935481AF010F913
S315080054104FF4C8700FF0CCFC002422E031481AF093
S3150800542007F9EFE7029851F067F804460D46039826
S3150800543051F062F8CDE9000122462B462A481AF0B7
S31508005440F7F8BEE7621C29481AF0F2F8032C06D8CA
S3150800545027481AF0EDF84FF496700FF0A9FC0134BE
S31508005460E4B2042C17D802A9124B186854F058FD58
S3150800547001460028E6D164200FF09AFC03A90D4BDB
S31508005480186854F06CFD01460028CBD0621C1948F8
S315080054901AF0CEF8DAE718481AF0CAF817481AF0D8
S315080054A0C7F817481AF0C4F88BE700BFF49D070839
S315080054B0249E0708B0A50020589E0708909E070856
S315080054C0D89E0708009F0708741D0020B8A1070882
S315080054D0309F0708900400205C9F0708C89F0708AC
S315080054E004A00708889F070840A00708B4A0070873
S315080054F0F0A0070878A0070818A107084CA1070814
S3150800550084A1070870B5064611481AF091F8FFF706
