S0290000545444462057692D53554E204E6F6465204D6F6E69746F72696E672053797374656D2E73333705
S3150800600008140020BD2C0108D1F2050813E0050884
S31508006010D1F20508D1F20508D1F20508D1F2050832
S31508006020D1F20508D1F20508D1F20508D1F2050822
S31508006030D1F20508B8150808B9920108D1F2050881
S31508006040D1F20508D1F20508D1F20508D1F2050802
S31508006050D1F20508D1F20508D1F20508D1F20508F2
S31508006060D1F20508D1F20508D1F205083DEF00087E
S31508006070D5E00508D1F20508D1F2050831EF000888
S31508006080D1E00508D1F20508D1F20508D1F20508D4
S31508006090D1F20508D1F20508853C0108D1F20508B8
S315080060A0D1F20508D1F205089937010879370108B0
S315080060B0D1F20508D1F20508B5EF0208ADFA0208D3
S315080060C02F7806082B78060825F202084578060870
S315080060D0337806087DFA020837780608EDFA0208CA
S315080060E0D9FB0208D1F20508D1F20508D1F2050854
S315080060F0D1F20508D1F20508D1F20508D1F2050852
S31508006100D1F20508D1F20508D1F20508D1F2050841
S31508006110D1F20508D1F20508D1F20508D1F2050831
S31508006120D1F20508D1F20508D1F20508D1F2050821
S31508006130D1F20508D1F20508D1F20508D1F2050811
S31508006140D1F20508D1F20508D1F20508259A010809
S31508006150D1F20508D1F20508498A070801D30208D1
S31508006160D1F20508D1F205081F7806082578060831
S31108006170D1F20508D1F20508D1F20508A5
S3150800617CF0B5114A114C124E00F00105E3695F07A0
S3150800618C13D40DB9334213D103EA00078F4207D152
S3150800619C0B4A1A40002A0CBF00206FF00100F0BD14
S315080061AC013AEBD16FF00200F9E74FF0FF30F6E752
S315080061BC6FF00100F3E700BF8096980000000350CB
S315080061CC0200010070B50B4BD96911F480310DD161
S315080061DC01244FF48072084E084DF46020462C6456
S315080061EC1A61FFF7C5FF3464EC6070BD6FF00100EF
S315080061FCFBE700BF000003500010035000200350BB
S3150800620C70B5C0F30C03054623B140F21A211148A8
S3150800621C00F0A2F84FF480320F4B104C9A66E669E0
S3150800622C41F6713316400122E3630D4B0021DA6007
S3150800623C0223656121202361FFF79AFF10B92120FB
S3150800624CFFF796FF0122074BDA600EB10023E363D2
S3150800625C70BD00BFD119080800900050000003500B
S3150800626C001003500020035070B5134C6061E369AD
S3150800627C5B071ED40E4656F8043B8D18A361AE4236
S3150800628C0BD10423002121202361FFF771FF58B994
S3150800629CBDE870402120FFF76BBF08210846FFF7C1
S315080062AC67FF10B10423236170BD56F8043BA36144
S315080062BCE5E74FF0FF30F7E7000003502DE9F84308
S315080062CC154682070F46064604D040F266211E483C
S315080062DC00F042F8AB0704D04FF41A711A4800F0D4
S315080062EC3BF84FF48032194BDFF868909A6603F541
S315080062FC1C33DA6902F4803841F67132DA6301220A
S3150800630C03F58053DA6065B928460122104BDA602A
S3150800631CB8F1000F03D00022A3F50053DA63BDE8E9
S3150800632CF88306F5005404EA0904A41BAC4228BFFA
S3150800633C2C46394622463046FFF796FF0028E4D10C
S3150800634C264427442D1BDEE7D11908080090005077
S3150800635C0020035000E0FFFF5FF800F0ADEB0008EB
S31508006370013800D0FCE770472DE9F04100231546A7
S31508006380C2E900014FF47A7280460F4656F0FCFDCA
S3150800639018A3D3E9002304460E464046394656F06C
S315080063A0F3FD134B80B228815843241A66F1000680
S315080063B04FF4616200232046314656F0E5FD4FF45E
S315080063C06163C0B2A8725843241A20464FF03C02B3
S315080063D04FF0000366F1000156F0D6FDC0B2E87230
S315080063E0C0EB0010A4EB80042C73BDE8F08100BF5D
S315080063F080510100005C2605000000000000000036
S315080064002DE9F843161E81460D461F460ADBF3178B
S3150800641031186B414FF0000228BF01224AB12120F2
S31508006420BDE8F88330466FF094FCC3174845AB4186
S31508006430F5D23D4B4B454FF04903AB41EFD316EB35
S31508006440090945EBE67529463C220023484656F0DD
S315080064509BFD00233A703C2256F096FD00237A7085
S31508006460182256F091FD04460130BA7088464FF05E
S31508006470070241F10001002356F086FD29463A72CB
S31508006480484627A3D3E9002356F07EFD85B2042D9E
S315080064903DD905F26C75A9B240F26C705BF08DFCC3
S315080064A0201A4FF0000368F1000140F26D1256F011
S315080064B06BFD85B205F26C7189B240F26C705BF0C7
S315080064C07CFC01462846FD805BF087FC40F26D1394
S315080064D0641A4FF00C014FF0000203FB05F568F152
S315080064E00008641B04F101037B81104B68F1000866
S315080064F001FB0030D3B2C35C511C9C4278F1000505
S3150800650007D2013400203A71FC70FE6088E700214A
S31508006510D8E7E31A1C460A4668F10008EAE700BF0E
S315080065208033E101000000007FBD6879B42A0808BD
S315080065302DE9F04F93B0CDE90A32DDE91C530E93ED
S3150800654053EC102BCDE90801104619468DED060BC4
S315080065501E9E56F0F1FA80B1DDE906014FF0FF32D2
S31508006560C54B56F011FB40B9DDE906014FF0FF3285
S315080065706FF4801356F0EAFA70B1DDE908019DED73
S31508006580060B0E9B1E96CDE91C53DDE90A3213B0A5
S31508006590BDE8F04F00F088B90022DDE906010023C6
S315080065A056F0D4FA002800F03381DDE906A303F19A
S315080065B0004BCBF30A5016F48063A0F2FF3008BFF5
S315080065C006250F9355F0E6FF9BA3D3E9002356F063
S315080065D04BF89BA3D3E9002355F090FECBF31304A5
S315080065E0894644F07F5180460022A44B504641F428
S315080065F0401155F081FE94A3D3E9002356F034F8F0
S3150800660002460B464046494655F078FE56F0C6FA0D
S31508006610044655F0BFFF8EA3D3E90023804689467A
S3150800662056F022F80022964B55F068FE56F0B6FA58
S3150800663089A3D3E9002307464946404656F014F88D
S3150800664080463846894655F0A5FF85A3D3E9002339
S3150800665056F00AF802460B464046494655F04CFEA7
S3150800666002460B46CDE90C2355F0FEFFDDE90C2367
S31508006670804689461046194655F040FE0022CDE967
S315080066801001804B4046494656F018F900227E4BC9
S3150800669055F034FE02460B464046494656F00EF97A
S315080066A000227A4B55F02AFE02460B4640464946DA
S315080066B056F004F9DDE90C238046894600204FF0A0
S315080066C0804155F019FE02460B464046494655F0AC
S315080066D015FE02460B46DDE9100156F0EFF807F203
S315080066E0FF3700226A4B55F009FE00223B0555F09C
S315080066F0BBFF52465B468046894656F045FA002857
S3150800670040F08980CDE90C8904F16303C72B34BFB7
S315080067100427052731051BD553A3D3E90023504683
S31508006720594656F027FA00287FD051A3D3E900230B
S315080067305046594656F00AFA002876D00027A54250
S31508006740C6BF2C1B04F1FF3500253C4646F480667F
S315080067500E9B9F422CBF4FF00008A3EB070816F0CC
S31508006760020903D0002F18BF4FF000083CB1DDE93D
S315080067700C235046594656F0A1F882468B46DDE969
S3150800678006010022002356F0E1F910B10BF100438F
S315080067909B46DDE9080126F40063CDE90183DDE9BE
S315080067A00A324BEC10AB009500F07EF802465FB358
S315080067B0DDE9091316F0200F00F10105089E0CBF4C
S315080067C065204520B047DDE9080105230022059329
S315080067D00A23002CCDE9023207F1FF374FEAD473BA
S315080067E0B8BF64422A46019304970A9B009460F056
S315080067F08DFA0246B9F1000F06D00B9BC41A0B9B03
S315080068001A190E9BA34245D8104613B0BDE8F08F5F
S31508006810DDE906ABCDE60022404649461A4B56F05E
S315080068204DF8013CCDE90C016EE7002D90D00F9B89
S31508006830002B8DD0013D8BE7FB799F501344D33F46
S31508006840B3C8608B288AC63F61436F63A787D23F68
S3150800685071A379094F930A401655B5BBB16B02402F
S31508006860EF39FAFE422EE63F2D431CEBE2361A3F7D
S315080068700000000080842E41FFFFEF7F0000F83FF4
S315080068800000E03F00002C400000244000001840B3
S315080068900000F03F2020DDE90913089DA8470134D0
S315080068A0ADE700BF000000002DE9F04F97B05BECA4
S315080068B010ABDDE92057CDE90501CDE907235046A0
S315080068C052465B465946229E56F036F970B903235E
S315080068D0CDE902760193B04B0093DDE90501DDE9C8
S315080068E0072360F033F917B0BDE8F08F4FF0FF3299
S315080068F06FF480135046594656F028F928B10423F8
S31508006900CDE902760193A54BE6E74FF0FF325046F4
S315080069105946A34B56F038F968B1A24A06F0040363
S31508006920002B08BF0322A04B1CBF13460422CDE947
S3150800693002760192D0E7504693A3D3E9002359463D
S3150800694056F022F938B992A3D3E90023504659469E
S3150800695056F0FCF868B1DDE90723DDE905014BECE3
S3150800696010ABCDE92176209517B0BDE8F04FFFF7BB
S31508006970DFBD002200235046594656F0E7F80028A6
S3150800698000F09A805B4652460020002155F0B4FC80
S31508006990012382468B46099316F4806400F08E80A4
S315080069A0092D40F28E80002430210EABA5F1090294
S315080069B00134202C03F8011BA5EB040901D09442ED
S315080069C0F6D15946504656F0E9F8784B054603EB9A
S315080069D0C90393ED007B8DED0A7B55F0DBFD02467E
S315080069E00B465046594655F087FCDDE90A2355F013
S315080069F03BFE02460B46CDE90C2356F0F7F88046D7
S31508006A0055F0B8FD02460B46DDE90C0155F074FC5D
S31508006A1002460B46CDE90C230022654B56F0B4F826
S31508006A20002851D008F10108404655F0A3FD02465A
S31508006A300B46DDE90A0156F093F810B14FF000084D
S31508006A400135B9F1000F50D1284655F0A3FD02468D
S31508006A500B465046594655F04FFC0022544B80468B
S31508006A60894656F073F830B1002240464946504BE5
S31508006A7056F08AF810B1E80700D501350A210EABA1
S31508006A801A19202C0AD095FBF1F001FB1055303568
S31508006A9002F8015B013405460028F2D106F003022C
S31508006AA0012A57D1002F55D0099A12B916F00C0FA2
S31508006AB000D0013F302245E009906DE74FF0060906
S31508006AC07FE7A94600247CE70022DDE90C01384B64
S31508006AD056F03CF80028B4D1B8F1000F02D018F0EF
S31508006AE0010FAED008F10108ABE70A210EAB23442B
S31508006AF0202C0ED0B8FBF1F001FB1082B8F1090F7B
S31508006B0002F1300209F1FF3904F1010403F8012BFF
S31508006B1011D83021A1440EAA202CAFD0A14504F1EA
S31508006B2001030AD11C4609F158030DEB03092E236C
S31508006B3009F8203CA2E78046DAE7A1541C46EBE7B1
S31508006B401A550134A74205D9202CF9D1CDE9027688
S31508006B500194C1E6202CF9D0099A3AB12D2104F105
S31508006B6058026A4402F8201C0134EFE7710704D57D
S31508006B7004F158022B216A44F4E73207E6D504F1FA
S31508006B80580220216A44EDE70000000065CDCD419A
S31508006B900000000065CDCDC1673B08086B3B0808BF
S31508006BA0FFFFEF7F5E3B0808633B0808703B080859
S31508006BB00000E03F00000000F0B5934C9FB022882B
S31508006BC0A3780021ADF80C2013A82C228DF80E30DE
S31508006BD06FF0F7F84FF00233159340F20B130AAD36
S31508006BE00434ADF874300FCC0FC50FCC0FC523682D
S31508006BF0864A2B60864B874D06930023CDE90733DB
S31508006C0009934FF0FF33284683492B6029F0F0F8A3
S31508006C100446002853D12868431C06D140F2A441F3
S31508006C207E4B7F4A7F4807F0A9FF03A929F01EF982
S31508006C300446002843D1286860F0D3F97A4E7B4F82
S31508006C403070286860F0CFF93870286860F0CDF9A0
S31508006C50774B78491870286829F006FC04460028FE
S31508006C602DD13378744E4BB974482DF09FFE3060A1
S31508006C70D0B940F2DC41724B694AD3E771482DF02E
S31508006C8095FE30600028EFD0C189286829F050FBAE
S31508006C903368214658682DF0C3FE044678B967481C
S31508006CA02DF084FE306090B1C189286829F040FB38
S31508006CB03368042158682DF0B3FE044638B12346DC
S31508006CC022210220604A61F024F91FB0F0BD11F0BC
S31508006CD023FA5E4BCDE9040104AAA3F1080112F8D0
S31508006CE0010B03F8010D9942F9D13B78002B46D1E7
S31508006CF05749286860F0A1FE04460028DFD15549A7
S31508006D00286860F084FE04460028D8D152492868CD
S31508006D1029F0AEF904460028D1D139A3D3E90023D6
S31508006D20CDE90023286860F08AFE04460028C6D10B
S31508006D304A4A4B49286860F0E2FE04460028BED15C
S31508006D40484A4949286860F0DEFE04460028B6D15C
S31508006D500121286829F0A8F804460028AFD1A02305
S31508006D60424A06A8D380424A136011F0A9FA414B59
S31508006D70186088B940F225513F4B294A52E71C2230
S31508006D80002116A86FF01DF8286813A929F068FDD8
S31508006D9004460028ACD092E722460121082011F0CB
S31508006DA0E9FB364B186020B94FF4A561344B1C4AF1
S31508006DB038E722460121082011F0DCFB314B186028
S31508006DC020B940F22B51304B154A2BE72F4A304950
S31508006DD030482FF01BFC2F484AF0D6FA00212E48DF
S31508006DE00AAA11F021FB2D4B186000287FF46DAF1D
S31508006DF040F237512A4B0A4A14E700BFAFF3008026
S31508006E00C88D01C10340000000BA08080D470308F1
S31508006E101BAF0808149E0020D424012030AF0808B0
S31508006E2001B90808EAAC0808FE120120FD12012083
S31508006E30FC12012007001100D08D0020C39406081B
S31508006E4057AF0808AD940608E2AF080807130120F3
S31508006E50FEB90808FCB90808189E00205E2601201D
S31508006E6008190020602601200C8E00201425012018
S31508006E70809E0020949E00206FAF0808909E0020F8
S31508006E808BAF08088C9E0020A8AF0808C8AF080872
S31508006E90C94B0308349E0020315D0308989E0020E4
S31508006EA0D1AF0808000000002DE9F34705465A4C03
S31508006EB022211020594A61F02CF81422294620462E
S31508006EC06FF026F8A27B564BDFF8A0A11A70637CF8
S31508006ED000228AF800300023CDE90023DFF89081EC
S31508006EE000224FF40073D8F8000060F0A8FD0646AB
S31508006EF020B10126304602B0BDE8F087494B4A4F1B
S31508006F001B787BB949482DF051FD04463C60FCB915
S31508006F10474A2221022060F0FCFF0122454B212628
S31508006F201A70E7E7444B454C1A88454BD8F80000D9
S31508006F3053F82210434A8B6821603B6029F082F897
S31508006F402268414B946824221B8802FB0344DDE730
S31508006F503E4B1C60394BD3F80090B9F1000F07D0AF
S31508006F6000232420D9F80C108B4208D100251AE0FA
S31508006F7040F2ED71364B374A374807F0FFFDD9F82E
S31508006F80085000FB0355EA695278120912F00E0FF1
S31508006F902BD0052A29D8314B0021EA89B3F90000FC
S31508006FA03D602DF075FD1AA3D3E90023CDE9002332
S31508006FB0D8F8000060F043FDD9F80820AA4207D0A7
S31508006FC0274B3A600421D289B3F900002DF060FD01
S31508006FD0244BE2893C601A80234B1B783BB92EF080
S31508006FE05FFD01202EF0EAF984E70133BCE79AF841
S31508006FF000301B0913F00E0FF1D101220721D8F832
S31508007000000060F04AFE0028E9D072E7AFF300807E
S31508007010C88D01C103420000D48D0020B7B308080B
S31508007020F3120120F7120120D08D0020094B030826
S31508007030D3B30808F512012010A80020C48D00203B
S31508007040F41E0120194703080EA80020CC8D002045
S315080070500FB40808BFB70808EAAC0808622601207A
S315080070606426012058260120FD120120F212012073
S31508007070149E0020000000002DE9F84390F8E8610E
S31508007080054644683EB902202721414A60F041FF7F
S315080070903046BDE8F88394F90130002B1ADA731EDE
S315080070A05BB2637000EB431393F825302370A06836
S315080070B055F082FA32A3D3E900238046894694F92B
S315080070C0017055F061FDF8B1002F1DDD013F002369
S315080070D0677024E09E42227805DD00EB431393F89F
S315080070E025309342E3D0002305F12501637058014A
S315080070F0085C904208BF637001339E42F7D8731E3E
S31508007100637000232371D2E740461FA3D3E9002307
S31508007110494655F039FDF0B12379E3B1013B2371B6
S3150800712094F9013005F5F57005EB431393F825300E
S31508007130237085F8EA31052395F8022285F8EC31A3
S3150800714085F8F02100230E2285F8EB3185F8F22127
S3150800715085F8F1319DE740460BA3D3E9002349465C
S3150800716055F0F4FC0028DBD023790133DBB2092B78
S315080071702371D5D9013EBE42D2DD0137A7E700BF4C
S31508007180666666666666E63F9A9999999999B93FD9
S315080071900E7D0908000000002DE9F8432DED028B4D
S315080071A087680546384616460C4655F005FA28A35C
S315080071B0D3E900238046894655F0E6FC88BB26A31A
S315080071C0D3E900234046494655F0C0FC60BBF7EEBC
S315080071D0007A07EE107A87EE878A6B7F607F012236
S315080071E0834224D000214AF065FD01220446314637
S315080071F0687F4AF05FFD044404F2D5702860D8B170
S3150800720007EE900AF8EE677A9FED0D7A67EE887AB0
S3150800721087EE270ABDEC028B10EE103AEB60BDE84C
S31508007220F8839FED088AD8E79FED078AD5E73146A8
S3150800723018464AF03FFDE1E79FED040AEAE700BF7A
S3150800724000007A44E4388E3F00401C4600000000E7
S31508007250CDCCCCCCCCCCEC3F9A9999999999B93F9D
S315080072602DE9F74F064690F8E8010D469146A0B37A
S315080072707468A3690133A361A37D06EB43131A7FE0
S3150800728002441A77D4E90732C3EB520207EE902A72
S315080072904000B8EE677A07EE900AF8EEE76AF4EE71
S315080072A0C76AF1EE10FA0BD507EE903A37EE667A12
S315080072B0F8EE677A77EE877AFCEEE77AC4ED077A16
S315080072C04FF0000BD9450BD842F21073A2699A42C7
S315080072D082BF0023C4E90633236203B0BDE8F08FFA
S315080072E0B5F802A02F79BAF1000F2ED0384655F01E
S315080072F051F9CDE90001504655F04CF902460B46C6
S31508007300DDE9000155F0DAFA02460B4600204C4941
S3150800731054F0F2FF55F08AFC07EE100A96F803328D
S31508007320AAEB0700034486F8033294F8243033B3F3
S3150800733094F825305B4522D1BAF1000F08D1C4F87C
S3150800734020A00BF1010B0635BCE7B7EE007AE5E79E
S31508007350E3690133E3612A78002AF2D000239846CC
S3150800736096F8E8C106F108019C450FD8B8F1000F58
S3150800737014D127210220334A60F0CBFDE1E72A78B1
S31508007380002ADED0BAF1000FDBD0E7E791F81DE05E
S315080073900133964508BF88462031E5E7002288F87C
S315080073A01420B8F81020D8F8043017440133BAB2BC
S315080073B0C8F80430A8F810701AB198F81D2086F895
S315080073C01422F7EE007A012B77EEC77A8CBFB3EE5C
S315080073D0097A9FED1D7AB8F8122088BF67EE877A7A
S315080073E00244A8F81220D8F808208CBF9FED177A17
S315080073F067EE877A06EE102ADFED156AE6EE077A5B
S3150800740087EEA67A17EE103A17EE100AC8F8083073
S3150800741055F0D2F808A3D3E9002355F097FB18B125
S31508007420FF2388F815308CE798F91530013388D191
S315080074300423F6E7AFF30080666666666666EE3F87
S315080074400000F03F2E7D09080000484200009642E1
S315080074500000C842000000002DE9F04F2DED028B18
S31508007460054600274FF0200A4FF0080B0B46082068
S315080074704D4A87B08846272160F04BFD95F8E831DC
S3150800748027210820494A60F044FD6C6805F1080682
S31508007490E37D23716371637595F8E891B9450DDC51
S315080074A03FA7D7E900674FF00008AA46C346C1457B
S315080074B046D807B0BDEC028BBDE8F08FE17D4246A9
S315080074C01AFB01B130462944FFF766FE96F81D906F
S315080074D00495F06855F070F8CDE90201B06855F0EA
S315080074E06BF84B46CDE90001314A2721082060F0A8
S315080074F010FD2379D6ED037A05EB431292ED057A52
S31508007500F4EEC77AF1EE10FA02DB327F22710EE052
S3150800751017B995F82420F9E7637905EB431393ED3A
S31508007520057AF4EEC77AF1EE10FA04DB337F63715D
S3150800753001372036B0E7012FFAD195F84430F6E73F
S31508007540E37D434515D09AED048A18EE100A55F0E6
S3150800755033F832463B4655F00DFB10B9BBF1000F28
S315080075600CD19AF8243022799A4202D062799A424A
S3150800757011D108F101080AF1200A98E7637D05EBA5
S315080075804313D3ED047AB4EEE78AF1EE10FAE8DA9B
S315080075904FF0010BEDE76375FAE700BFAFF3008024
S315080075A0666666666666EE3F467D0908687D090872
S315080075B0777D0908000000002DE9F047D0F804801F
S315080075C000EB411393F8245098F817300446AB4261
S315080075D02DD098F81530AB4229D000EB411ADAF8CD
S315080075E010004FEA411954F0E7FF13A3D3E900232B
S315080075F006460F4655F0B4FA10B99AF91D00A0B11F
S3150800760098F80430AB4212D098F80530AB420ED049
S3150800761009A3D3E900233046394655F0B5FA18B11F
S315080076204C44637F013B63770120BDE8F087002067
S31508007630FBE700BFAFF30080666666666666EE3FE8
S315080076402DE9F34704460E46456827210820804A57
S3150800765060F05FFC20463146FFF7FEFE28466DF0D7
S31508007660B3FB002800F0BA8020466DF0C0FB061E6A
S31508007670C0F2B48094F8E8319E4280F2AF8004EB01
S315080076804617334627210820724A60F042FC272114
S31508007690082097F82530704A60F03BFC012295F8DF
S315080076A004C085F8242004EB4C13386A196A88420A
S315080076B097F8250002D8397F322977D9012284F82C
S315080076C0EC21002284F8EA0184F8EB21A97D2970CF
S315080076D093F8251084F8F01193F8263084F8F121F0
S315080076E084F8F231697D85F801C004EB411393F8FB
S315080076F02500012684F8F60193F8263084F8F83137
S31508007700002384F8F731A97085F82520A04605F1ED
S31508007710FF3904F1120A19F8013F5F1C002E00F028
S31508007720898004EB4313186954F046FF02460B465A
S31508007730CDE9002342A3D3E9002355F025FA40B941
S3150800774041A3D3E90023DDE9000155F0FFF900283C
S3150800775070D004EB4717BB79042B8EBF0223013385
S31508007760C3F3460388F8EC3108F10608C245D2D1BE
S31508007770EA7D04F5F57004EB421393F8253084F896
S31508007780FC31002384F8FD31EA7085F8243094F83A
S31508007790F22194F8EC31134494F8F821C3F1130359
S315080077A09B1A84F8FE3102B0BDE8F08793F825707D
S315080077B0697D84F8EA7193F8263084F8EC31002361
S315080077C084F8EB3185F800C084F8F13184F8F001CB
S315080077D084F8F22104EB41136E7088E700262A79B3
S315080077E004EB421393F8251084F8EA1193F826302F
S315080077F084F8EB6184F8EC312A706A7904EB421359
S3150800780093F8251084F8F01193F8263084F8F1617E
S3150800781084F8F2316A706A7D04EB421393F82510F6
S3150800782084F8F61193F8263084F8F76184F8F8316D
S31508007830AA706BE704EB4717BB7993E7AFF30080B1
S31508007840666666666666EE3F9A9999999999B93F0A
S315080078509B7D0908A97D0908B97D09080000000073
S315080078602DE9F8432DED028B8768054638461646FE
S315080078700C4654F0A1FE2EA3D3E900238046894680
S3150800788055F082F900283DD12BA3D3E900234046C1
S31508007890494655F05BF9C0BBF7EE007A07EE107A59
S315080078A0AB7F87EE878A07EE903AB8EEE77AB4EEB2
S315080078B0C87AF1EE10FA01D5B8EE678A6B7F607F59
S315080078C00122834224D000214AF0F4F90122044619
S315080078D03146687F4AF0EEF9044404F2D570286010
S315080078E0D8B107EE900AF8EE677A9FED0D7A67EE43
S315080078F0887A87EE270ABDEC028B10EE103AEB6009
S31508007900BDE8F8839FED078AD8E79FED078AD5E794
S31508007910314618464AF0CEF9E1E79FED040AEAE750
S3150800792000007A44E4388E3F00401C460000000000
S31508007930CDCCCCCCCCCCEC3F9A9999999999B93FB6
S315080079402DE9F04F2DED028B90F8E83105460E46ED
S31508007950934689B0002B00F0238127210820964AF8
S3150800796060F0D7FA00226C68A1690131A16195F827
S31508007970E80190423DD8D4E907230A2779436427CA
S31508007980B1FBF7F1C2EB53030B4407EE903A430001
S3150800799006EE903AF8EE677AF8EEE66AF4EEE76AEB
S315080079A0F1EE10FA0BD507EE102A77EEE67AB8EE66
S315080079B0477A77EE277AFCEEE77AC4ED077A00274E
S315080079C0B846BB451DD8B8F1010F00F0E680B8F1FE
S315080079D0130F40F2B9800023A3612721082095F8E8
S315080079E00332764A09B0BDEC028BBDE8F04F60F071
S315080079F090BAA37D013205EB43131F7F01371F772A
S31508007A00B7E7B6F8029096F804A0B9F1000F41D08E
S31508007A10504654F0BFFDCDE90601484654F0BAFD7C
S31508007A2002460B46DDE9060154F048FF02460B46BE
S31508007A300020634954F060FC55F0F8F808EE100A87
S31508007A40337818EE100A0693049554F0B5FD069B94
S31508007A50CDE902015B4A27210820CDE9009A60F0AA
S31508007A6058FA7288337995F80312D31A0B4485F8B5
S31508007A70033294F82430C3B194F82530BB4214D1AC
S31508007A805AB92262272108204F4A60F042FA013784
S31508007A90063696E7B7EE008AD2E7E369272101336F
S31508007AA008204A4AE36160F034FAB6F802A0BAF14F
S31508007AB0000FECD00023E25D05EB4211C8680B7796
S31508007AC00130C86096F804C00B8B4FEA421963442C
S31508007AD09BB20B831BB191F8253085F81432F7EE6B
S31508007AE0007A05EB0902538B01285344A3EB0C03D8
S31508007AF077EEC87A53830DD9B2EE0E7AD2ED046AC0
S31508007B0027EE877ADFED327AA6EEA77ADFED316ABD
S31508007B10C7EE267AA944C9ED047A17EE900A54F0FE
S31508007B204BFD23A3D3E9002355F010F830B1FF230A
S31508007B3089F81D30C2441FFA8AF8A8E799F91D305A
S31508007B400133F7D10423F3E7B8F1020FD4ED0B7A2A
S31508007B50B1EE047A15D977EE877AB3EE047AF4EEA5
S31508007B60477AF1EE10FA77FE277A42F21073A26985
S31508007B70C4ED0B7A9A4282BF0023C4E90633236216
S31508007B802BE7F2EE046A77EEE67AF4EE477AF1EE40
S31508007B9010FA48BFF0EE477AE7E7DFED0F7AE4E739
S31508007BA009B0BDEC028BBDE8F08F00BFAFF30080D3
S31508007BB0666666666666EE3FFE7D0908647E0908A7
S31508007BC00000F03F147E0908457E0908547E09081E
S31508007BD00000AA420000C8420000000000000000A1
S31508007BE02DE9F84F2DED028B0546884600274FF004
S31508007BF020094FF0080B446800F10806E37D23715D
S31508007C006371637595F8E8A1BA450CDC0FF2D009E3
S31508007C10D9E9008900262F46B346B24532D8BDECCD
S31508007C20028BBDE8F88FE17D424619FB01B130466B
S31508007C302944FFF715FE2379D6ED037A05EB43129F
S31508007C4092ED057AF4EEC77AF1EE10FA02DB327F8E
S31508007C5022710EE017B995F82420F9E7637905EB48
S31508007C60431393ED057AF4EEC77AF1EE10FA04DBC6
S31508007C70337F637101372036C4E7012FFAD195F8AF
S31508007C804430F6E7E37DB34215D097ED048A18EE43
S31508007C90100A54F091FC42464B4654F06BFF10B95B
S31508007CA0BBF1000F0AD197F8243022799A4202D004
S31508007CB062799A420FD101362037AEE7637D05EB2C
S31508007CC04313D3ED047AB4EEE78AF1EE10FAEADA52
S31508007CD04FF0010BEFE76375FAE700BFAFF30080DB
S31508007CE0666666666666EE3F2DE9F047456890F873
S31508007CF0E821AB690446B3EB420F2ED900EB4113DA
S31508007D0093F82480EB7D43452AD06B7D434527D0E5
S31508007D1000EB411ADAF810004FEA411954F04CFC0E
S31508007D2011A3D3E9002306460F4654F019FF10B9EC
S31508007D309AF91D0090B12B79434511D06B794345CB
S31508007D400ED009A3D3E900233046394654F01CFF68
S31508007D5018B14C44637F013B63770120BDE8F08787
S31508007D600020FBE7AFF30080666666666666EE3F50
S31508007D700348044B834202D0034B03B118477047AC
S31508007D80AC320120AC32012000000000064B074946
S31508007D90C91A891048BF0131491003D0044B0BB1E9
S31508007DA001481847704700BFAC320120AC320120A9
S31508007DB00000000010B5064C237843B9FFF7D8FF3A
S31508007DC0044B13B10448AFF300800123237010BDA0
S31508007DD020A8002000000000F095090808B5054B0A
S31508007DE01BB105490548AFF30080BDE80840FFF719
S31508007DF0CDBF00BF00000000E8220020F09509086A
S31508007E00A3F5803A704700BF174B002B08BF134BEA
S31508007E109D46FFF7F5FF00218B460F461348144A87
S31508007E20121A6DF0CEFF0E4B002B00D098470D4B63
S31508007E30002B00D098470020002104000D000D48B3
S31508007E40002802D00C48AFF3008055F0A7FD2000AB
S31508007E50290059F070FF55F027FA00BF0000080006
S31508007E60000000000000000008140020081400208C
S31508007E70001C0120000000000000000008B505F005
S31508007E802BFB0022084BC3E90001084BC3E900019C
S31508007E90074B08491A8000220023C1E90023064936
S31508007EA0C1E9002308BD00BF881400208014002003
S31508007EB06AA7002078140020701400202DE9F04FDE
S31508007EC09BB000AF00233149314A04460D4692461D
S31508007ED018460133DBB2082B01F8010B02F8010B37
S31508007EE0F7D107F10B0060F0C8F918B181B229483B
S31508007EF020F040FA6A46FB7A07F10B00A2EBC303AF
S31508007F009D4669466E4660F0CDF918B181B22248A1
S31508007F1020F030FA4FF00008FA7A5FFA88FB5A45E3
S31508007F2008D820462B686C3723606B686360BD46AB
S31508007F30BDE8F08F06EBCB094FEACB0307F10C013E
S31508007F4048467B6060F0C7F9F96A49B9134948465B
S31508007F5060F0C1F956F83B102960D9F80410696039
S31508007F60F96A01290ED148460D4960F0B4F97B68D3
S31508007F703344994656F83B30CAF80030D9F80430ED
S31508007F80CAF8043008F10108C6E700BFD9B00020D6
S31508007F90D1B00020A88A0708E18A070834BA002069
S31508007FA0DBB9002013B56846FFF788FF084C094A75
S31508007FB02146D3790848927920F0F0F92146074AF4
S31508007FC00748D379927902B0BDE8104020F0E6B9A7
S31508007FD0158B0708D9B00020C0B90020D1B0002001
S31508007FE0B8B900202DE9F043A7B02E4C21AE2046A3
S31508007FF060F000FA55F0D9FF2B490246304620F0CA
S31508008000CDF9FFF7CFFF294B2088D3E900120131BC
S3150800801042F10002C3E90012254B264D5F89264B23
S315080080201E93264BD3E90A89CDE91C89D3E9088929
S31508008030CDE91A89D3E90689CDE91889D3E90489EE
S31508008040CDE91689D3E90289CDE91489A378CDE962
S315080080500F07CDE91173CDE90C12194B0E900A964C
S3150800806093F844204FF48061099293F845202846F6
S315080080700892B3F840200792DA8F06929B8F114A2E
S315080080800593114B0493114B0393114B0293114B18
S315080080900193114B0093114B20F094F9284627B011
S315080080A0BDE8F0838DBA002098AD07086814002053
S315080080B01C240020E9B4002054B90020081400202C
S315080080C034BA00202C8B0708C0B9002091BA0020CA
S315080080D0EBB80020868C0708C8B9002099B00020A4
S315080080E02DE9F04FF7B0219055F05FFFDFF8849245
S315080080F002468B4923A820F051F9FFF753FF48465B
S3150800810060F06CF8874860F075F9874C3CA9042044
S3150800811060F01AF8012059A960F016F8D4E900327F
S31508008120013342F10002C4E9003299F80030DFF861
S3150800813048A2052B28AD2DAE32AF40F09F8005F042
S31508008140CBF97A4ADFF834B2D2E90032B0EB030849
S3150800815061EB02094946404605F098F9704902461E
S31508008160284620F01BF97249304620F017F9DAE95B
S31508008170000118EB000049EB010105F087F9684991
S315080081800246384620F00AF9DBE9000105F07EF9D7
S315080081906349024637A820F001F9DAE90001DBE96C
S315080081A0003218EB000049EB010110EB030A41EB22
S315080081B0020B5AEA0B0340F09E805E48479B1F93CA
S315080081C0439B1E939DF8AC311D935A9B1C93619B50
S315080081D01B935B9B1A93649B1993524B9B7818933A
S315080081E037ABCDE9167354F0E7F9CDE91401524BD4
S315080081F01B881393514B1B881095CDE91163504D7D
S31508008200686854F0B7F964230646E8680F46B0FB79
S31508008210F3F054F0AFF902460B463046394654F0AF
S315080082204DFBCDE90E01D4E90023CDE90C2323ABA0
S315080082300B93444B4FF4806193F8442042480A92CA
S3150800824093F845200992B3F840200892DA8F0792EE
S315080082509B8F3E4A06933E4B05933E4B04933E4BFB
S3150800826003933E4B02933E4B01933E4B0093219B57
S3150800827020F0A8F8344877B0BDE8F08F05F02CF95F
S31508008280394AD2E90032B0EB030861EB020B284603
S3150800829099F80020354920F081F85946404605F0FE
S315080082A0F5F81F490246304620F078F8DAE9000169
S315080082B005F0ECF8DFF8C49002461949384620F074
S315080082C06DF8D9E9000118EB00004BEB010105F048
S315080082D0DDF81349024637A820F060F8DAE900010C
S315080082E0D9E9003210EB030A41EB02031AEB080A3C
S315080082F04BEB030B5DE754F081F900221C4B54F05D
S31508008300B3F9804689465046594654F077F90246ED
S315080083100B464046494654F0D1FA54F087FC4DE7DF
S3150800832098AD07088DBA002068140020881400202C
S315080083308B8C07080000C84268A700206AA700209F
S315080083404823002034BA0020E9B40020A28C07088C
S31508008350C0B9002091BA0020EBB80020868C070827
S31508008360C8B9002099B00020801400208E8C070818
S3150800837000005940E9B80020781400207014002045
S3150800838037B5604901205FF067FE05465E495D48DE
S315080083900AF040F95D4C002D00F09C804FF4AF6167
S315080083A05B4A206820F00EF855F0FFFD2368024668
S315080083B0584900205EF0CAFD55F0F7FD22680146CF
S315080083C054481FF0D7FF4FF4AF61534AABB2206849
S315080083D01FF0F8FF002021685EF0B8FD20681FF046
S315080083E0C9FF4FF4AF614D4B4D4A20681FF0EAFFB5
S315080083F055F0DBFD23680246464900205EF0A6FDDF
S3150800840055F0D3FD2268014642481FF0B3FF4348A2
S315080084106DF08BFD434A0146404856F0F1FC42494F
S3150800842040480AF0F7F840F2D54300934FF4AF619D
S315080084303D4B3E4A20681FF0C5FF55F0B6FD236840
S315080084400246344900205EF081FD55F0AEFD2268F3
S31508008450014630481FF08EFF4FF4AF61344B354A62
S3150800846020681FF0AFFF55F0A0FD23680246294992
S3150800847000205EF06BFD55F098FD22680146254800
S315080084801FF078FF2A486DF050FD2B4A0146284810
S3150800849056F0B6FC294928480AF0BCF841F235637B
S315080084A000934FF4AF61254B254A20681FF08AFFD9
S315080084B055F07BFD23680246164900205EF046FD0E
S315080084C055F073FD2268014612481FF053FF2846EF
S315080084D003B030BD4FF4AF610B4B1A4A20681FF04A
S315080084E071FF55F062FD236802460A4928465EF088
S315080084F02DFD55F05AFD2268014606481FF03AFF41
S315080085006FE700BFC1B0002099B00020D02400203A
S31508008510193308080C8F0708148F0708748F070883
S31508008520868F07083423002049B00020A18F07084A
S31508008530C88F0708DA8F07081423002021B0002007
S31508008540F68F0708518F0708F8B5FFF719FF0322BA
S315080085500221002028F0EEFE514A411C0346514CE8
S31508008560106023D14FF4AF614F4A20681FF02AFFED
S3150800857055F01BFD236802464C4900205EF0E6FCD8
S3150800858055F013FD2268014648481FF0F3FE484A95
S315080085904FF4AF6120681FF015FF216800205EF0D8
S315080085A0D5FC20681FF0E6FE0120F8BD4FF4AF6148
S315080085B0404A20681FF006FF55F0F7FC236802467C
S315080085C03A4900205EF0C2FC55F0EFFC0025014652
S315080085D02268394E35481FF0CDFE40F2D540356049
S315080085E05FF0A4FC0322B0800221284628F0A2FEF0
S315080085F0324E421C0346306016D14FF4AF612A4A08
S3150800860020681FF0DFFE55F0D0FC23680246274994
S3150800861028465EF09BFC55F0C8FC226801462348B4
S315080086201FF0A8FE264AB3E74FF4AF61254A206833
S315080086301FF0C8FE55F0B9FC236802461B492846B8
S315080086405EF084FC55F0B1FC1F4F014622681748BE
S315080086501E4C1FF08FFE41F2356025605FF066FC08
S3150800866033683E46A08046F8043B0FCC0FC694E814
S315080086700F0086E80F0041F20303FB843223BB6236
S3150800868042F22A3312484FF40071BB85B86356F09C
S31508008690C7FE7D63F88587F8245028463D6484E73D
S315080086A004230020D0240020193308080C8F07085B
S315080086B01D90070853900708282300200023002050
S315080086C083900708BA900708841E01200823002013
S315080086D0EA90070873B53C4D4FF40071E86356F00D
S315080086E09FFE288605F1240056F0C7F9064656F07F
S315080086F0ADF90446E8B9354D009640F29B434FF470
S31508008700AF61334A28681FF05DFE55F04EFC2B68B2
S315080087100246304920465EF019FC55F046FC2A68A8
S3150800872001462C481FF026FE40F29D45284602B019
S3150800873070BD05F1240156F0A2F900281CDA234D74
S315080087404FF494634FF4AF61234A28681FF03AFE4A
S3150800875055F02BFC1F4902462B6800205EF0F6FBFD
S3150800876055F023FC2A6801461A481FF003FE002527
S31508008770204656F077F9D9E720230193174B32465E
S31508008780009321460023286828F044FE0130EED1E4
S315080087902B680E4E00934FF4AF6140F2A943104A7E
S315080087A030681FF00FFE55F000FC33680246094991
S315080087B000205EF0CBFB55F0F8FB32680146054811
S315080087C01FF0D8FD3125D3E7841E0120D0240020D0
S315080087D0FD9007080C8F07083D910708082300201D
S315080087E0779107082DE9F04385B005461C469DF8A4
S315080087F030609DF83470002A00F08F80002978D008
S3150800880055F0D3FB014671481FF0B4FD28461FF00A
S31508008810B1FD002C40F09A800124002E3CD02B4656
S315080088204FF480616A4A6B481FF0CCFD2023019300
S31508008830694BDFF8D091009386B20023324665492A
S31508008840D9F8000028F0E6FD013040F0838040F2B8
S31508008850D5430293614B03960193D9F80030DFF8AC
S315080088608C8100934FF4AF614FF49A635C4AD8F851
S3150800887000001FF0A7FD55F098FB5A490246D8F8A4
S31508008880003000205EF062FB55F08FFBD8F8002020
S31508008890014654481FF06EFD3FB32B464FF48061E6
S315080088A04B4A51481FF08EFD83B2B3F5007F54D969
S315080088B04FF400734D4D80B20193009040F2D943B6
S315080088C04FF4AF614A4A28681FF07CFD55F06DFBEE
S315080088D0444902462B6800205EF038FB55F065FBDC
S315080088E02A6801463F481FF045FD204605B0BDE809
S315080088F0F0831FF03FFD002C8ED00124DFF8EC80BA
S315080089002A464FF4AF61D8F800001FF05BFDD8F88F
S31508008910001000205EF01AFB16E0002B3FF47DAF36
S31508008920B1B11446DFF8C4802A464FF4AF61D8F8CF
S3150800893000001FF047FD55F038FBD8F80030024616
S31508008940284900205EF002FB013466E70124E9E7C6
S315080089500C46D3E70134E4B29EE72348FFF7BAFE94
S31508008960064610B90134E4B2BFE7204D4FF4AF61B3
S31508008970204A28681FF026FD55F017FB2B6802468B
S31508008980184900205EF0E2FA55F00FFB2A68014606
S3150800899014481FF0EFFC41F235630293164BB6B24A
S315080089A00193164B03961B68154A00934FF4AF6163
S315080089B040F2DD4328681FF005FD296800205EF0B7
S315080089C0C5FA28681FF0D6FC8FE700BFA5910708EF
S315080089D098AD070821AC00202823002049B00020C4
S315080089E0AB9107080C8F070821A80020D024002087
S315080089F0099207081933080821B00020002300202F
S31508008A0075920708042300202DE9F04F9BB004F067
S31508008A10C5FC03F071FDC4481FF0ACFCC34856F012
S31508008A2037FDC3481FF0A6FC06F034F9C1486DF0BF
S31508008A307CFAC14CC14DD0B1E3880133E38003F021
S31508008A4019FD4FF4AF61BB4BBD4A28681FF0BAFC4D
S31508008A5055F0ABFABB4902462B6800205EF076FA61
S31508008A6055F0A3FA2A680146B6481FF083FC4FF46E
S31508008A707A706FF0BAFAB4481FF07CFCB34AB4496E
S31508008A80B4481FF08BFCB44BB44EB54F0293B54BAC
S31508008A9064213046B44A01930097AE4B1FF092FC0E
S31508008AA0CDE900764FF4AF61AA4BB04A28681FF0AB
S31508008AB089FC55F07AFA2B680246A24900205EF036
S31508008AC045FA55F072FAAA4F01462A689D481FF0E2
S31508008AD051FC5021A74BA84AA84800971FF072FCE2
S31508008AE00DA80AF06BFA119B50211B69A44ACDE91F
S31508008AF00073A2489F4B1FF065FC33464FF4AF61E5
S31508008B00A04A28681FF05EFC55F04FFA2B6802460B
S31508008B108C4900205EF01AFA55F047FA2A68014691
S31508008B2088481FF027FC4FF4AF61944B954A286894
S31508008B301FF048FC55F039FA2B6802468149002097
S31508008B405EF004FA55F031FA2A6801467D481FF0AE
S31508008B5011FC4FF4AF618C4B8C4A28681FF032FC2D
S31508008B6055F023FA2B680246764900205EF0EEF9A6
S31508008B7055F01BFA2A68014672481FF0FBFB0120D4
S31508008B802E6809F0DBFD4FF4AF610346804A304694
S31508008B901FF018FC55F009FA2B68024669490020AF
S31508008BA05EF0D4F955F001FA2A68014665481FF0C7
S31508008BB0E1FB02234FF4AF61764A28681FF002FCF6
S31508008BC055F0F3F92B6802465E4900205EF0BEF9BF
S31508008BD055F0EBF92A6801465A481FF0CBFB0121EC
S31508008BE0032004F093F9012203211A2004F0B6F9B0
S31508008BF001220421102004F0B1F901222220114695
S31508008C0004F0ACF9012204210B2004F0A7F9012293
S31508008C102520114604F0A2F901221D20114604F070
S31508008C209DF901220221002004F098F9012202216F
S31508008C30282004F093F9584B4FF48061444A57486A
S31508008C401FF0C0FB4FF4AF61554A28681FF0BAFB06
S31508008C5055F0ABF92B6802463A4900205EF076F9E2
S31508008C6055F0A3F92A68014636481FF083FB4FF4EE
S31508008C70AF614C4A28681FF0A5FB55F096F92B689A
S31508008C800246304900205EF061F955F08EF92A68EF
S31508008C9001462C481FF06EFB4FF4AF61424B434A26
S31508008CA028681FF08FFB55F080F92B680246254986
S31508008CB000205EF04BF955F078F92A6801462148FC
S31508008CC01FF058FB4FF4AF61394B3A4A28681FF03A
S31508008CD079FB55F06AF92B6802461A4900205EF0BE
S31508008CE035F955F062F92A68014616481FF042FB25
S31508008CF04FF4AF61304A28681FF064FB55F055F908
S31508008D002B6802460F4900205EF020F955F04DF910
S31508008D102A4E01462A680B481FF02CFB30465FF0A6
S31508008D2082FA30464CE000BFDF920708F8EB0708E6
S31508008D30179307084CE400201C240020D0240020A8
S31508008D40549307080C8F070819330808868C0708F8
S31508008D5098AD0708D0B900207C93070854B90020BD
S31508008D60989307088193070870930708A193070843
S31508008D70CC930708AB930708B793070804B90020F4
S31508008D80D5930708708F0708FF93070813940708F9
S31508008D901F94070830940708E42E0808E9B0002055
S31508008DA0469407085D940708779407088794070888
S31508008DB09F940708AF940708C7940708E1B00020F6
S31508008DC009F0B0FD8949024689481FF0E7FAF379A8
S31508008DD0B279884988481FF0E1FA4FF4AF61844BAD
S31508008DE0864A28681FF0EEFA55F0DFF82B68024627
S31508008DF0834900205EF0AAF855F0D7F82A6801469C
S31508008E007F481FF0B7FA4FF4AF617B4B7D4A28685D
S31508008E101FF0D8FA55F0C9F82B68024678490020A1
S31508008E205EF094F855F0C1F82A68014674481FF0B8
S31508008E30A1FA754975481FF0B1FA4FF4AF61734B43
S31508008E40734A28681FF0BEFA55F0AFF82B68024639
S31508008E506B4900205EF07AF855F0A7F82A680146B3
S31508008E6067481FF087FA237B53B96A49942007F0AD
S31508008E707BFF9520674907F077FF012002F034FF52
S31508008E8065498B2007F070FF03F076F9637BE3B141
S31508008E90267B002E40F0A18001205FF0EEFA4FF409
S31508008EA0AF61637B5D4A28681FF08CFA55F07DF840
S31508008EB0534902462B6800205EF048F855F075F8CD
S31508008EC02A6801464E481FF055FA4FF4AF612389C8
S31508008ED0534A28681FF076FA55F067F82B68024659
S31508008EE0474900205EF032F855F05FF82A680146D7
S31508008EF043481FF03FFA60895FF014FB4FF4AF61F7
S31508008F006389484A28681FF05DFA55F04EF82B68C1
S31508008F1002463B4900205EF019F855F046F82A68E3
S31508008F20014637481FF026FA3F481FF023FA022168
S31508008F300023084604220EF0D9FB3C481FF01AFA13
S31508008F403B4B00211B68DFF8FCB0DA6918689047CC
S31508008F50384B394F186805F09BFA012005F09EFA40
S31508008F60002005F055FA35481FF004FA02F07CFD9A
S31508008F7002F016FE04F056F804F0D8FA04F0ACFA3B
S31508008F802F4BDFF8CC80C3E9000106F095FA04F010
S31508008F90A3FA06462B480D465FF020F99BF80030E9
S31508008FA0052B57D03C2200233046294653F0ECFFC8
S31508008FB01A430BD154F0F9FF014638461FF0DAF987
S31508008FC041469BF8002020481FF0D4F904F080FBA6
S31508008FD04FF47A706FF009F8D9E700964FF4AF614D
S31508008FE01A4A28681FF0EEF960E700BF98AD07082F
S31508008FF091BA0020158B0708C8B90020E094070825
S315080090000C8F0708EF940708FE940708EBB80020B2
S31508009010169507083DBE00087992000826950708A8
S315080090206695070887950708A0950708C595070850
S31508009030701F0120741F0120A5910708F8950708DD
S3150800904090140020E9B800201C96070834950708F4
S31508009050FF93070804F040FACDE906010121032031
S3150800906003F054FF01222220114603F077FF012264
S315080090700B20114603F072FF01222520114603F04A
S315080090806DFF01221D20114603F068FF012202210F
S31508009090002003F063FF01220221282003F05EFF6F
S315080090A0FFF752FA4523604A604961481FF062F9A2
S315080090B009A901205EF0D0FF5E481FF05BF909A8F8
S315080090C009F01AFB0125002601465B481FF066F9E0
S315080090D041F23362594B584959481FF04BF95948E0
S315080090E01FF048F941F23362544B534956481FF072
S315080090F041F90A2155481FF03DF941F23562544BB2
S31508009100494954481FF036F953481FF033F941F2DC
S3150800911035624F4B444951481FF02CF9504946488F
S3150800912000F030FC4F48FEF75DFF2B462A462946DD
S31508009130CDE90056FFF756FB4B486CF0F6FE50B1EA
S3150800914002206EF052FF2B462A462946CDE90056E4
S315080091504548FFF747FB01254448DFF8148114F01A
S31508009160E5FF022088F800504FF0000A6EF03DFF38
S31508009170DFF8009104F0B0F9069BC61A079B61EB6D
S3150800918003079BF80030052B2ED104F08DF804F068
S315080091909FFA01230593304600233946228953F066
S315080091A0F3FE1A4324D099F8003033BB0023304627
S315080091B03946228953F0E8FE013A1A4308BF0125C9
S315080091C0052200233046394653F0DEFE53EA0201F3
S315080091D023D198F8003023B1244814F0A7FF88F863
S315080091E000A054F08DFFC5E704F072FA0023D1E71A
S315080091F01DB999F80050002DE2D01A48FEF770FF05
S31508009200059BCDF804A0009301231A461946FFF7DB
S31508009210E9FA002589F800A0C8E7013A1A4304BF0D
S31508009220012388F80030DCE74996070856960708B0
S3150800923069960708AB96070899B00020C5960708EF
S31508009240CE96070811970708489707087F970708D3
S31508009250B0970708C09707080E980708499807089F
S3150800926071B00020E42E08084CE4002048230020B2
S31508009270D8B90020D9B900202DE9FF478268CA4D20
S31508009280D2B2052A2A7000F21282C84E33889A4250
S3150800929000F00D82C64C00924FF4AF61C54A2068B3
S315080092A01FF090F854F081FE23680246C249002058
S315080092B05DF04CFE54F079FEC04F01462268BE4868
S315080092C01FF058F895F800803B78434508F1FF33BE
S315080092D088BF87F80080042B41D804F0FDF8DFF832
S315080092E0EC92B74B09EBC808C8E90001D3F800802F
S315080092F0404656F0D0F8642015F008FC404656F073
S31508009300DCF82B78581E59F8332009EBC00C59F8AD
S31508009310300009EBC301121ADCF804C04968A948F1
S3150800932061EB0C0100EBC30C40F83320CCF80410B9
S31508009330CDE900214FF4AF61A34A20681FF042F837
S3150800934054F033FE9C490246236800205DF0FEFD7A
S3150800935054F02BFE2268014697481FF00BF82B782D
S31508009360052B40F0AB80964BDFF89092186856F0C4
S3150800937092F82A78954B03EBC201D1F804C09449B8
S3150800938053F832300A88C9E9003C013292B20A80A1
S31508009390397803299FBF8F4801880131018005214B
S315080093A0012A397020688C4F40F08481CDE9003C51
S315080093B04FF4AF61894A1FF005F854F0F6FD2368AB
S315080093C002467D4900205DF0C1FD54F0EEFD22689D
S315080093D0014679481EF0CEFF00231A46DFF8288298
S315080093E0C7E9003240466CF0A0FD7D4B87B295F880
S315080093F00090188054F0D9FDC7F580614B46794A2C
S31508009400009008EB07001EF0DDFF276895F800803E
S3150800941054F0CBFD43464FF4AF61724A009038468C
S315080094201EF0D0FF54F0C1FD2368024662490020B1
S315080094305DF08CFD54F0B9FD226801465E481EF0C9
S3150800944099FF02A8FEF73AFD674F029B67493B6002
S31508009450039B67487B60FB79BA791EF09FFF654BD3
S315080094601B684BB16448FEF7BDFD01231A46194631
S31508009470CDE90033FFF7B6F90121032003F046FDD5
S3150800948001222220114603F069FD01220B20114614
S3150800949003F064FD01222520114603F05FFD012239
S315080094A01D20114603F05AFD01220221002003F077
S315080094B055FD01220221282003F050FD3388052B93
S315080094C040F0F380414F4FF00009BA46B84604F021
S315080094D003F8EAE80201287809F101094845F6DAAD
S315080094E04FF0000CDFF8DCE03B46BA68D9680CF1AF
S315080094F0010CD3E90093B2EB090261EB03034EF8C2
S31508009500082F604507F10807CEF80430ECDA08EBB7
S31508009510C00258F830305268DFF8F080374FC8E993
S315080095200032D7E900011B1A62EB0102CDE90032CD
S315080095304FF4AF61324A20681EF044FF54F035FDFF
S31508009540236802461C4900205DF000FD54F02DFDFD
S315080095502268014618481EF00DFFD8E90032DFF8E8
S31508009560B0C0DFF8A480DCE900011B1842EB010259
S31508009570D7E900105B1A62EB00024046CCE90032DC
S315080095806CF0D3FC164B87B295F80090188054F00F
S315080095900CFDC7F580614B461A4A009008EB070098
S315080095A01EF010FF36E000BFE9B8002064A70020CF
S315080095B0D02400207F9807080C8F0708DAB9002006
S315080095C028EC070808140020949807083814002087
S315080095D06AA7002068A7002070140020BD98070815
S315080095E066A70020FA980708D9B00020158B070847
S315080095F0C0B9002004230020E42E0808881400209F
S315080096000599070822990708E9B000208014002068
S3150800961078140020276895F8008054F0C6FC434665
S315080096204FF4AF61384A009038461EF0CBFE54F02E
S31508009630BCFC23680246354900205DF087FC54F0DF
S31508009640B4FC22680124014630481EF093FE304BD4
S31508009650214603201C7003F059FC224603211A20D8
S3150800966003F07CFC22460421102003F077FC2246F6
S315080096702146222003F072FC224604210B2003F027
S315080096806DFC22462146252003F068FC2246214629
S315080096901D2003F063FC22460221002003F05EFC35
S315080096A022460221282003F059FC2B78338004B087
S315080096B0BDE8F087DFF86080D8E900125B1A6CEB2A
S315080096C00202CDE900324FF4AF61124A1EF07AFE6B
S315080096D054F06BFC236802460C4900205DF036FC0A
S315080096E054F063FC2268014608481EF043FED7E999
S315080096F00001D9E900321B1842EB0102D8E9001033
S315080097005B1A62EB000269E6229907080C8F0708C4
S31508009710EAB80020DE9807088014002084B010B547
S315080097208CB00EAC84E80F009DF87F30154C0B9377
S315080097309DF87C304FF48061AE3B0A939DF87D30EE
S315080097402046AE3B0993BDF876300F4A0893BDF81C
S31508009750743007931B9B06931A9B0593199B0493D6
S31508009760189B0393179B0293169B01939DF89430BD
S315080097700093269B1EF026FE20460CB0BDE810403E
S3150800978004B07047E9B400202D9907082DE9F3477E
S3150800979005460DF107000E4690461F465EF06DFD24
S315080097A018B181B226481EF0E5FD9DF8070000288D
S315080097B043D0C00058F0D2F9044600283DD00146EF
S315080097C00DF107005EF06EFD18B181B21D481EF05E
S315080097D0D1FD9DF807303DB3307883422AD9394602
S315080097E004EBC0005EF077FD327804EBC202D37951
S315080097F092790EE004EBC90A394650465EF06BFDD5
S315080098003B6A013583B986F800909AF807309AF8CA
S3150800981006200D4940461EF0C1FD204658F0BDF908
S31508009820012002B0BDE8F0879DF807305FFA85F998
S315080098304B45DFD8204658F0B0F90020F1E700BFC5
S31508009840A88A0708E18A0708158B070830B5AFB05C
S31508009850104D17AC23462A4600200DF15B01FFF791
S3150800986095FF034670B19DF85B3049221BA96846EF
S31508009870139314956CF04CFB94E80F00FFF74EFF1A
S315080098802FB030BD4FF48061034A04481EF09AFD9C
S315080098900248F5E7B9BA0020059A0708E9B4002096
S315080098A000B589B003A85EF0BFFD70B99DF8143005
S315080098B04FF480610093094ABDF80C3008481EF041
S315080098C081FD074809B05DF804FB83B24FF4806157
S315080098D0044A03481EF076FDF3E700BF159A070809
S315080098E0E9B40020419A07082DE9F041AEB00646D2
S315080098F00DF15B005EF0C1FC18B181B21C481EF088
S3150800990039FD9DF85B00B04203D81A482EB0BDE871
S31508009910F081C00058F022F904460028F5D0014627
S315080099200DF15B005EF0BEFC18B181B212481EF064
S3150800993021FD04EBC607DFF8488017AD29463846EF
S315080099405EF0C9FCFB79BA790C4940461EF026FD43
S31508009950204658F022F91BA949226846CDE9136822
S315080099606CF0D6FA95E80F00FFF7D8FECEE700BFF1
S31508009970A88A0708E42E0808E18A0708158B07084D
S31508009980B9BA002070B50D4604461D4E30461EF085
S31508009990F1FC1C481EF0EEFC41F2356229461A48D5
S315080099A01EF0E8FC19481EF0E5FC214618481EF092
S315080099B0E1FC18481EF0DEFC214617481EF0DAFCCA
S315080099C006F0AEFD15481EF0D5FC15481EF0D2FC73
S315080099D014481EF0CFFC14481EF0CCFC13481EF0A9
S315080099E0C9FC13481EF0C6FC12481EF0C3FC1248F8
S315080099F01EF0C0FC3046BDE870401EF0BBBC00BF80
S31508009A0019330808799A0708AD9A0708CE9A0708FD
S31508009A10DF9A07081F9B0708339B07088B9B0708D5
S31508009A20E19B0708319C07088A9C0708E89C0708F9
S31508009A30249D07087E9D0708D99D070870B58EB036
S31508009A4005460CA85EF0EFFB0CA808F06BFF044671
S31508009A500DF12E030DF12D020BA90DF12B005EF071
S31508009A6099FCBDF82E30134E08939DF82D30124AF6
S31508009A7007939DF82C304FF47A7106939DF82B3096
S31508009A80304605930D4B099404930D4B03930D4BE8
S31508009A9002930D4B01930D4B00930D4B1EF092FC58
S31508009AA0204655F03BFA2946304654F069FA0EB07E
S31508009AB070BD00BFBFBA0020179E070804B9002072
S31508009AC054B90020EBB8002098930708D0B90020B5
S31508009AD0C8B9002070B59AB004460DF117005EF0BB
S31508009AE0CCFB03F0F9FC03F0D1FC2821024606A8BA
S31508009AF01EF068FC03F0F0FC104A10AED2E9003202
S31508009B00C01A61EB020103F0C1FC28210246304667
S31508009B101EF058FC9DF81730094D0293094B0A4A66
S31508009B20CDE900634FF47A7106AB28461EF04AFC6D
S31508009B302146284654F024FA1AB070BD881400202D
S31508009B40BFBA0020C0B90020C19E070838B5012257
S31508009B500446074B074D1A704FF47A712846064A91
S31508009B601EF030FC21462846BDE8384054F008BAB5
S31508009B70D9B90020BFBA0020199F070810B50446B6
S31508009B800B486CF0D2F960B14FF47A71084B094A68
S31508009B9009481EF017FC2146BDE81040064854F057
S31508009BA0EFB94FF47A71054A03481EF00BFCF2E749
S31508009BB04CE4002098AD0708BFBA0020349F070878
S31508009BC038B50446064D4FF47A712846054B064AC1
S31508009BD01EF0F8FB21462846BDE8384054F0D0B9B7
S31508009BE0BFBA0020C8B9002098AD070838B50446A2
S31508009BF0064D4FF47A712846054B064A1EF0E2FBDD
S31508009C0021462846BDE8384054F0BAB9BFBA002004
S31508009C10D0B9002098AD070838B50446064D4FF46C
S31508009C207A712846054B064A1EF0CCFB2146284683
S31508009C30BDE8384054F0A4B9BFBA00209893070885
S31508009C4098AD070838B50446064D4FF47A7128468C
S31508009C50054B064A1EF0B6FB21462846BDE83840A5
S31508009C6054F08EB9BFBA0020EBB8002098AD0708AB
S31508009C7070B58AB004462822002168466CF0A1F81F
S31508009C80A389002B3CD0204654F01DFF0546A0B3FF
S31508009C906A461D4953F02EFC0646284654F0E2FE55
S31508009CA05EB3684619496CF021F968B95EF0F5F9B2
S31508009CB041F28831872005F0F3FB5EF0A3FA54F0F1
S31508009CC011FA00200AB070BD684611496CF00EF909
S31508009CD038B95EF0E2F941F28831872005F0E0FBF9
S31508009CE0EDE76B460B4A4FF47A710B481EF06AFB98
S31508009CF02146094854F044F9E4E76B46074AF2E777
S31508009D00074B084AEFE700BF4B9F0708509F070815
S31508009D105A9F0708649F0708BFBA0020799F07085B
S31508009D2054B9002098AD070838B50446064D4FF4D7
S31508009D307A712846054B064A1EF044FB21462846FA
S31508009D40BDE8384054F01CB9BFBA002004B9002059
S31508009D5098AD070838B5044603F0BEFB03F096FB3A
S31508009D60064D03464FF47A712846054A1EF02AFB2B
S31508009D7021462846BDE8384054F002B9BFBA00204B
S31508009D8098AD070838B50446074DFEF70BF94FF4AA
S31508009D907A712846054B064A1EF014FB21462846CA
S31508009DA0BDE8384054F0ECB8BFBA0020C0B900206E
S31508009DB098AD070838B50446FFF748FD064D034633
S31508009DC04FF47A712846054A1EF0FCFA21462846C1
S31508009DD0BDE8384054F0D4B8BFBA002098AD07089B
S31508009DE038B50446FFF75CFD064D03464FF47A7115
S31508009DF02846054A1EF0E6FA21462846BDE83840B8
S31508009E0054F0BEB8BFBA002098AD070813B50023B2
S31508009E10019383890446B3B10F49806901AA53F0B7
S31508009E2069FB80B19DF80400FFF75EFD03460B4A07
S31508009E304FF47A710A481EF0C5FA2146084854F0CC
S31508009E409FF802B010BD0DF103005EF016FA9DF8FA
S31508009E500330044AECE700BF200E090898AD07084E
S31508009E60BFBA0020909F070830B58BB00446114B47
S31508009E70114DD3E90A01CDE90801D3E90801CDE975
S31508009E800601D3E90601CDE90401D3E90401CDE9C8
S31508009E9002014FF47A71D3E902232846CDE900235B
S31508009EA0064A1EF08FFA214628460BB0BDE8304018
S31508009EB054F066B808140020BFBA0020A39F07080C
S31508009EC038B50446064D4FF47A712846054B064ABE
S31508009ED01EF078FA21462846BDE8384054F050B8B6
S31508009EE0BFBA0020E9B0002098AD0708F7B50023EF
S31508009EF00193838904460F4F73B154F0E4FD054678
S31508009F0050B10D4901AA53F0F5FA0646284654F011
S31508009F10A9FD0EB1019B3B813B89084A4FF47A7132
S31508009F2007481EF04FFA2146054854F029F803B0B1
S31508009F30F0BD00BF1C240020200E09081847090898
S31508009F40BFBA0020F7B500230127CDE900331F4E1D
S31508009F50838905463760BBB154F0B5FD044680B128
S31508009F606B461B4901AA53F0C5FA02281CD19DF875
S31508009F700010184B3A469DF80400197002F0EEFFDF
S31508009F803060204654F06EFD3368E3B9114B124A2F
S31508009F901B784FF47A7111481EF014FA29460F48B7
S31508009FA053F0EEFF03B0F0BD0D496A46204653F064
S31508009FB0A1FA01280146E4D19DF80000054B187066
S31508009FC002F0A4FFDCE7074AE3E700BF14240020F9
S31508009FD000BD0708E826012018470908BFBA00206F
S31508009FE0200E0908BE9F070870B58CB000210646EA
S31508009FF0282202A801916BF0E4FEB3895BB33046D0
S3150800A00054F061FD054678B3184901AB02AA53F02E
S3150800A01071FA022815D1019902A802F0C3FA04467A
S3150800A020284654F01FFDBCB9019B114A4FF47A71BA
S3150800A03010481EF0C7F931460E4853F0A1FF0CB080
S3150800A04070BD28460C4902AA53F054FA012806D0D6
S3150800A050284654F007FD0F242346084AE6E701A9D7
S3150800A06002A802F09BFBDAE71924F5E7DD9F07084B
S3150800A07018470908BFBA00204B9F0708E59F07083D
S3150800A08038B583890546C3B154F01DFD044640B171
S3150800A09002464FF47A710C4802F0BEFE204654F090
S3150800A0A0E1FC4FF47A71094A09481EF08BF92946F2
S3150800A0B0BDE83840064853F063BF4FF47A71054A45
S3150800A0C0014802F0A9FEECE7748F0708F39F07081A
S3150800A0D0BFBA0020BA2E080838B50446074D02F064
S3150800A0E00FFF4FF47A712846054A1EF06BF9214690
S3150800A0F02846BDE8384053F043BF00BFBFBA00202A
S3150800A100FB9F070838B5044603F0A8FE064D02462D
S3150800A1104FF47A7128461EF055F921462846BDE8BF
S3150800A120384053F02DBF00BFBFBA002038B50446EB
S3150800A13003F0E2FC064D02464FF47A7128461EF0FB
S3150800A14041F921462846BDE8384053F019BF00BFFB
S3150800A150BFBA002038B5044603F0EAFC064D0246AD
S3150800A1604FF47A7128461EF02DF921462846BDE897
S3150800A170384053F005BF00BFBFBA002038B50446C3
S3150800A1800D481EF0F7F80D4855F07FF90C4855F0C4
S3150800A1907CF901220B4B0C4D1A704FF47A71284644
S3150800A1A00A4A1EF00FF90A481EF0E4F82146284626
S3150800A1B0BDE8384053F0E4BE03A00708F8EB0708EB
S3150800A1C010EC0708BEBA0020BFBA002030A0070866
S3150800A1D021A0070838B504460D481EF0CBF80D48EF
S3150800A1E055F056F90C4855F053F900220B4B0C4D17
S3150800A1F01A704FF47A7128460A4A1EF0E3F80A489C
S3150800A2001EF0B8F821462846BDE8384053F0B8BED7
S3150800A21058A00708F8EB070810EC0708BEBA002094
S3150800A220BFBA002086A0070877A0070808B5828964
S3150800A2300AB9002008BD054980696BF0E6FD0028CB
S3150800A240F7D1FDF71BFE0120F4E700BFAEA0070813
S3150800A25037B504460A4B0B4D1B884FF47A710093A9
S3150800A260094B0A4A1B8828461EF0ACF82046FFF719
S3150800A270DDFF2146284603B0BDE8304053F080BED6
S3150800A28068A70020BFBA00206AA70020B4A0070864
S3150800A29038B5044603F020F90C4A0D4DD2E90032D0
S3150800A2A0C01A61EB020103F0F1F84FF47A71034624
S3150800A2B0084A28461EF086F82046FFF7B7FF2146CB
S3150800A2C02846BDE8384053F05BBE00BF881400201E
S3150800A2D0BFBA002098AD070870B5044603F0FCF82D
S3150800A2E00F4E104AD6E90056D2E900325B1B62EBE4
S3150800A2F00602181842EB010103F0C8F80A4D034696
S3150800A3004FF47A712846094A1EF05CF82046FFF792
S3150800A3108DFF21462846BDE8704053F031BE00BF88
S3150800A3208814002078140020BFBA002098AD0708CA
S3150800A33038B50B4B0446D3E9000103F0A7F8094DDD
S3150800A34003464FF47A712846074A1EF03BF8204622
S3150800A350FFF76CFF21462846BDE8384053F010BE8B
S3150800A36070140020BFBA002098AD07082DE9F743FE
S3150800A370064603F0B1F8DFF89890DFF89880D9E937
S3150800A3800032D8E900545B1B62EB0402181842EB52
S3150800A390010152F033F900221A4B52F065F90446CE
S3150800A3A00D4603F099F8D9E90032DFF86CE0164F4C
S3150800A3B0DEE900CE13EB0C0342EB0E02D8E900CE21
S3150800A3C0B3EB0C0362EB0E02181842EB010152F0D4
S3150800A3D015F90B4602462946204652F06FFA0B4AF3
S3150800A3E0CDE900014FF47A7138461DF0EBFF30468F
S3150800A3F0FFF71CFF3146384603B0BDE8F04353F07B
S3150800A400BFBD00BF00005940BFBA0020BCA0070866
S3150800A4107814002088140020701400202DE9F04FCD
S3150800A420A7B0834603F058F8414D424CD5E90032AF
S3150800A430D4E900679B1B62EB0702181842EB01017F
S3150800A44003F024F80DF148093B4F024628214846F7
S3150800A4501DF0B8FFD7E9000103F018F80DF1700AEE
S3150800A4600246282150461DF0ADFF03F035F8D5E920
S3150800A47000322668DFF8D8809B1B666862EB060206
S3150800A480181842EB010152F0B9F800222B4B52F092
S3150800A490EBF8CDE9100103F01FF8D5E90032D7E94A
S3150800A4A000575B1942EB0702D4E900545B1B62EBC9
S3150800A4B00402181842EB010152F0A0F802460B46B6
S3150800A4C0DDE9100152F0FAF952F0B0FB52F074F8D7
S3150800A4D0CDE90C9ACDE90E01194B1B880B93194B44
S3150800A4E01B880A93184BD3E90A01CDE90801D3E979
S3150800A4F00801CDE90601D3E90601CDE90401D3E94E
S3150800A5000401CDE902014FF47A71D3E902234046EA
S3150800A510CDE900230D4A1DF055FF5846FFF786FE84
S3150800A5205946404653F02CFD27B0BDE8F08F00BFD2
S3150800A5307814002088140020701400200000594068
S3150800A54068A700206AA7002008140020C2A00708F0
S3150800A550BFBA002084B013B504AC84E80F00084CD9
S3150800A56003460192009120464FF47A71054A1DF080
S3150800A57029FF204602B0BDE8104004B0704700BF6E
S3150800A580BFBA002080A1070884B010B590B012ACFD
S3150800A59084E80F009DF89030164C0F93219B029289
S3150800A5A00E93209B01910D931F9B4FF47A710C9388
S3150800A5B01E9B20460B931D9B0F4A0A931C9B0993CF
S3150800A5C01B9B08931A9B0793199B0693189B059345
S3150800A5D0169B0493159B0393BDF84A300093BDF868
S3150800A5E048301DF0EFFE204610B0BDE8104004B01C
S3150800A5F0704700BFBFBA0020CAA1070884B010B5CB
S3150800A60086B008AC84E80F000493BDF926300B4CDD
S3150800A6100293BDF8243003920193BDF822304FF41B
S3150800A6207A7100932046BDF92030054A1DF0CAFE0E
S3150800A630204606B0BDE8104004B07047BFBA0020F7
S3150800A64088A3070884B013B504AC84E80F00074C48
S3150800A6500B4600904FF47A712046054A1DF0B2FE6B
S3150800A660204602B0BDE8104004B07047BFBA0020CB
S3150800A6702BA4070884B010B59CB01EAC84E80F0064
S3150800A680BDF8DE30214C1A93BDF8DC301993BDF8BD
S3150800A690DA301893BDF8D8301793359B1693349B48
S3150800A6A01593339B1493329B1393319B1293309BD0
S3150800A6B011932F9B10932E9B0F932D9B0E932C9BE0
S3150800A6C00D932B9B01920C932A9B00910B93299B2C
S3150800A6D04FF47A710A93289B0D4A0993279B08938E
S3150800A6E0269B0793259B0693249B0593239B0493FC
S3150800A6F0229B0393219B0293034620461DF062FE8C
S3150800A70020461CB0BDE8104004B07047BFBA002010
S3150800A71071A4070810B58A8904460B460AB90020B1
S3150800A72010BD054998696BF070FB0028F7D12046E3
S3150800A7305DF091FD0120F3E7AEA0070830B59BB0A8
S3150800A7400E4C0546214600205DF0FEFC0C4B04F13C
S3150800A75010011860642268466BF0DAFB94E80F0073
S3150800A760FFF7F8FE29460020FFF7D4FF29460548DB
S3150800A7701BB0BDE8304053F003BC00BFA023002047
S3150800A78014240020BFBA002030B59BB00E4C0546F5
S3150800A790214601205DF0D8FC0C4B04F1100118602D
S3150800A7A0642268466BF0B4FB94E80F00FFF7ECFEF2
S3150800A7B029460120FFF7AEFF294605481BB0BDE82C
S3150800A7C0304053F0DDBB00BFA02300201424002036
S3150800A7D0BFBA002030B59BB00E4C05462146022074
S3150800A7E05DF0B2FC0C4B04F1100118606422684657
S3150800A7F06BF08EFB94E80F00FFF700FF2946022056
S3150800A800FFF788FF294605481BB0BDE8304053F0DE
S3150800A810B7BB00BFA023002014240020BFBA002025
S3150800A82030B59BB00E4C0546214603205DF08CFCE6
S3150800A8300C4B04F110011860642268466BF068FB43
S3150800A84094E80F00FFF7FEFE29460320FFF762FF94
S3150800A850294605481BB0BDE8304053F091BB00BF00
S3150800A860A023002014240020BFBA002030B59BB0D6
S3150800A8700E4C0546214604205DF066FC0C4B04F19F
S3150800A88010011860642268466BF042FB94E80F00DA
S3150800A890FFF7F0FE29460420FFF73CFF2946054846
S3150800A8A01BB0BDE8304053F06BBB00BFA0230020AF
S3150800A8B014240020BFBA002070B50D4E0446314658
S3150800A8C005205DF041FC0B4D0B4B4FF47A71186077
S3150800A8D00A4A336828461DF075FD21460520FFF70C
S3150800A8E019FF21462846BDE8704053F049BB00BF12
S3150800A8F0A0230020BFBA002014240020ABA7070815
S3150800A9002DE9F04389B001271422002103A86BF032
S3150800A91058FAA04BA04DA14C0093A14B684601954F
S3150800A920029404938DF80C7005F09AFD30B140F24C
S3150800A93013519C4B9C4A9D4804F020F99C4BDFF828
S3150800A940049300939B4B6846CDE9019404938DF8D4
S3150800A9500C7005F085FD20B140F21B51914B924ACF
S3150800A960E9E7954B6846CDE90039944B0294049380
S3150800A9708DF80C7005F074FD20B140F22351894B17
S3150800A980894AD8E78E4B684600938E4B8DF80C7033
S3150800A990CDE901348C4B049305F062FD20B140F2F9
S3150800A9A02B51804B804AC6E7884B894E0093894BCA
S3150800A9B06846CDE9016404938DF80C7005F050FDE6
S3150800A9C020B140F23351774B774AB4E7824B684659
S3150800A9D0CDE90036814B029404938DF80C7005F08E
S3150800A9E03FFD20B140F23B516E4B6F4AA3E77C4BCB
S3150800A9F06846CDE900367B4B029404938DF80C70BB
S3150800AA0005F02EFD20B140F24351664B664A92E7A7
S3150800AA10754B6846CDE90035744B029404938DF85E
S3150800AA200C7005F01DFD20B140F24B515D4B5E4A9E
S3150800AA3081E76F4B6846CDE900366E4B0294049366
S3150800AA408DF80C7005F00CFD20B140F25351554BB2
S3150800AA50554A70E7684BDFF8F0810093674B684604
S3150800AA60CDE9018404938DF80C7005F0F9FC20B14A
S3150800AA7040F25B514B4B4C4A5DE70127604B6846F9
S3150800AA80CDE900395F4B029404938DF80C7005F0FC
S3150800AA90E7FC20B140F26351424B434A4BE75A4B1D
S3150800AAA06846CDE90035594B029404938DF80C702D
S3150800AAB005F0D6FC20B140F26B513A4B3A4A3AE7D8
S3150800AAC0534B6846CDE90035524B029404938DF8F2
S3150800AAD00C7005F0C5FC20B140F27351314B324A77
S3150800AAE029E74D4B6846CDE900354C4B0294049353
S3150800AAF08DF80C7005F0B4FC20B140F27B51294B5F
S3150800AB00294A18E7464B6846CDE90038454B029472
S3150800AB1004938DF80C7005F0A3FC20B140F2845123
S3150800AB20204B214A07E7404B684600933F4B8DF878
S3150800AB300C70CDE901343E4B049305F091FC20B12D
S3150800AB4040F28C51174B184AF5E63A4B6846CDE960
S3150800AB500038394B029404938DF80C7005F080FC8C
S3150800AB6020B140F294510F4B0F4AE4E6334BDFF81D
S3150800AB70DC900093324B6846CDE9019404938DF836
S3150800AB800C7005F06DFC002862D040F29C51054B14
S3150800AB90054AD0E6CEA70708D8A70708DDA70708FD
S3150800ABA03D9A0008E2A70708F4B9070822A807088B
S3150800ABB030A80708C19B000841A80708ED9B0008B4
S3150800ABC04CA8070858A80708199C00085CA8070895
S3150800ABD0F27B0908459C00086EA80708719C0008C6
S3150800ABE080A80708299D00088EA80708D59A000896
S3150800ABF09AA807084D9B0008A7A80708559D0008AE
S3150800AC00BCA80708859D0008CBA80708B59D0008BD
S3150800AC10DFA80708E19D0008EFA807080D9E0008B1
S3150800AC2000A9070891A2000812A9070832A907086F
S3150800AC30699E000838A9070831A300085BA9070818
S3150800AC4051A200083DA80708B7A8070877A907086A
S3150800AC50984B6846CDE90038974B029404938DF8D3
S3150800AC600C7005F0FDFB20B140F2A451934B944AB9
S3150800AC7061E6944B68460093934B8DF80C70CDE9CA
S3150800AC800134924B049305F0EBFB20B140F2AC5132
S3150800AC908A4B8B4A4FE601278D4B6846CDE900362D
S3150800ACA08C4B029404938DF80C7005F0D9FB20B1F7
S3150800ACB040F2B551814B824A3DE6874B6846CDE95D
S3150800ACC00035864B029404938DF80C7005F0C8FB8A
S3150800ACD020B14FF4B861794B794A2CE6804B684627
S3150800ACE0CDE900357F4B8DF80C7002937E4B0493AB
S3150800ACF005F0B6FB20B140F2C951704B704A1AE60E
S3150800AD007A4B6846CDE90035794B8DF80C7002937D
S3150800AD10784B049305F0A4FB20B140F2D151674B60
S3150800AD20674A08E6744B6846CDE90035734B8DF8DB
S3150800AD300C700293724B049305F092FB20B140F21B
S3150800AD40D9515E4B5E4AF6E56E4B6846CDE900354D
S3150800AD506D4B8DF80C7002936C4B049305F080FBD9
S3150800AD6020B140F2E151554B554AE4E5684B684637
S3150800AD70CDE90035674B8DF80C700293664B04934A
S3150800AD8005F06EFB20B140F2E9514C4B4C4AD2E536
S3150800AD90624B6846CDE90035614B8DF80C7002931D
S3150800ADA0604B049305F05CFB20B140F2F151434B34
S3150800ADB0434AC0E55C4B5D4C00935D4B6846019386
S3150800ADC05C4B029404938DF80C7005F049FB20B196
S3150800ADD040F2FA51394B3A4AADE5574B684600936B
S3150800ADE0564B8DF80C70CDE90134554B049305F09C
S3150800ADF037FB20B140F20261304B314A9BE50294A1
S3150800AE000124504B6846CDE900394F4B8DF80C406C
S3150800AE10049305F025FB20B140F20A61274B284A26
S3150800AE2089E54A4B6846CDE90036494B8DF80C4012
S3150800AE300293484B049305F013FB20B140F21361CB
S3150800AE401E4B1F4A77E5444B444DCDE90036444B2B
S3150800AE506846029504938DF80C4005F001FB20B175
S3150800AE6040F21B61154B164A65E53E4B6846CDE92F
S3150800AE7000363D4B029504938DF80C4005F0F0FA28
S3150800AE8020B140F223610D4B0D4A54E5374B384D3E
S3150800AE90CDE90036374B6846029504938DF80C4089
S3150800AEA005F0DEFA002867D040F22E61034B044A0B
S3150800AEB041E500BF7BA90708D9A20008E2A7070851
S3150800AEC0F4B907089BA90708B8A907086DA30008DD
S3150800AED0BEA90708C19E0008C7A907081DA400083F
S3150800AEE0DBA9070864B508083DA70008F1A9070803
S3150800AEF003AA070889A7000807AA070819AA0708BE
S3150800AF00D5A700081EAA070830AA070821A800081E
S3150800AF1036AA0708715209086DA8000850AA07083A
S3150800AF2037EF0808B9A800086DAA070881AA070814
S3150800AF3017C30708ED9E00088AAA0708A0D70808BD
S3150800AF40459F0008A0AA0708E99F0008B4AA0708B1
S3150800AF50C4AA07087D9B0008CDAA0708DDAA07082A
S3150800AF6081A00008E2AA0708D9A00008F1AA0708E4
S3150800AF7007AB070805A100086E4B6846CDE9003601
S3150800AF806D4B029504938DF80C4005F069FA20B1D3
S3150800AF9040F23661694B6A4ACDE46A4B6846CDE9A8
S3150800AFA00036694B029504938DF80C4005F058FA63
S3150800AFB020B140F23E61614B614ABCE4634B644E8A
S3150800AFC0644D0093644B68460196029504938DF888
S3150800AFD00C4005F045FA20B14FF4C961574B584A61
S3150800AFE0A9E45E4B6846CDE900365D4B02950493AD
S3150800AFF08DF80C4005F034FA20B140F251614F4B00
S3150800B0004F4A98E4574B6846CDE90036564B0295A9
S3150800B01004938DF80C4005F023FA20B140F25961EB
S3150800B020464B474A87E40124504B6846CDE900362B
S3150800B0304F4B029504938DF80C4005F011FA20B198
S3150800B04040F261613D4B3E4A75E44A4B6846CDE99C
S3150800B0500036494B029504938DF80C4005F000FA2A
S3150800B06020B140F26961354B354A64E4434B444F9D
S3150800B070DFF838810093434B68460197CDF808807E
S3150800B08004938DF80C4005F0EBF920B140F271619C
S3150800B0902A4B2B4A4FE43C4B6846CDE900373B4BDD
S3150800B0A0CDF8088004938DF80C4005F0D9F920B145
S3150800B0B040F27961214B224A3DE4354B6846CDE999
S3150800B0C00036344B029504938DF80C4005F0C8F908
S3150800B0D020B140F28161194B194A2CE42E4B68467F
S3150800B0E0CDE900372D4B029504938DF80C4005F0F9
S3150800B0F0B7F920B140F28961104B114A1BE4284B7D
S3150800B1006846CDE90037274B029504938DF80C4025
S3150800B11005F0A6F920B140F29161084B084A0AE405
S3150800B12032222F2120481DF025F92F2009B0BDE82D
S3150800B130F08300BF15AB07082DA10008E2A7070892
S3150800B140F4B9070827AB070855A100083BAB070861
S3150800B150D8A7070844AB070875B600084BAB07081D
S3150800B16081B4000853AB0708C1B200085CAB0708F6
S3150800B170EDB5000865AB07083DB3000871AB0708D5
S3150800B180F27B09087DA1000880AB0708D5A1000855
S3150800B19088AB07088DB7000896AB070841BB0008BF
S3150800B1A0ADAB070889BC0008C2AB070878AB07082F
S3150800B1B02DE9F04FA9B04FF000083B481DF0DAF82A
S3150800B1C078223A490AA86AF0A3FE1822002104A8A0
S3150800B1D06AF0F7FD47464FF0000BDFF8DC90DFF822
S3150800B1E0DCA00AAD04AE2C7C2888611C03F05CF94F
S3150800B1F000284DD0002C45D0002003F00FF9044656
S3150800B200012003F00BF944EA004307EE903A95ED66
S3150800B210037AF8EE677A67EE877AC6ED007A17EE54
S3150800B220900A51F0C9F90B46A96802460091013700
S3150800B23050466968FFB21DF09DF800234CF24F3264
S3150800B2400393039B93422ADD08F10108B8F1060F20
S3150800B25005F1140506F10406C5D1424639461448D7
S3150800B2601DF088F8134B049A1A60059A5A60089AD2
S3150800B2709A60069ADA60079A1A61099A5A6129B099
S3150800B280BDE8F08F204603F0C9F807EE900ABEE73E
S3150800B29048466968C6F800B01DF06CF8CDE7039B10
S3150800B2A001330393CDE700BFF9AB07080CBA0708CB
S3150800B2B03CAC07088823002029AC070817AC070808
S3150800B2C02DE9F341DFF87080054616481DF052F85F
S3150800B2D0FFF76EFFD8F8040051F06EF9124FCDE96A
S3150800B2E00001124A4FF47A7138461DF06BF802F0E5
S3150800B2F0F3F80F4AD2E90046041BD8F8040061EBBC
S3150800B300060651F059F92246CDE9000133460948A7
S3150800B3101DF030F82946384602B0BDE8F04152F033
S3150800B3202FBE00BF6AAC0708BFBA00208AAC070860
S3150800B330A8140020A1AC07088823002070B58CB09B
S3150800B3401F4C06461F481DF015F8FFF731FF6069C8
S3150800B35051F032F9CDE90A01206951F02DF9CDE90C
S3150800B3600801E06851F028F9CDE90601A06851F016
S3150800B37023F9CDE90401606851F01EF9CDE902010F
S3150800B380206851F019F9104DCDE900010F4A4FF424
S3150800B3907A7128461DF016F802F09EF80C4CD4E98E
S3150800B3A00023821A61EB030300950A481CF0E2FFAA
S3150800B3B0314628460CB0BDE8704052F0E1BD00BFEA
S3150800B3C088230020D7AC0708BFBA0020FAAC0708C4
S3150800B3D0A814002074AD070813B5204C237A7BB354
S3150800B3E01F4840216A46006801AB53F049FE0146F2
S3150800B3F040BBDDED017A9FED1B7AF8EEE77AC7EEE2
S3150800B400876ADDED007AF8EE677AC4ED006AC7EE62
S3150800B410876AC4ED016A02F05FF8134BC3E90001BD
S3150800B420206851F0C9F802460B4610481CF0A2FFE6
S3150800B430606851F0C1F802460B460D481CF09AFFA9
S3150800B44002B010BD0B481CF095FF0B481CF092FF8C
S3150800B45000232372094B23606360F1E77C230020F5
S3150800B460181F012000007A44A01400209BAD07088D
S3150800B470B2AD0708CAAD070800AE070800C079C410
S3150800B480F0B52DED028B85B0264C054626481CF0F6
S3150800B49071FFFFF7A1FF237A43B194ED008ADFED30
S3150800B4A0237AB4EE678AF1EE10FA11D14FF47A7165
S3150800B4B01F4A20481CF086FF1F481CF05BFF2946E0
S3150800B4C01C4805B0BDEC028BBDE8F04052F058BDF3
S3150800B4D0606851F071F8CDE9020118EE100A51F0D2
S3150800B4E06BF8164ACDE900014FF47A7111481CF041
S3150800B4F069FF01F0F1FF124AD2E90076C71B6068BE
